:020000041000EA
:1000000000B5324B212058609868022188439860DF
:10001000D860186158612E4B002199600221596106
:100020000121F02299502B49196001219960352056
:1000300000F044F80222904214D00621196600F024
:1000400034F8196E01211966002018661A6600F04E
:100050002CF8196E196E196E052000F02FF8012189
:100060000842F9D1002199601B49196000215960AB
:100070001A491B48016001219960EB211966A021F2
:10008000196600F012F800219960164914480160C1
:100090000121996001BC002800D000471248134993
:1000A000086003C880F30888084703B5996A0420EC
:1000B0000142FBD001200142F8D103BD02B5186610
:1000C0001866FFF7F2FF186E186E02BD00000240BE
:1000D000000000180000070000035F00212200005C
:1000E000F4000018222000A00001001008ED00E03C
:1000F00000000000000000000000000074B24E7A12
:1001000000200420F7010010C3010010C5010010F9
:10011000C1010010C1010010C1010010C101001097
:10012000C1010010C1010010C1010010C701001081
:10013000C1010010C1010010C9010010CB01001065
:10014000CD010010CD010010CD010010CD01001037
:10015000CD010010CD010010CD010010CD01001027
:10016000CD010010CD010010CD010010CD01001017
:10017000CD010010CD010010CD010010CD01001007
:10018000CD010010CD010010CD010010CD010010F7
:10019000CD010010CD010010CD010010CD010010E7
:1001A000CD010010CD010010CD010010CD010010D7
:1001B000CD010010CD010010CD010010CD010010C7
:1001C00000BE00BE00BE00BE00BE00BEEFF3058054
:1001D000103800BEF2EB8871A4950010C495001091
:1001E0003802001090A31AE71E481F49086006C88D
:1001F00081F3088810471D480068002801D019487D
:10020000F3E70DA40ECC002902D000F012F8F9E7B4
:100210001749184A002000E001C19142FCD116495B
:100220008847164988471649884700BEFDE701C937
:1002300001C29A42FBD37047C4950010C000002051
:10024000B8150020BCAA0010000004200000042003
:10025000BCAA0010001004200010042000000000C0
:10026000704700000000000008ED00E0000000D032
:10027000B815002068290020F5520010690300100D
:10028000ED520010F8B5C0460448054B10B5834246
:1002900003D0044B002B00D0984710BDB8150020A8
:1002A000B81500200000000006480749091A8B1005
:1002B000C90FC91810B5491003D0044B002B00D04A
:1002C000984710BDB8150020B815002000000000A8
:1002D00010B5074C2378002B09D1FFF7D5FF054B4C
:1002E000002B02D0044800E000BF0123237010BDA2
:1002F0004819002000000000F88D0010054B10B5D3
:10030000002B03D00449054800E000BFFFF7CCFFF5
:1003100010BDC046000000004C190020F88D0010F0
:100320000122014B1A6070478024002010B50400A0
:100330001F2101F085F900222000002101F09AF927
:100340000021200001F012FA10BDC04610B50520B2
:1003500001F020FAD02320221B069A6201210022FC
:10036000052001F087F910BDF0B5DE464E46574630
:10037000454648224823E0B59FB004AF9B18DB19DF
:100380007B6605F0E9F8FFF7E1FF964B01220421B7
:10039000052001F083F907F089FE934C9349200072
:1003A00007F052FE03210E2001F04AF903210F202D
:1003B00001F046F9002201210E2001F05BF9002234
:1003C00001210F2001F056F901943C234C244022D6
:1003D000802100933819002300F0E0FB381900F069
:1003E000F7FB381900F0DCFC0021381900F01EFD85
:1003F000381900F0D5FC1A20FFF798FF1B20FFF7F3
:1004000095FF6A467A4B002099461B689B0007338C
:10041000DB08DB00D31A9D4608F0D4FB07F062FE30
:100420004B4669461D68734B04AE1B689C006B43CA
:100430009A00D31DDB08DB00CB1A9D4604AB0021DC
:100440001800BA607B6403F063FB002D04DD00211B
:100450003000AA0003F05CFB4C230021F81800F0E8
:10046000E5FC796C644B8C467B63644BA4443B6332
:10047000634BA208BB63634BA0007B61624B634D7F
:100480007B60634BBA62BB61624BF8619B46624B17
:100490009846624B7B62634694463B6063003B62D6
:1004A000630863448C469B009C44E24601243E64FE
:1004B0007E6929784C200B00381863402B7000F0BF
:1004C000B5FC2A784C2013006340DBB202933A2338
:1004D00003210192009303224033381800F0E6FC18
:1004E0004C2000230F22796B381800F04FFF4C206E
:1004F00014231122396B381800F048FF4C202323B5
:100500001122B96B381800F041FF4C23F81800F0A5
:1005100047FC3368012BCCD14C247B69786819687F
:100520003E6C05F0F1F83819002100F07FFC381915
:1005300000F036FC4B461C68002C00DC02E3A200F5
:100540000021300003F0E4FA0122BB69FA631B6862
:100550003B64002B00DCFBE13B68FD6255469A469C
:10056000BA680021786C03F0D3FA00235A4613606E
:1005700042461360002C00DC0BE301333B64002295
:100580000023B96A4B439B180122796C9B005A5097
:1005900007F0B2FD8023224A5B0111684B40E02145
:1005A000C9010B401F490B6004211F4B1960FC312E
:1005B00013680B42FCD053687A6A1B041B0C13604F
:1005C0001A4A94466344C62B38D802F0D9FE184A1A
:1005D000184B02F050FE0022174B02F0BBFE002821
:1005E00031D02BE02103001068100020801A060093
:1005F0009C0F0020980F0020F88D0010088E00102E
:10060000188E001080240020248E0010A40F0020DB
:10061000A00F0020382900209C240020242900203D
:1006200000C0044000D0044000E004402FF8FFFF69
:100630000000C0FFFFFFDF410000E03F43464246AD
:100640001B68013313605B465A461B680133136015
:100650004A461268013A934206D143461B689B0002
:10066000F3181A6801321A6048240A223919F86B03
:1006700007F074FD4C20391900233C22381800F093
:1006800085FE0A2001F0F4FF534639190A22186842
:1006900007F064FD4C2039190A233222381800F083
:1006A00075FE0A2001F0E4FF534639190A22586802
:1006B00007F054FD4C2039190A234622381800F05F
:1006C00065FE0A2001F0D4FF3B6A48219C467C6C01
:1006D0000A2264442068791807F040FD48214C2024
:1006E000142328227918381800F050FE0A2001F04F
:1006F000BFFF48210A226068791807F02FFD4821C2
:100700004C2014233C227918381800F03FFE0A20B0
:1007100001F0AEFFA06848240A22391907F01EFD37
:100720004C20142339195022381800F02FFE0A20CB
:1007300001F09EFF39190A22286807F00FFD4C20AE
:100740001E2339191E22381800F020FE0A2001F05D
:100750008FFF39190A22686807F000FD4C201E231C
:1007600039193222381800F011FE0A2001F080FFFA
:1007700039190A22A86807F0F1FC4C201E23391908
:100780004622381800F002FE0A2001F071FF3919E4
:100790000A22E86807F0E2FC4C2039191E235A228D
:1007A000381800F0F3FD0A2001F062FFFB694821D0
:1007B0009C467C6C0A2264442068791807F0CEFCC1
:1007C00048214C20282314227918381800F0DEFD27
:1007D0000A2001F04DFF48210A226068791807F0CD
:1007E000BDFC48214C20282328227918381800F015
:1007F000CDFD0A2001F03CFF48210A22A0687918AB
:1008000007F0ACFC48214C2028233C2279183818EA
:1008100000F0BCFD0A2001F02BFF48210A22E0680D
:10082000791807F09BFC48214C2028235022791886
:10083000381800F0ABFD0A2001F01AFF20694824A7
:100840000A22391907F08AFC4C202823391964221E
:10085000381800F09BFD0A2001F00AFF4C203818E0
:1008600000F09EFA39190A22306807F077FC4C2014
:10087000372339191422381800F088FD282001F098
:10088000F7FE39190A22706807F068FC4C203723FC
:1008900039192822381800F079FD282001F0E8FEE7
:1008A00039190A22B06807F059FC4C20372339194E
:1008B0003C22381800F06AFD282001F0D9FE3919D1
:1008C0000A22F06807F04AFC4C20372339195022DD
:1008D000381800F05BFD282001F0CAFE39190A2201
:1008E000306907F03BFC3919043437236422381986
:1008F00000F04CFD282001F0BBFE381900F050FA42
:10090000FB6A38191A7801235340029301233221DC
:10091000019200930F22633300F0C8FA381900F0F7
:100920003FFA4A463B6C146801333B649C4204DB4B
:100930005B4642461B68126823E6BB691A68FB6B7C
:100940003A640133FB63934200DC09E6AA46FD6A80
:100950004C240021381900F069FA381900F020FA07
:1009600033681A3C1A0062433B64BB691000196883
:1009700002F00CFA37210123C0B22A78091A00903C
:100980004C205340DBB2C9B2029301920A231422D5
:10099000381800F08BFA192001F06AFE7268BB6902
:1009A000100019686043FA6302F0F0F9372101235F
:1009B000C0B22A78091A00904C205340DBB2C9B269
:1009C000029301920A232822381800F06FFA1920A6
:1009D00001F04EFEB1680B0063431800BB69F96279
:1009E000196802F0D3F937210123C0B22A78091A15
:1009F00000904C205340DBB2C9B2029301920A230B
:100A00003C22381800F052FA192001F031FEF1684A
:100A1000BB690A00624339611000196802F0B6F937
:100A200037210123C0B22A78091A00904C20534084
:100A3000DBB2C9B2029301920A235022381800F0A7
:100A400035FA192001F014FE3169BB69F960614380
:100A50000800196802F09AF9012337212A78C0B2F8
:100A600053401A343C19091ADBB2C9B202930192FD
:100A70000A2364220090200000F018FA192001F0E7
:100A8000F7FD48210C000A227918386C07F066FB44
:100A9000391904343C1939231522200000F076FC62
:100AA000282001F0E5FD48210C000A227918F86B96
:100AB00007F054FB391904343C193923292220004A
:100AC00000F064FC282001F0D3FD48210C000A222C
:100AD0007918F86A07F042FB391904343C193923B4
:100AE0003D22200000F052FC282001F0C1FD4821E9
:100AF0000C000A227918386907F030FB39190434E0
:100B000039235122381900F041FC282001F0B0FDB2
:100B100048210A227918F86807F020FB4821392378
:100B200065227918381900F031FC282001F0A0FD69
:100B3000381900F035F900237A691748136001F07D
:100B400097FDB3E4BB691B683B64002B00DCFFE648
:100B5000BA680021786C02F0DBFF00235A4613606C
:100B6000424613600133FB63FC6B3B6C0134A342D0
:100B700000DAEDE6BA680021786C02F0C9FF0023C4
:100B80005A461360424613603B6C0134A342F1DACB
:100B9000DEE6AA46FD6AE7E71027000070B504000C
:100BA000D00804AB05041B78484312020A432A43C9
:100BB0001B061A43059B01306360012122602061FE
:100BC00002F08AFF402303704033E060237570BD5C
:100BD00070B506000025AE2382B014360400C1783B
:100BE000437532004068AC3B009507F055FA20236E
:100BF000E1786375320060681E3B009507F04CFA9F
:100C00000123E1786375320060680133009507F0D5
:100C100043FA4023E1786375320060683E3B0095FB
:100C200007F03AFAA123E1786375320060689F3BD0
:100C3000009507F031FAA823E17863753200606807
:100C4000A63B009507F028FA3F23E1786375320050
:100C500060683D3B009507F01FFAC823E178637593
:100C600032006068C63B009507F016FAD323E1789E
:100C7000637532006068D13B009507F00DFAE178AA
:100C80003200606865750223009507F005FADA23E3
:100C9000E178637532006068D83B009507F0FCF995
:100CA0001223E178637532006068103B009507F00D
:100CB000F3F9D523E178637532006068D33B009582
:100CC00007F0EAF98023E1786375320060687E3BC3
:100CD000009507F0E1F9D923E17863753200606887
:100CE000D73B009507F0D8F9F123E178637532001E
:100CF0006068EF3B009507F0CFF9DB23E17863757F
:100D000032006068D93B009507F0C6F93023E178DE
:100D10006375320060682E3B009507F0BDF98123B2
:100D2000E1786375320060687F3B009507F0B4F9A5
:100D3000FF23E178637532006068FD3B009507F0A2
:100D4000ABF9A423E178637532006068A23B00959B
:100D500007F0A2F9A623E178637532006068A43B2E
:100D6000009507F099F98D23E1786375320060688A
:100D70008B3B009507F090F91423E17863753200FE
:100D80006068123B009507F087F9AF23E17863753F
:100D9000606832000095AD3B07F07EF902B070BD8F
:100DA00070B5060000252123040082B01436C178F6
:100DB0004375320040681F3B009507F06DF9E178FC
:100DC0003200606865750223009507F065F92378A5
:100DD000E178013B6375320060680223009507F0FB
:100DE0005BF92223E178637532006068203B00954F
:100DF00007F052F9E17832006068657502230095CA
:100E000007F04AF9A378E178013B63753200606826
:100E10000223009507F040F92369E268E1786068F1
:100E2000009507F039F902B070BDC0464378F0B5BF
:100E3000002B20D0072300269C4601270478002998
:100E40001FD1002C17D063463D0033409D40ED4339
:100E50000023F208EDB20132C4680133A15CDBB2B9
:100E60002940A154047808329C42F5D801364378D1
:100E7000F6B2B342E5D8F0BD01364378F6B2B342DC
:100E8000F9D9002CF7D063463D0033409D40002344
:100E9000F208EDB20132C4680133A15CDBB2294330
:100EA000A154047808329C42F5D8E5E7F0B5DE4657
:100EB000574645464E469B46E0B585B00EAB1500FD
:100EC0001A780FAB1B780C00009310AB1B780193C2
:100ED0005B465F19BD4200DB1CE1CB0801330126F4
:100EE0009C46072399460B4031009940531EE31856
:100EF000DBB20291D908884601218A4649460B4057
:100F00009E40009BD044002B00D08CE0029BF64317
:100F1000D943CBB29A46F3B2994611002B004A4608
:100F2000B94657468A46029403956446C668D90076
:100F30006518745D41443C407455C56801336C5C70
:100F4000DBB214406C549945EFDC5246029C4F468C
:100F50001319039D9C422ADA5E46EA00013290464C
:100F6000013EAE19F6B2F600013607218A4606396F
:100F7000AB462200454689469C46B04602970394FC
:100F800054464F461440A740C368D1086E189C5D74
:100F90004144BC439C55C4680132635CD2B2BB433C
:100FA00063549445ECDC63465D46029F039C019AC2
:100FB000002A00D183E06A1C791ED2B28A4691428F
:100FC0007DDD611C013BC9B28B4278DD00990235A1
:100FD000002900D07AE0D20001329446A21C90464B
:100FE0000200E9B21800894663460126944642464B
:100FF000D4B20727611EC9B2CA0839403700654616
:101000008F40ED689A1892B2A95CB943A9542200A6
:1010100001349042EDDC4A46083301329BB2CA45A6
:101020004DDD9146E3E76B461B7A39009946F6B2EF
:101030004F4692462B00320089460294039564463F
:10104000C668D9000D19745D41443C437455C568A8
:1010500001336C5CDBB214436C544B45EFDB5246FE
:10106000029C4F461319039D9C42A0DA5E46EA009B
:1010700001329046013EAE19F6B2F6000136072164
:101080008A460639AB462200454689469C46B0460C
:101090000297039451464F4611408F40C368D408CD
:1010A0002E19F9B29F5D44440F439F55C368013226
:1010B0001E5DD2B2314319556245EBDB73E705B0D3
:1010C000F0BCBB46B246A946A046F0BDE9B2D50089
:1010D000A21C904601228946944601354246D4B26C
:1010E0000727611EC9B2CA08394067468F403900D8
:1010F000C668AA1892B2B75C3943B15422000134D1
:101100009342EDDC4A4608350132ADB2D145D6DA1C
:101110009146E3E753188B4200DC48E75E46EA005D
:10112000013E0132AE199046F6B2009AF600013641
:10113000002A00D119E7A2E7F0B5DE4657464E4631
:1011400045460C00E0B5413C99B0192C00D90EE1A0
:101150003639C90089B28846D90807240131069179
:10116000012125000E001D40AE403500F643EDB2D2
:1011700008955D1CF6B2EDB20796EE08013617969B
:101180000E002540AE403500F643EDB20A959D1C99
:10119000EDB2F7B2EE080997771C0E002540AE407D
:1011A0003500F643EDB20C95DD1CEDB20497F7B2B5
:1011B000EE080B97771C0E002540AE403500F64335
:1011C000EDB20E951D1DEDB20197F7B2EE080D9729
:1011D000771C0E002540AE403500F643EDB2109569
:1011E0005D1DEDB20397F7B2EE080F97771C0E0066
:1011F0002540AE403500F643EDB212959D1DEDB28F
:101200000097F7B2EE081197771C0E0007332540C0
:10121000DBB2AE401C40A140F5B21495DD08CB43D3
:10122000DBB21593CBB2169313000135AC460833ED
:10123000554DDBB2454498460123994663460297D3
:10124000F743059343460699179EFFB28C46B04676
:10125000139706935BE0079F3C4034704446C76891
:10126000E4183E193C5D02270F4200D07CE0099F44
:101270003C403470049CC768E4183E193C5D042768
:101280000F426ED10B9F3C403470019CC768E4183C
:101290003E193C5D08270F4260D10D9F3C403470E1
:1012A000039CC768E4183E193C5D10270F4252D1D9
:1012B0000F9F3C403470009CC768E4183E193C5DA9
:1012C00020270F4244D1119F3C403470029CC668D5
:1012D000E4183719345D4026BB460E4235D1139EC3
:1012E00034405E463470059C49B2A246C4685344FB
:1012F000E618B246E35C002916DB159901320B4073
:1013000051460B70069BD2B201359A4216D0644604
:10131000C768D300E4183E193C5D4F4629780F4258
:1013200099D0089F3C4398E7169901320B435146E8
:101330000B70069BD2B201359A42E8D119B0F0BCCD
:10134000BB46B246A946A046F0BD149E3443C8E74A
:10135000129F3C43B9E7109F3C43ABE70E9F3C43D1
:101360009DE70C9F3C438FE70A9F3C4381E70024A5
:10137000A0460C00303C092C00D9EDE62F39C900FD
:1013800089B28846E8E6C046D48F0010F8B5070059
:101390000E0014001D0014E0220008342B00380059
:1013A000E4B2FFF7C9FE22003B78083201369A42C8
:1013B00002DB00240835EDB22B007A780833934223
:1013C00002DA31780029E7D1F8BDC046D0231B06E8
:1013D0001B68974A9900F0B54E46894651585A42C3
:1013E00053412F2257464546DE465B42934398467B
:1013F000904BE0B59C4683B000270191E044002962
:1014000039D08D4B0F269B464246FB0808339B0084
:101410009C5801233D009A460837002C22D0310009
:101420002140264218D05B464A469A582B00EA4093
:10143000203BDB171340524613420DD10722080010
:101440002A40920090400200EB087C483C339B000D
:101450001A502800019B984724090135002C01D01F
:10146000BD42DCD3202FCFD103B0F0BCBB46B24687
:10147000A946A046F0BD704B00200F229B46C6082F
:101480003300414608339B005B5801000830002BB5
:1014900000D1B2E017001F40BC461A420FD04C46A4
:1014A0005D460F002C59203FCC40FF1727400124F8
:1014B000274204D16446614F3C36B600F4511E0900
:1014C00000D19AE017003740324213D04C1CA4469A
:1014D0005D464C462C5965460E00EC401F3EF61703
:1014E00026400124264205D1EE08544C3C363F01EB
:1014F000B60037511E0A00D17FE017003740324254
:1015000013D08C1CA4465D464C462C5965460E00F3
:10151000EC401E3EF61726400124264205D1EE0877
:10152000464C3C363F02B60037511E0B65D01700C3
:10153000374032420DD0CC1CA4465D464C462C5957
:1015400065460E00EC401D3EF6172640012426425B
:1015500057D01E0C51D014003440A44632420BD058
:101560004C46354E0F1D3659FE40B2460E005446CD
:101570001C3EF60F26424BD01E0D3ED014003440C8
:10158000A44632420BD04C462B4E4F1D3659FE40DE
:10159000B2460E0054461B3EF60F264240D01E0EA9
:1015A0002BD014003440A446324212D04C46224E76
:1015B0008F1D3659FE40B2460E0054461A3EF60FB5
:1015C000264206D16446FE083C3627061B4CB60070
:1015D00037511B0FCF1D002B0FD04C465D462E59A7
:1015E0000124FE401939C9173140214205D1F908BB
:1015F000124E3C311B0789008B51202800D03EE75A
:1016000032E7EE080D4C3C363F03B6003751A0E7F9
:101610006446FF083C37BE00084F2404F451ABE792
:101620006446FE083C362705044CB6003751B6E741
:10163000842400203041014028290020004001403E
:10164000094A83009A1810B5146840225440803229
:101650002240064CC000A44663441A60044B9C46DA
:101660006044416010BDC04604C0014004D0014048
:1016700000400140074B8000C3181B68C90092005E
:101680000A435A400C231340034A944660440360C3
:101690007047C04604C0014004D00140F8B545463B
:1016A0009846D0231B06DE461C689B462B4B5746AC
:1016B0009A46A3004E469946E0B5534616004A4660
:1016C0009B5807000D00002B34D04346002B3FD021
:1016D00053464A4641469950D0231B061C68634234
:1016E0005C412F220720634293431D4A38409446B1
:1016F000FA081100800085403C311A486344890093
:1017000092000D509B18002E0ED08022920194461C
:10171000634401210D201D6000F028F9F0BCBB4698
:10172000B246A946A046F8BDC02292019446634441
:101730001D60F3E74346002BD1D0534641460D20B0
:1017400099500022084900F077F95B461C68C6E70B
:101750000D20054900F06AFABAE7C046842400204B
:101760003041014000400140CD13001080000029AD
:1017700005D0064B9C464023604403607047044BF1
:101780009C46402360440360F8E7C04604E0014003
:1017900004F001400123D02283401206936293613A
:1017A000094A83009A1811684022514080320A4049
:1017B0000649C0008C4663441A60054B9C460523CD
:1017C000604443607047C04604C0014004D00140FB
:1017D000004001408023DB051868000F7047C046B9
:1017E0000FB400B5084883B003F006FF049B002B3C
:1017F00007D005A91800019103F02CFD034803F060
:10180000FBFE012003F03EFD288E0010388E0010F4
:1018100070B5EFF3108C72B60D4D2B68002BFCD019
:10182000BFF35F8F0724CB08C618C05C01230C40B0
:10183000A3401C000440034207D118433070BFF39B
:101840005F8F2C608CF3108870BD1000FFF7C8FF0D
:101850002C0100D0F8B54746CE46884680B5EFF358
:10186000108C72B6214D2C68002CFCD0BFF35F8F1A
:101870009A422CD8D4080727055D06190124174081
:10188000BC402C421FD007210127894609E0D4081B
:10189000055D06194C4639001440A1400C00294250
:1018A00011D001329342F2D201204042BFF35F8F48
:1018B00000220E4B1A608CF3108800280FDBC0BC8E
:1018C000B946B046F8BD254310003570EEE7BFF3CA
:1018D0005F8F00232B608CF3108801204042434629
:1018E000002BECD00898FFF77BFFC0462C0100D0FE
:1018F000044A1078431CDBB2172B00D91023137055
:101900007047C046A50F002010B5064B064C82B0AC
:101910000100009318221F232000FFF79BFF02B055
:1019200010BDC0463C8E0010942400200021044BC2
:10193000044ABFF35F8F02C39342FAD17047C04697
:10194000000100D0800100D0054B064A1360064A12
:10195000136053609360D360136153619361704768
:101960008080808000E400E004E400E01F23184051
:101970001E3B8340002905D0C021044A4900535032
:1019800013607047802201498B50FAE700E100E0C4
:1019900001228240034B1B6813405A1E9341D8B268
:1019A0007047C04600E100E001238340014A136014
:1019B0007047C04600E200E0084B10309B68800092
:1019C000C358002B07D0064A00209B1A2F229A42A8
:1019D0004041C0B270470020FCE7C04600ED00E087
:1019E000A80F002070B50D00EFF3108672B60F4AF5
:1019F0001368002BFCD0BFF35F8F0D4B10309B683A
:101A000084001B590B4A934203D09D4201D001F040
:101A1000DFF8074B9B681D51BFF35F8FBFF35F8FEC
:101A20000022024B1A6086F3108870BD240100D09A
:101A300000ED00E0CD010010F0B557464E46DE4601
:101A40004546E0B585B0060000911700EFF3108B16
:101A500072B66A4A1368002BFCD0BFF35F8F002573
:101A6000674B5D579A46002D00DAA9E06B00654C84
:101A700001935B199B009846A146C1444B465246D0
:101A80009B7910361370604BB6009B6899590B1BFD
:101A90002F2B33D95D4B994200D0ACE0019B4246DD
:101AA0009C465B4B6544AD0063535A4B0232A2180F
:101AB000043B9B1A1B05584A5B0D651913436B8049
:101AC000564B0121AB80FF23AB71009BEF71AB60E4
:101AD0004B460B4319004C4B9B689951BFF35F8FEA
:101AE000BFF35F8F0022454B1A608BF3108805B05F
:101AF000F0BCBB46B246A946A046F0BD01200A0094
:101B00008243D3798C46BB4231D8454613004449C1
:101B10001B1B5B415943090D3D4B63533D4B023544
:101B20006519043B5B1B1B053B4D5B0D2B43AA4614
:101B30004D466B800425AC465546E044131F444493
:101B40001B1B1B055B0D1D434B46997100999D8026
:101B500099604946DF71334B01431360BBE758007E
:101B6000C01880002018C179B9422FD9020006237D
:101B7000D356002BF3DA02932B4B61460393131DCC
:101B80009A4604235B429C46E14450464B461B1A4E
:101B90001B055B0D9C46204B95719846634640465D
:101BA00003439380019B5A199200039BA418A380BE
:101BB000029B1C4AA371009B2260E771A3608AE725
:101BC00001F006F8002553465D574FE790880293D1
:101BD0004005131D9A46031561469C464046D44471
:101BE000634604302018181AE0230005400D1B023C
:101BF00018430390C5E700F0EBFF4FE7240100D046
:101C000061290020A80F002000ED00E0CD010010A8
:101C100000A1FFFFD80F002000E0FFFF01BDFFFF84
:101C2000AAAA00000148804701BD0000F0B5DE46C9
:101C300057464E464546E0B50C0083B0EFF310889A
:101C400072B6634A1368002BFCD0BFF35F8F614B01
:101C500061499A68030010339F00D55900938D4263
:101C600043D0A54254D05D4EAA1B2F2A3DD85C4BD1
:101C70009C461B689A4601231A00994682405346A7
:101C800013401F2201934B46024093409A46802204
:101C9000634650469850BFF35F8FEFF305839B4632
:101CA000002B37D0009B5B4501D000F091FF2A004C
:101CB0004B469A439068844208D177E04B005B180A
:101CC0009B00F3189868844236D01A0006215156BA
:101CD0000029F3DA844255D0019B002B27D0C02283
:101CE00051463F4B5200995019603A4B9B68DD5169
:101CF000BFF35F8FBFF35F8F0022354B1A6088F30D
:101D0000108803B0F0BCBB46B246A946A046F0BD61
:101D10000D00EAE72A004B469A4390688442D5D1E9
:101D200006201056130000280ADA0D0032E0802346
:101D300051462B4AD150D8E706201856002822DBFE
:101D400042001118890074188946A1689960E179E8
:101D5000D971062161569971002925DBA488F11AF1
:101D6000640524154C440919E0240905490D240291
:101D70002143998013181B4A9B001178F31899711D
:101D80001070A9E713005946002914D1FF31917151
:101D90001549918013490A789A71144A9B1B5B413B
:101DA0005A43120D0A7097E71149E2E706201056D0
:101DB00013000028C4DA0F4A0F49D21A083A500219
:101DC000400D014399800D4952080A43DA8083E7A8
:101DD000240100D000ED00E0CD010010A80F00208C
:101DE00000E100E06129002001BDFFFFAAAA000078
:101DF00001BD0000E20F002000F0FFFF00F8FFFF30
:101E000070B501240443EFF30581EFF3108C72B633
:101E1000214A1368002BFCD0BFF35F8F1F4B0500D6
:101E20001F4AED1A6D416A43120D1E4D8900AE68BE
:101E300052B27658A6421CD00621595691421CD067
:101E400012215956914222D01E215956914220D03A
:101E50002A2159560324914210D0134B19781A7035
:101E60008171BFF35F8F00220B4B1A608CF31088D7
:101E700070BDAB680D4C5C50EFE7002461000919A0
:101E800089005B18FF21997109499980E5E70124D0
:101E9000F4E70224F2E7C046240100D0A80F002096
:101EA000AAAA000000ED00E061290020CD01001089
:101EB00001BDFFFF10B5084B084C82B00100009334
:101EC000002205232000FFF7C5FC002801DB1F23AB
:101ED000181A02B010BDC046588E001065290020A7
:101EE000024B9C4661448900016070474000003409
:101EF00070B5114C114DAC420FD2FF262368002B58
:101F00000CD0FFF7F5FC01002000FFF7E9FFA680E9
:101F1000BFF35F8F0834AC42F0D370BDFFF7E8FC2D
:101F200001002000FFF7DCFF2671BFF35F8F08344C
:101F3000AC42E3D3F1E7C046B0150020B81500204D
:101F400010B50400FFF7D4FC01002000FFF7C8FF24
:101F5000FF232371BFF35F8F10BDC04610B504008F
:101F60000120FFF7D1FC034BC3189B002360BFF394
:101F70005F8F10BD40000034034B9C4661448900D4
:101F80000160BFF35F8F7047400000340A4B19684F
:101F9000EFF3108072B60A68002AFCD0BFF35F8F9F
:101FA0001B68BFF35F8F00221A6080F3108840BF68
:101FB000002000217047C04640290020F0B5DE46D1
:101FC00057464E464546E0B583B0EFF305820323FE
:101FD0001340B54A990052580091904601229A4008
:101FE000B24B93461A60B24B01932EE043469B8856
:101FF0001BB2002B00DB99E043469B79002B00D0FD
:10200000DDE0434608241C5F002C00DA06E143466D
:102010005A6963001B19DB00D3189D68DC686B1CD0
:1020200000D107E1A34B00999C4661449A6A0B6971
:10203000A81A9B1A984200D20D619E4800F0AEFB90
:102040008C4200DDEAE000D126E15B46994843631B
:10205000434608229B5E9946002BC7DB42465269E5
:102060005B0092464B44DB009A4453469E68DF680F
:1020700000F094FB8F42B9DC00D100E1002F00DAC0
:10208000E1E05246534654691B69019A934200D1DC
:10209000D4E0414652460820085E528800042100E0
:1020A0001043984704000D0023002B4300D1CAE0E1
:1020B000002D00DBE7E030003900001BA94153464A
:1020C0009860D96000229A5E002A8FDB43465D69E2
:1020D00053009C18E4002C19A768E4688C4200DDCA
:1020E00084E702D1874200D980E74646328108362C
:1020F0000DE08C4200D1D3E01E000023F25E002AE6
:102100000ADB53009C18E4002C19A768E4689B18AC
:10211000DB00EB188C42ECDD53461A804B463380D3
:1021200043469B881BB2002B00DA65E743461A69D9
:10213000EFF3108172B61368002BFCD0BFF35F8FF2
:1021400043469E88012342465B42938036B2136920
:10215000BFF35F8F00221A6081F31088002E00DA2F
:102160004AE743465D69083342469C467700BF19FB
:10217000FF00EF19BB68604698460823D15E92467F
:10218000FC68002907DA0EE0A2424FD018000023B5
:10219000C15E002906DB4B005B18DB00EB18DA6838
:1021A000A242F1DD524606800023FE5E3980002EF9
:1021B000DCDA904643469B79002B00D121E70023CF
:1021C00042469371434646460821595E08364B1CE9
:1021D00024D047468946556902E006004B1C18D0BA
:1021E0004B005B18DB00E8180A008C46E95E438868
:1021F0001BB2002BF1DA01235B42DC178360C46061
:102200004A4503D031803B8903803A81E1464B1C2B
:10221000E6D14C46B846002C00DBF8E640BF03B0E0
:10222000F0BCBB46B246A946A046F0BD9A684245FE
:10223000ACD9B7E7631C00D0F4E6FEE620002369C2
:102240009847002825D1534642461B8813811269BE
:10225000EFF3108372B611680029FCD0BFF35F8FD3
:102260004246514652880A80424649465180126988
:10227000BFF35F8F0021116083F31088B6E68642BA
:1022800000D8FBE6B2E60B4800F088FA0019694175
:1022900015E76568246807E7854200D8D5E6BDE7FD
:1022A000874200D828E737E7142900203C70054012
:1022B000BD1F00100040054070B52E4C2569002D53
:1022C00004D00A212C48FFF70BFE70BD2B4E0321D2
:1022D000300000F059FAE660FFF70AFB284B0322B2
:1022E0009C46D02322701B061B6801216370254B7E
:1022F0006044A3600F238000206102206380636933
:102300004942A18019800231198647311D835852F4
:1023100018315A5275325C3999521832013199523A
:102320001832013199521832013199520835183258
:102330009D52023118329952183201319952183295
:1023400001319952183201319952183201319952A2
:102350001832013199520C4B0C49DC600130356266
:10236000FFF740FB01210320FFF700FB084B1D6036
:10237000A7E7C046F00F002040290020004005409C
:1023800040000034FFFF100014290020BD1F001082
:102390003860054000487047F00F0020F8B51F0076
:1023A00008AB1B7804001600002B08D100F0FEF9E2
:1023B00032003B00121A8B41002B00DA53E02269F5
:1023C000EFF3108072B61368002BFCD0BFF35F8F61
:1023D0000223E15E63694A005218D2009B1800296B
:1023E00037DB1A8862802269BFF35F8F0025156092
:1023F00080F31088069A9E60DF601A61079A5A611E
:102400005A8801325204520C101C002A1FD082B28A
:102410005880080410432669EFF3108772B63268BB
:10242000002AFCD0BFF35F8FA2881A80A1802369A5
:10243000BFF35F8F00221A6087F310880B4923785F
:102440008C4601329A40E36863441A60F8BD01206B
:10245000DDE72369BFF35F8F00221A6080F31088E5
:1024600001204042F2E70020F0E7C0463C20000097
:1024700070B501000469EFF3108C72B62068002873
:10248000FCD0BFF35F8F02200D5E4C6968004019DD
:10249000C0002418002D37DB208848800869BFF36E
:1024A0005F8F002606608CF31088E36063880498D1
:1024B000013320615B0405985B0CA26060611A1C0B
:1024C000002B1FD093B22804628018430A69EFF3EF
:1024D000108C72B61368002BFCD0BFF35F8F8B8813
:1024E00023808D800B69BFF35F8F00221A608CF30D
:1024F00010880B7801329A40CB6808498C466344B7
:102500001A6070BD0122DDE70B69BFF35F8F002207
:102510001A608CF3108801204042F2E73C20000052
:1025200010B543890A1493421ADD53009B1842697F
:10253000DB00D3180469EFF3108C72B62268002A0E
:10254000FCD0BFF35F8F5A88090494B2090C8A4209
:1025500008D00369BFF35F8F00221A608CF31088E4
:10256000002010BD8022120214435C800123026906
:102570008371BFF35F8F002111608CF310880449D1
:1025800002788C469340C268012062441360E8E7F9
:102590003C20000040787047F0B504000D0006268E
:1025A0007642F717C64636196F4100B582B08F42A2
:1025B00014D811D000F0FAF832003B00121A8B4107
:1025C000002B17DC002B47D02000290000F0F8F882
:1025D00002B080BCB846F0BD8642EBD90022002391
:1025E00016001F0000F0E2F832003B00121A8B4187
:1025F000002BE7DD00F0DAF832003B00121A8B41C5
:10260000002B0ADB00230193154B32000093154881
:102610003B00FFF72DFF0028D6DB00239C46B04689
:10262000114A124E736A9F4204D8B16A8845CBD9C9
:102630009F42C9D11168EFF3108072B60B68002B6E
:10264000FCD0BFF35F8F1368BFF35F8F61461960E3
:1026500080F3108820BFE5E7002AB5D0CAE7C0465E
:102660008D1F0010F00F0020402900200040054081
:1026700070B5060000F09AF8FA2204000D0000235D
:1026800030000021920001F0C5F980230019694152
:102690001B06994202D3012002494042FFF77CFF0A
:1026A00070BDC046FFFFFF7FF0B5CE46474680B500
:1026B00004000D0083B0EFF305878846002F3ED15C
:1026C0002E4EA1463378F06804339B00816A1B5874
:1026D000601A5B1A98420ED320BF294900204B6A2A
:1026E000AB4203D38A6A0130944231D803B0C0BCF4
:1026F000B946B046F0BD00F059F822002B00121A7E
:102700008B41002B2FDB1F4B2200009330002B004E
:102710000197FFF7ADFE011E25DD194B5A6AAA424B
:102720001BD220BF3000FFF7FBFE154A0020536A82
:102730004345DBD3926A01309145D7D908E010496F
:1027400000204B6AAB42D1D38A6A0130A242CDD27B
:102750005B1B5A1E9341D8B2C8E79B6A9C42E1D9E1
:10276000AA42DFD1DDE7064A0020536A4345BDD3C4
:10277000926A01209145B9D9EAE7C046F00F0020DE
:10278000004005408D1F001010B5024A0248FFF7B7
:102790003FF810BD748E0010982400200300416A99
:1027A0000A00986A596A8A42FAD17047034B596AFB
:1027B0000A00986A596A9142FAD170470040054070
:1027C000064A536A9942FCD807D1044B02E05A6A80
:1027D000914202D19A6A8242F9D370470040054083
:1027E000F8B5DE464E4657464546E0B58B460500F1
:1027F0000A991800160000F0F1FA0A9B6C001F02FB
:10280000324B64199C46A4006444636881469F422D
:1028100000D967602B1FDBB29846012B30D9C0234B
:1028200080229B01E31812011A60294BAD0059590F
:102830009A4600291BD17301E026226853401E40AE
:10284000802342465B01E3181E60012A30D98023B1
:1028500080229B01E31812011A6053464A466760C2
:102860005A51F0BCBB46B246A946A046F8BD5869CD
:1028700000F0B4FA013043001B18033BFDD2DAE745
:102880005B46012BCBD1C02303229B01E3181A60C6
:10289000023AA3681A42FCD07301E0262268AD0018
:1028A00053401E4080230A4A5B019246E3181E6093
:1028B0005A462168514003220A401A6001225B46B1
:1028C0009A40A3681A42FCD0C1E7C046008000408D
:1028D000A0240020F0B546464F46D646C0B51F009E
:1028E000344B44009C462418A40064446368884622
:1028F0001600FF2B02D880235B006360031FDBB24E
:102900009A46012B30D9C02380229B01E318120183
:102910001A60294B85005959994600291BD173012A
:10292000E026226853401E40802352465B01E31894
:102930001E60012A30D9802380229B01E3181201F6
:102940001A6080235B0063604B465F51E0BCBA466F
:10295000B146A846F0BD586900F040FA0130430086
:102960001B18033BFDD2DAE74346012BCBD1C02332
:1029700003229B01E3181A60023AA3681A42FCD0B2
:102980007301E0262268850053401E4080230A4AD6
:102990005B019146E3181E604246216851400322C4
:1029A0000A401A60012342469340A2681342FCD0B9
:1029B000C1E7C04600800040A0240020014B8000F9
:1029C000C0587047A0240020F8B5040021481E001C
:1029D00017000D0000F002FA0100380000F0FEF9C7
:1029E000069B36041B031E432368002B20DB1A4B77
:1029F0001A49E3185A1E93418022920194465B4281
:102A00001B0B174A1B0363441360164A13601F0015
:102A10000A689743FBD1144B2560E2182123A0607C
:102A200013602368002BFCDA0823E6601360F8BD0E
:102A30003F2322681340AB42D9D1A3681B051B0D6D
:102A40008342D4D1EE22E368D2021340B342CED106
:102A5000EDE7C046001BB7000040FDBF08C00040C6
:102A600000E0004000F000400430000010B5802479
:102A70001C4BE4051C6000281AD001231A4C184393
:102A80001A4BDC611A4C44401C62596298628021E6
:102A9000144BC9051960174817490860E021C9049B
:102AA0001960002A07D18022144B12061A6010BD4B
:102AB0000E4BD861EBE753019B1A9B009A188023B9
:102AC00012015B049A4209D213000D490B60074BB7
:102AD0005A608022094BD2051A60E8E7094B1A00B8
:102AE000F3E7C04600B00540D3C007B00080054002
:102AF0002D3FF84FFCFF01000820014000A00540D9
:102B000004290020FFFFFF008023024A9B000B43A3
:102B1000D362704700800540142310B50100188867
:102B200004331B88984710BD162310B50100188880
:102B300002331B88984710BDF8B54746CE4680B58E
:102B40000F1E19D0142399460433040000250126D2
:102B500098464B461888434621681B88984701C40D
:102B6000431E9841013540420640AF42F1D130004A
:102B7000C0BCB946B046F8BD0126F8E7142370B5CD
:102B80000400188804331B880D000549984703008A
:102B90000020002C01DB0130A04029009847C046EE
:102BA00055420000AA23064A1B0113602F23054942
:102BB000D360054B19605368002BFCDA7047C046A0
:102BC0000040024000B0FA00006002407047C0467A
:102BD00010B50148FEF704FE988E001070B5074D41
:102BE000074EB54209D20024013E761BB60808CD37
:102BF000984723000134B342F9D170BDB08D001065
:102C0000EC8D0010054B064A06491A60064A074B30
:102C10001A6010000B689843FBD1704700E0004039
:102C2000BFCDFBFE08C00040FE7F3C0000F000402E
:102C3000044BDB6C002B03D18022034BD2021A60C1
:102C40007047C046000011504C201150044A054BFB
:102C50001A60054A1368DB018033FBD17047C04618
:102C6000FFFFFF0100F0004008C000404022034B7E
:102C70009A675A671A67DA667047C04600F00140E3
:102C800010B5FEF753FE10BD70B5044D044CA96895
:102C9000C022200000F042FFAC6070BD00ED00E0FB
:102CA00000000020002310B5294C82B0A367FFF775
:102CB00079FF0122274B1A60636C012BFCD10322A0
:102CC000254B1A60224A936B012BFCD101330093F0
:102CD0000121224A22480433FFF776FE0523012111
:102CE0000093204A2048FFF76FFE002202210420B3
:102CF0001E4BFFF7EFFD0022012105201C4BFFF7C3
:102D0000E9FD0022002107201A4BFFF7E3FD002216
:102D100000210820174BFFF7DDFD8023DB00009327
:102D2000002200210920134BFFF75AFD0022104B0F
:102D300000210620FFF7CEFD0420FFF73FFE0E49DD
:102D400000F04CF801000020FFF7DEFE02B010BDDD
:102D5000008000403CB0004030B00040002F685977
:102D600000800240008C864700C00240001BB70074
:102D700040597307006CDC0240420F0001480421F7
:102D8000014B184710100020392B0010124A936F86
:102D90009B0815D29066D166002905D0FFE7FFE7B2
:102DA000FFE7516F106F704704B580210906C21705
:102DB0005140002800D0C84305F0B2FF002104BDF7
:102DC000F0B5146E556E576F166FFFF7E3FF14667C
:102DD000556657671667F0BD000000D0114A936F23
:102DE0009B0813D210665166002905D0FFE7FFE764
:102DF000FFE7516F106F704704B5002801D0002025
:102E0000C04305F08DFF002104BDC046F0B5146E2F
:102E1000556E576F166FFFF7E5FF146655665767D7
:102E20001667F0BD000000D094464A4A926F92089F
:102E3000624601D228E0C046F0B5464E346E756E4B
:102E4000776F366F00F020F89446424A1466556654
:102E5000576716676246F0BD94463E4A926F9208E5
:102E6000624601D254E0C046F0B53A4E346E756EFB
:102E7000776F366F00F04CF89446364A1466556604
:102E8000576716676246F0BD002B24DB11D000297E
:102E90003EDA00B5C943404200D1013100F038F8B4
:102EA000C943404200D10131DB43524200D10133DA
:102EB00000BD002AEBD1002801D1002905D0002057
:102EC000C90FC90701D1C043410800B505F020FF73
:102ED0000022002300BD00B500290ADBDB4352427B
:102EE00000D1013300F014F8C943404200D1013150
:102EF00000BDC943404200D10131DB43524200D101
:102F0000013300F005F8DB43524200D1013300BD2C
:102F1000002923D1002B18D1002A0CD0BC460D4F1C
:102F200038667A6600210023FFE7FFE7FFE77A6F44
:102F3000386F67467047002801D00748010000B588
:102F400005F0E6FE0022002300BD02000B00002079
:102F500000217047000000D0FFFFFFFF002B00D0D2
:102F6000BFE0130C28D1002AE7D080B4114F396696
:102F70007A66FFE7FFE730B4040C7B6F396F1B0400
:102F800023433B667A66FFE7FFE7FFE7C04684B26C
:102F90007B6F3D6F1B0423433B667A66FFE7FFE7C9
:102FA000C04600232C042D0C7A6F386F001969413C
:102FB000B0BC7047000000D0F0B594460025140E58
:102FC00001D112020835140F01D112010435940FFA
:102FD00001D192000235D40F01D152000135D40B3A
:102FE0000134254F7C66254C3C660E0C93B2FFE7FE
:102FF000FFE7FFE73C6F6643360C7703BE4673433B
:10300000DF0B5B04C01AB941130C7343DB18C91AF8
:10301000CE086643360CB64493B273431F0F1B01B0
:10302000C01AB941130C73431F0B1B05C01AB941D9
:10303000860D8F023E436643360C092D24DB520A6F
:103040007243801A7703460A6643360C16235B1BCD
:10305000DE40DF40BF1964466643821B704604357C
:1030600006330100D940A840C01900D30131A24263
:1030700006D20023F0BD0000000000D0FFFFFFFFDC
:10308000121B0130F3D3F1E709277F1BFE40644692
:10309000A2B27243801A00D20139220C7243130C7F
:1030A0001204821A99410B0070460435133701004F
:1030B000F940A840801900D30131002B02D1A2426F
:1030C0000AD2F0BD013000D30131121BFAD2013B0C
:1030D000F8D1A24200D2F0BD013000D30131121B61
:1030E000F7E7F0B51C0C00D080E00CB400251C0AFA
:1030F00004D11B02160E3343120208351C0B04D1F7
:103100001B01160F3343120104359C0B04D19B00A5
:10311000960F334392000235DC0B02D192185B41CB
:1031200001351C00971864410134464F7C66464CBB
:103130003C660E0CFFE7FFE7FFE7C0463C6F6643C7
:10314000360C7703BE4697B27743C01B00D20139D5
:10315000C01B00D201399FB27743C91BC91B170C92
:1031600077437E04FF0B801BB941CE086643360CC3
:103170000C2D33DBB644120B1F053A431B0B97B2E1
:103180007743C01B00D201399FB27743C91B170C8C
:1031900077433E043F0C801BB941860D8F023E43AE
:1031A000664329277F1BFE400C3D7746AF40BF1981
:1031B00030BCA2B2ABB272437343801A9941220C65
:1031C0007243130C1204801A994102000B0001375C
:1031D000001BA941F9D2781E0021F0BD0C277F1BEE
:1031E000FE4077467F0BAF40FF19E0E700245D1CEF
:1031F00007D0144F7D663966FFE7FFE7FFE7FFE77B
:103200003C6F95B29EB265436643401BB141150CBD
:103210001E0C6543664336042F0C3E432D04401BB1
:10322000B141994204D202000B0020000021F0BD00
:1032300001D19042F7D3801A994101349942F2D3D7
:10324000F6E70000000000D0FFFFFFFF48404140CC
:10325000484018B41B4B5B68FC46019308BD04DF73
:10326000E734001018B4174B1B68FC46019308BDE7
:1032700000DFF13400109446134A926F920809D28D
:10328000624618B40F4BDB68FC46019308BD0CDFA7
:10329000A93700100C4AF0B5146E556E576F166FB3
:1032A0006246FFF7EEFF084A1466556657671667D1
:1032B000F0BD18B4034B9B68FC46019308BD08DFC2
:1032C0004D36001048170020000000D0FFB55040D8
:1032D0004240504059404B40594000E0FFB5154F27
:1032E0004C00640D03D0BC4204D10C0314D8002060
:1032F000090D09055C00640D03D0BC4204D11C0318
:103300000AD800221B0D1B0501264B4009D44B4057
:1033100003D58B4200D18242FFBD9942FCD190423D
:10332000FFBD0B43DB1803431343F5D0C9434918D2
:10333000FFBD0000FF07000000B5FFF7CFFF804191
:1033400000BDC04600B5FFF7C1FF01D9002000BD98
:10335000012000BD00B5FFF7B9FF804100BD01208D
:1033600040054A00121804D85A00121801D800204B
:1033700070470120704700000021002805D17047E8
:10338000C1174840401AFAD0C90713B5064B1B684D
:1033900098470CBC441CA2401005120B0349091BA2
:1033A00009051943114310BD3C2900201F040000EA
:1033B00010B54C00620D8023D218DB00D21A5B05D9
:1033C0007E2A10DD9E3A13DACC1709034908194307
:1033D0005242D140640001341532202A05DAD0402F
:1033E0000843604310BD002010BD0846604310BD77
:1033F000C80FC018013810BD18B4044B5B6AFC46F6
:10340000019308BD24DF593900100000481700203F
:10341000132370B51D78012D19D014DD1F48FFF757
:1034200083FB06001E48FFF77FFB1E4C8022310005
:10343000200000F073FB022D2DD01B48FFF76CFB22
:103440001A4B186070BD1A4B164CA364F5E7184B65
:10345000144C23606360A360E36023616361A36134
:10346000E36123626362A362E36223636363A36332
:10347000E36323646364A364E36423656365A36512
:10348000E36523666366A366E36623676367A367F2
:10349000E367A364D1E7064BA364CEE7534400007F
:1034A00053460000481700204C3300003C29002000
:1034B000B534001007B5604601880A0A0230DF2AD9
:1034C000FAD1C9B2820804D30288408800041043AC
:1034D00000E00068014A5050039007BD48170020E3
:1034E0000FB403BC0CBCF0B50124E407634000E05A
:1034F000F0B50C0DCF0F661E3605891B640503D38E
:10350000C943404200D30131640D03D0661CF60A62
:1035100007D0E41B00207F00791C89078912803CBA
:1035200024031D0DDF0F6E1E36059B1B6D0503D397
:10353000DB43524200D301336D0D03D06E1CF60AFB
:1035400007D0ED1B00227F007B1C9B079B12803D58
:103550002D032F1B661B58D4A446202E46DA203795
:103560001400BC401D00BD40F24033412A43801886
:103570005941CB0F05D0C943C0430022644250419A
:10358000514162464D0D28D10D0D07D100281FD0A5
:10359000241940414941013A0D0DF9D0640006D388
:1035A000013000D30131002C01D140084000013A24
:1035B0000BD4941CE40A04D112051144DB0719440E
:1035C000F0BDD907204B194300E0D9070020F0BD1A
:1035D0000029DDD1002CDBD1F0BD0132C607400847
:1035E000CD0728434908002EE1D0D9E73C2E29DA3F
:1035F000203E40371400BC4000D00124F240144368
:103600001A00BB401C43D317ACE7AC46202F08DAA6
:1036100020360400B4400D00B540F840394128433D
:10362000A5E73C2F0CDA203F40360400B44000D020
:103630000124F84004430800B1400C43C117EAE7F5
:1036400010001900002494E70000F07FF0B50C0D85
:10365000661E3605891BE60A6405640D02D0651CEA
:10366000ED0A04D0002001210905803C2403A44672
:103670001C0D671E3F05DB1BE70A6405640D02D0C5
:10368000651CED0A04D0002201231B05803C2403A5
:103690007740644497B484B296B27443070C7E4377
:1036A000150C6F4380B26843361802D30120000422
:1036B0003F183004350C00197D41844688B29AB217
:1036C00050430C0C62431F0C7C438EB27E43921914
:1036D00002D301263604A4191604170C36186741C4
:1036E00001BC81B29AB25143040C62431B0C5C438F
:1036F00080B25843121802D3012000042418100489
:10370000130C401863412D185E410020474106BC50
:1037100088B293B258430C0C6343120C544389B2E1
:1037200051435B1802D301210904641819041A0CCF
:10373000091862416D1856410020474118BCF90232
:10374000720D1143F0026A0D1043ED020A0D03D110
:103750006D1940414941013B124E9B1B7600B3421B
:103760000ED26D0007D30130002671416646354305
:1037700001D1400840001B05C918E4072144F0BDF1
:103780000BDA013306D1013004D101314F0D01D0E4
:103790004908F2E7E1070020F0BD013631050020BD
:1037A000EBE70000FF030000F0B51C0D671E3F05AE
:1037B000DB1BE70A6405640D02D0661CF60A04D020
:1037C000002201231B05803C2403D0252D06002662
:1037D000F6432E661E096E66CE0FF619B4464900F2
:1037E0004F0D02D07E1CF60A03D000200021403F7E
:1037F0003F033E1BB600B444013F7F05C91B490887
:103800002E6F013676089C02950D25437543ED1306
:103810007543AD1301356D10F603761B0CB4CC0265
:10382000450D2C43A2B2B3B25A43270C7B43350C4F
:103830006F43A4B26C431B1902D3012424043F1923
:103840001C041D0CA4187D4124196D41009A91B2ED
:10385000ACB26143170C7C432B0C5F4392B25A43CA
:10386000A41802D301221204BF182204230C5218F8
:103870007B41019C6C431B19520ED9010A43440140
:10388000A01A81B2B2B2514303145A43360C7343A7
:1038900087B27743D617D21900277E4136049B1989
:1038A0001704160C7F185E417316ED18F3010026FD
:1038B00080337541A90F06D16400690AE8055B0AE7
:1038C000184309D22FE00422944480337541A90A99
:1038D000A8059B0A184326D3404149412404009A75
:1038E000019B0D005543641B4343E41A95B286B215
:1038F0007543170C7E43030C5F4392B25A43B618CC
:1039000002D301221204BF183204330C52197B4136
:1039100052429C41002C02D4002201305141400807
:10392000CA071043490802B06246D7079210084BF5
:10393000D218084B9A4203D212058918C919F0BD52
:103940000020002A01DC3900F0BD01331905F5E73C
:10395000FD030000FE070000002200B5203200F049
:1039600004F8080000BD000000220B150AD410B5B1
:10397000944600F031F81414013400DA0021CB171A
:10398000144C20470020002170476244343A0CD484
:103990000C2A07DA04009140904052422032D44071
:1039A000214310BDD843D94310BD203207D40C4663
:1039B0009440524220321141D040204310BD0800B3
:1039C000C917203203D452422032104110BD1800D2
:1039D000190010BD8B3900100A0DCC0F531E1B05AA
:1039E000C91A520503D3C943404200D30131520DD5
:1039F00003D0531CDB0A07D0121B00206400611C9B
:103A000089078912803A1203014BD21A70470000CD
:103A1000FF03000051434343C9188C46110C83B285
:103A20004B4310B4040C614392B280B250436243E2
:103A30001C041B0C001910BC59411304120CC018B3
:103A40005141614470470000132310B512481C789F
:103A5000FFF76AF80100012C0AD003DD80220F482D
:103A600000F05CF80E48FFF757F80E4B186010BDD9
:103A70000A4C5422200000F051F80B4B6365A365FB
:103A8000E36523666366A366E36623676367A367EC
:103A9000E3672362E361E5E753460000481800202E
:103AA0004C3300003C290020AD3A001007B56046B9
:103AB00001880A0A0230DF2AFAD1C9B2820804D387
:103AC000028840880004104300E00068014A50501A
:103AD000039007BD4818002070B505000C0004F0E5
:103AE00055FB6C43002804D0034B04199C4200D8BA
:103AF00070BD0248FDF774FE00000420A48E001083
:103B000001480421014B184720100020392B0010D8
:103B1000014B1B681847000020100020014B5B6818
:103B200018470000201000207047C046F8B55746DF
:103B3000DE464E464546E0B599460A9B07009A4642
:103B40000D9B884693460B9C9B073BD10C9B9C424C
:103B50003DD21E1B0B9415000C005E442A004B4600
:103B6000013521002020B847B542F7D1A0460B9C73
:103B7000002C20D0454636195346321B013C185DB7
:103B800029004B46B847002CF6D12B00350098464B
:103B90000D9B9B070FD55B46EC1A0C9BA3420AD9E1
:103BA000464698462A004B46310020200134B8474B
:103BB00001354445F6D32800F0BCBB46B246A946C1
:103BC000A046F8BD16001500002CD3D1E0E7160082
:103BD000002CCFD11500EEE7F0B54F464646D6464D
:103BE000C0B584B098460EAB1B7894469946129B9C
:103BF0000D9C109F119E9A0725D4002E65D1BC42C2
:103C000021D201221A409246202C00D1E9E00C9AE0
:103C1000551E302202E0202C00D17BE001342A55D1
:103C2000A742F8D85246002A0DD0B4420BD20C9AC3
:103C3000551E3022202C02D171E0202C2DD00134D1
:103C40002A55B442F9D1DA063CD55A052ED4002CB7
:103C500028D10F9A102A00D1B6E0022A00D1BCE088
:103C600030220C9C227001244A46002A65D15A0752
:103C700000D499E02B220C9D2A55013403930C9B10
:103C800062460093029643460194FFF74FFF04B04B
:103C9000E0BCBA46B146A846F0BD2024DA06EDD510
:103CA0005A0503D4A74266D0B44264D00F9A102AB2
:103CB00071D0022A57D0202CE0D0220001343025C8
:103CC0000C9FBD54202CD9D0CEE7012215001D40F9
:103CD000AA461A4236D04A46002A4AD10C321A4223
:103CE00047D1BC42A1D2202C91D1202E17D820241C
:103CF000DA06C3D55A051BD4202F01D0202ED5D1EA
:103D00001F220F9D102D6FD0022DD8D162250C9F40
:103D1000BD54D0E75246002A79D0202EBDD92024A8
:103D2000DA06ABD55A0503D4202FE9D0202EE7D0F0
:103D30000F9A102AA2D12024A0E72D220C9D2A55EB
:103D400001349BE7BC4200D37DE7202C00D05EE726
:103D5000DA06F0D55A05EED4202F62D0202EEAD113
:103D600034001F22CDE7202C00D187E72200013448
:103D7000CCE7013EB5E7621E012CC2D10F9A102A92
:103D800000D06AE79A063BD558220C9C2270283A4C
:103D90006270022468E79A060ED4202CCBD07822D9
:103DA0000C9D2A55013486E71A0700D466E72022C5
:103DB0000C9D2A55013461E7202CBCD058250C9A63
:103DC00012191570013476E79A0608D558220C9C12
:103DD000227030226270022446E76032F7E77822D0
:103DE000F5E7002A83D1B3E7A21E013C9D0603D468
:103DF00078250C9FBD5460E758250C9FBD545CE7A7
:103E000078220C9C2270483A627002242CE7DA0671
:103E100000D433E75A058BD4202F00D044E71F226B
:103E20006FE73C001F226CE710B5002800D110BDE1
:103E300001F096FBFBE7C0460B0010B5002802D04E
:103E400049681B68984710BDF0B557464E46454631
:103E5000DE46E0B599B08246894690460893229A9C
:103E6000239B10001900FFF77AFA002800D0CDE05C
:103E7000229823990122D94B5242FFF76BFA00286E
:103E800000D0C3E0229823990122D54B5242FFF77C
:103E900053FA002800D0B9E0229823990022002389
:103EA000FFF74AFA002800D0F1E1229E239F8023E9
:103EB000269ADB001A400D92269A1A4201D1062357
:103EC00024938023269A1B011A403B0093460996AF
:103ED000334300D0B3E0002A00D0C2E10023002425
:103EE0000A930B94002304250993259B0024AB42DD
:103EF00000D95C1B0223269A1A400C92269A134280
:103F000003D06B426B415B421C40099B002B07D0E6
:103F10000A9A0B9B30003900FFF7ADF906000F003D
:103F20002298239900220023FFF706FA002803D0E5
:103F3000802109067B181F00269AAA4B009601973C
:103F40001340089E0493249B03940293424633003B
:103F50004946504600F0AAF90400002D67D0202001
:103F6000269A4946024013005A4253415B42621C62
:103F700018400A92330022004530D047099A6F1E3C
:103F8000D317D4185C40D30F9B46002501E0202DA9
:103F900013D008AA94461F23200063440A21013548
:103FA0005E19FEF71BFF3031317020000A21FEF749
:103FB00015FF26000400092EE9D8052306930023E7
:103FC00004930A3303935B46089E029310AB0A9A4C
:103FD000009349463300504605970195FFF7FCFDD5
:103FE0000C9A0400002A22D04246851A259AAA4239
:103FF0001DD9B046574616002200434649462020A8
:104000000135B8470134AE42F6D810E0269B42464F
:104010000493259B49460393249B50460293229B7D
:10402000239C00930194089B00F040F904002000B9
:1040300019B0F0BCBB46B246A946A046F0BD6A4BDB
:1040400078009C46400D6044FFF79AF9674A684B38
:10405000FFF72FF9674A684BFFF704F9674A3B03FC
:104060001B0B1A4304000D0009981100644B002239
:10407000FFF7EFF8634A644BFFF71BF902000B00F0
:1040800020002900FFF7EEF8FFF792F90990FFF7FB
:1040900077F95E4A5E4B04000D00FFF70AF9002233
:1040A0005C4BFFF7DFF8FFF783F95B4A5B4B2900B6
:1040B0000C902000FFF7FDF804000C980D00FFF7AE
:1040C0005FF9574A574BFFF7F4F802000B00200046
:1040D0002900FFF7BEF804000D0002000B000A944F
:1040E0000B95FFF7E6F804000D000A980B99020003
:1040F0000B00FFF7B7F800220E900F914A4B2000FB
:104100002900FFF7B8F80022484BFFF7ABF8020090
:104110000B0020002900FFF7AEF80022444BFFF708
:10412000A1F802000B0020002900FFF7A4F80A9A6A
:104130000B9B0D0080210400C9050020FFF789F8C2
:1041400002000B0020002900FFF78CF802000B0092
:104150000E980F99FFF78FF80022284BFFF782F88F
:10416000344B0C9C9C46644423050022FFF7A1F8C5
:1041700004000D0002000B00300039000A940B957A
:10418000FFF7DAF800285DD123002A00C625099937
:1041900063318D42AD4159466D420435002900D14D
:1041A000A3E6134363D030003900234A234BFFF7C3
:1041B000C9F8002807D0002230003900204BFFF753
:1041C000BBF8002853D1249B002B00D18DE60D9B1A
:1041D0005A1E9341249AD31A249386E6FFFFEF7F59
:1041E000FFFFEFFFFFF7FFFF01FCFFFFFB799F5091
:1041F0001344D33FB3C8608B288AC63F0000F03F0A
:104200000000F83F61436F63A787D23F71A379092C
:104210004F930A400000E03F1655B5BBB16B02401A
:10422000EF39FAFE422EE63F00002C400000244009
:1042300000001840FF0300002D431CEBE2361A3F3C
:1042400080842E41099B0022013B09932000164BDC
:104250002900FFF710F80A00010003000A910B92F1
:1042600094E7002300240A930B9400230993249AD3
:10427000099B9A4214DDD31A013B24938023269A8A
:10428000DB001A4300230025269209932DE68022A5
:1042900012069446229B1E00239B63441F0006E6E1
:1042A00000232493EAE7C04600002440F0B54546C9
:1042B000DE464E465746E0B595B08B469046994649
:1042C0001E9A1F9B0A9019001000209DFFF747F8C7
:1042D000002800D0B0E11E981F990122C74B52421E
:1042E000FFF72AF8002800D037E11E981F99012215
:1042F000C34B5242FFF72EF8002800D0A7E01E98CB
:104300001F990022BF4BFFF725F8002800D088E056
:104310001E981F990022BC4BFFF70EF8002800D012
:104320007FE01E981F9900220023FFF705F8002860
:1043300000D0FAE000230B938023229C229ADB001A
:104340001C401A4200D102E1092D00D87CE106A9E7
:104350008C462C00172200233021093C6244013393
:10436000D154EF1A202B00D132E1A342F7D1002221
:10437000A44B069207931E981F99FFF719F80500A2
:10438000FEF7FEFF02000B001E981F99FEF761FF6B
:10439000069A079BFEF78DFF08900991FFF72CF80E
:1043A0000600FEF7E9FF02000B0008980999FEF7E6
:1043B00050FF0022954B08900991FEF7CBFF002893
:1043C00000D1D2E001363000FEF7D6FF069A079BF7
:1043D000FEF7B8FF002801D000260135AA46002FBD
:1043E00000D098E02800FEF7CBFF02000B001E98DB
:1043F0001F99FEF72EFF854B002206000F00FEF7E7
:104400009BFF0CAB9A46002845D1002230003900B2
:104410007E4BFEF79FFF00283DD1EB073BD50135D2
:1044200039E0229B42460493219B594603930A9804
:104430001E9B1F9C0295009301944B46FFF704FDC1
:1044400015B0F0BCBB46B246A946A046F0BD229BC3
:104450005B0767D403226E4B229901920391219945
:104460000291009342464B4659460A98FFF75EFB7D
:10447000E6E706AA94461723280063440A2101347C
:104480001E19FEF783FC3031280031700A21FEF737
:104490007DFC051E76D0202CEBD10323229A1340FD
:1044A000012B1DD1219B002B1AD00B9B002B00D080
:1044B000BBE0229A0C33134200D0B6E0219BA3420A
:1044C00000D887E006AB9C4617223023624404E004
:1044D0002199013413558C4259D0202CF8D1202435
:1044E000229B01940393219B02935346B9E706AAAA
:1044F000944617230A216344300001341D19FEF746
:104500006DFC3031297030000A21013FFEF766FC56
:10451000092E46D90600202CE9D155460CAB2024A3
:104520009A46B8E704223B4B96E71E9A1F9B002051
:104530000021FEF78EFE01230B938023229C229AFA
:10454000DB001E901F911C401A4200D0FCE60022A6
:10455000314B0627069207930DE7229B0393219B7D
:104560000293042301932D4B7BE7002208980999BD
:10457000264BFEF7E1FE002800D02FE7002E4FD19A
:1045800001362BE70323229A1340012B66D0202CFF
:10459000A6D00B9B002B1FD02D2352461355013460
:1045A0009EE75546202CB9D030233A19002F08D069
:1045B000172006A9013409180B55202CAED09442BF
:1045C000F6D10CAB9A462E2352461355013462E7BE
:1045D0002024CCE6202C83D0229B5B0708D4229B8E
:1045E0001B0700D47CE7202352461355013477E79C
:1045F0002B2352461355013472E7C046FFFFEFFFED
:10460000FFFFEF7F65CDCD4165CDCDC10000E03F1F
:10461000008F0010F88E001080842E41088F00104B
:10462000F30700D4DAE60136D8E6219B013B21935B
:10463000A34200D946E7AAE7229B0393219B02935A
:1046400003230193074B0CE7074BEA009B185C68B8
:104650001B682F000693079400248CE6219B002BF7
:1046600095D022E7048F0010F0920010F0B5574665
:10467000DE464E464546E0B5A5B01F002E9B91464E
:104680000D93CA4ACA4B82468B461A60002900D154
:1046900029E2002338789846002800D12BE2C54B48
:1046A00044460C93C44B55464E460E930AE0631C99
:1046B0009846220033005946A847444638780028D7
:1046C00000D187E001372528F1D108239A46043B21
:1046D0009946023B9846013B00229C460B94387851
:1046E000791C0300203BDBB2102B03D80C9C9B00F1
:1046F000E3589F460300303B0B9C0B92092B3AD9A1
:10470000002398462A2800D1DDE000239A462E286F
:104710004BD00300683BDBB2122B1ED80E9A9B00D5
:10472000D3589F4663460F001A43D8E743460F000D
:104730001A43D4E74B460F001A43D0E710230F006B
:104740001A43CCE753460F001A43C8E780235B00A7
:104750000B9A78781A430B9201310F0067284FD8D3
:104760002428A4D90300253BDBB2422B9FD89349D0
:104770009B00CB589F46002398460B9B47469C4680
:1047800000E00131BB00DB195B001F180878303FE7
:104790000300303B092BF4D963460B930023B84642
:1047A0009A460F0001312E28B3D180200B9AC00009
:1047B00002430B9230225242944678780B00844494
:1047C0006246092A00D8AAE12A2800D1B9E10F00DF
:1047D00001319EE7A046AA46B146C84503D301234E
:1047E0005B424B4498464B46424659460020D047D0
:1047F000200025B0F0BCBB46B246A946A046F0BD9D
:1048000001006939C9B20F2900D950E701238B4053
:104810009C466B4B994663464A4613400F9362464B
:104820004B461A4200D068E10A2956D0072900D029
:104830003DE70D9B02CB9846002900D092E10B9BEF
:1048400010211A008A43100011310843814680204C
:104850001A00C0000240110003421CD114AB9C4658
:104860001F220F2362440D959C4615000F9B0B944D
:1048700002E0202B0CD0110064460C4020003730A1
:10488000092C00D807380133E8540A090F29F0D859
:104890000B9C0D9D0F934B460822069353460592A1
:1048A00008320392002204930F9B029201931CABE7
:1048B00022000093594633002800FFF78DF9434644
:1048C00004000D93FAE60D9B04CB9046002A79DB99
:1048D00078780D930F00013117E70D9B02CB1493ED
:1048E0000B789C4618005346002B00D134E1002879
:1048F00015D05346013B013399460D940B9C8944D6
:104900004A460B00A14601E0934203D05C78013394
:10491000002CF9D14A465B1A0D9C0B920F93802311
:10492000DB0099460B9A13400D934B461A4204D074
:104930000F9B534501D953460F93022399460B9A77
:1049400013400B934B46134200D1F5E16346002B15
:1049500000D1D6E10D9B002B00D182E10B1BD1468B
:1049600031009A463B00A1442E005F464D4622008E
:104970009B46894609E04B463900541CB0475346D4
:10498000185D002800D192E122009542F3D14B46F8
:104990005A46A946BB46350017001E004C460B9BE5
:1049A000002B00D0ADE1149B0D9387E66D460010FF
:1049B000002900205091001094910010E091001007
:1049C000419000000B9A283802430B924246524213
:1049D000787890460F000D93013196E678786C2830
:1049E00000D15DE180230B9A5B001A430B920131E9
:1049F000B3E680239B00ABE67878682800D148E1D5
:104A000080230B9A01311A430B92A6E6672800D146
:104A1000B2E0472800D11AE1452800D11CE10B9AE9
:104A20000721049242460D9B0392073352468B4363
:104A3000190002920CC92800009201930D912200E6
:104A400033005946FFF700FA040037E6462800D144
:104A50008DE00B9A0721049242460D9B0392073387
:104A600052468B43190002920CC928000092019310
:104A70000D91220033005946FFF718FC04001DE693
:104A8000631C98462200330059462520A847444617
:104A900014E60D9B04330F93631C99460B9B9A07F6
:104AA00000D40AE10D9B2200187859463300A8472C
:104AB00043464444012B00D86FE1B0462E00250048
:104AC0004C46B9465F462200434601343900202057
:104AD000B047AC42F7D12C00BB4635004F464646A6
:104AE0000F9B0D93EAE5D64B38789A4600239846FB
:104AF000002800D0D3E500246FE66F2842D000D80C
:104B0000FDE11023782800D19BE00B9A9A430B9289
:104B10000A239C46002314930A330F9338E0574628
:104B20000B9AB900C919490001330F181878303FA2
:104B3000010030390929F4D9BA460B921F00591CDB
:104B4000E7E50D9BB87804CB0237D143C9170A407B
:104B500092460D93791CDCE5002800D1DFE60223A4
:104B60005B42C8E621200B9A0243914676E6202359
:104B70000B9A1A430B926CE780230B9A1B011A4382
:104B80000B924CE708239C460023149308330F93A1
:104B90000B9880230200DB001A401100020018422B
:104BA00000D080E00C239A431000802302009B0079
:104BB0001A400B92184200D0F1E0802302005B0003
:104BC0001A4091460D9A04321492184200D0C3E262
:104BD000430600D5D7E0030600D421E30D9B1B88D4
:104BE0000993002B00D02DE110339843002900D108
:104BF00028E10023994643460593534604930F9BAF
:104C000006900393002302934B4601931CAB2200B2
:104C10000093594633002800FEF7DEFF0400C2E689
:104C2000582809D0622800D0E3E202239C460023E2
:104C3000149302330F93ABE720230B9A1A430B9282
:104C4000103B9C460023149310330F93A0E780235E
:104C50000B9A1B011A430B9220230B9A1A430B92B7
:104C6000DDE60B1B9A460F9B99463B0037005E46DC
:104C70009B4622003B003100A84753460134185D93
:104C80000028F6D14B460F935B46B3463E001F000B
:104C900085E6C0230B9AB8781A430B92F91C5CE5A1
:104CA000C0239B00F6E70D239A4310007DE75B4687
:104CB0003500BB464E461F0071E64346012B66D9C0
:104CC000631E434432002E001D003B00A2465F4697
:104CD00091469B4622004B46013439002020B047C4
:104CE000AC42F7D15B463500BB464E46A146544622
:104CF0001F000D9B4A461878594633004444A84784
:104D0000EEE60F9BA146984500D84CE64444E41AD1
:104D1000B0462E0025004C46B9465F462200434669
:104D2000013439002020B047AC42F7D12C00BB46FB
:104D300035004F46464636E60F98804500D873E268
:104D40004346E218131A32002E001D003B00914624
:104D50005F469B460F9122004B46013439002020CC
:104D6000B047AC42F7D15B46BB461F0043460F99A4
:104D700001330F930B7835009C464E466046002861
:104D800000D0E7E50FE60D9B1B78099329E70D9B03
:104D90002200187859463300A8474C46A0E60D9AE1
:104DA000FA3BFF3B07329A430133994691444B4605
:104DB0000D931368526815921A4306D1103290432E
:104DC00000220992002900D083E06122810600D5EB
:104DD0004122D2B20A9214AA91460A9A00210A3AB2
:104DE0000B9242461792524618925A46B246099181
:104DF0001E001F31149B4944BB4616941A9500248B
:104E0000674698468946159D19901B920AE03032F4
:104E1000D2B24B4601341A55A8454CD0202C4CD068
:104E200006000D003A00002330002900FEF714F8B8
:104E3000D2B2092AEBD90B9B9C466244D2B2E8E776
:104E4000293B00106123820600D54123DBB20A3BD7
:104E50000B93434614A91F228C4615935346624474
:104E6000B2460D9417974C468046A9461700099DF7
:104E70000F9E169308E03033DBB201343B55B54248
:104E80000ED3202C0CD0050031002800FDF7A6FF22
:104E9000CBB20929EFD90B9A94466344DBB2ECE715
:104EA000159B40469846169B4D465646A1469A4647
:104EB0000D9C179F9FE6B742B0D9179B5646984660
:104EC000189B5F469A461B9B09949B46169C199813
:104ED0001A9D43460593534604930F9B06900393F4
:104EE00000230293099B01931CAB220000935946B7
:104EF00033002800FEF770FE0400FFF7DFFB1023ED
:104F00000B9A9A430F92692800D091E10B99802364
:104F10000A00DB001A4010000A00194203D01121D8
:104F200018008A430F920F9A802311009B001940AA
:104F30008C461A425BD1802311005B0019408946E0
:104F40000D9904310B911A4200D0B2E013005B06B8
:104F500000D4EDE00D9B1B781A00D90F0D91002BAA
:104F600000D1A3E0100014AA944642461F231592D4
:104F700052466344A846BA464D461494B1460400CE
:104F80001F00169201E0202D0FD020000A21FDF70E
:104F900025FF01357E193031317020000A21FDF7DF
:104FA0001DFF26000400092EEDD8159B4E46A9468C
:104FB00045469846169B57469A46149C0F9B069367
:104FC00043460593534604930A2303930D9B029390
:104FD0004B4601931CAB2200009359463300280036
:104FE000FEF7FAFD0B9B04000D93FFF767FB07220A
:104FF0000D9B07339343013294469C4462460D92C5
:105000000CCBD90F0B911100194300D19BE0D9179C
:105010001391129151401091139959401191109888
:105020001199129A139B801A99411090119114AA08
:1050300094464246002315925246994616923200F3
:105040001F336344A8464E46BA4614941F00109C72
:10505000119D914601E0202E10D0200029000A2247
:105060000023FDF7F9FE013630322B00BA550D0052
:1050700022000400002BEED1092AECD8159B1094D5
:105080001195454698464B46169AB14657461E001E
:105090009246149C0F9B06934346059353460493F4
:1050A0000A2303930B9B02934B461CE7002885D1F0
:1050B00059E70D9B1B68DA0F1100002B00D1A6E009
:1050C000DA179818504014AA91461F2342464B44C1
:1050D000A8460D94169704006546B1461F0014912A
:1050E000159201E0202D0FD020000A21FDF776FE59
:1050F00001357E193031317020000A21FDF76EFE36
:1051000026000400092EEDD8159BAC46454698466E
:10511000149B4E4619000D9C169F0F9B02910693FF
:1051200043460593534604930A230393634650E78B
:1051300013001B066ED50D9B00229B5ED9175A18D3
:105140004A4092B209E7002399460028A2D10022E2
:105150000023109211936AE70D9B1B689946002B60
:1051600003D110339843002938D16123820600D53A
:105170004123DBB20A3B0D9343461693534614A9D1
:105180001F228C4617932B0062444D46B24615945D
:1051900018978046170099460B9C0F9E08E0303305
:1051A000DBB201343B55B5420ED3202C0CD00500A8
:1051B00031002800FDF712FECBB20929EFD90D9A74
:1051C00094466344DBB2ECE7169B40469846179B37
:1051D00056464D469A460B94189F159C4346059398
:1051E000534604930F9B06900393002302930B9B5B
:1051F0000BE50B9980230A00DB001A4010000A001F
:10520000194200D08BE610239A430F928BE60028B8
:1052100083D158E70D9B1B68D9175A184A409CE662
:105220000D9B1B680993DCE4030001330F93A5E594
:105230000B926DE400B585B00391012102900093BB
:10524000034813004A4202A9FFF710FA05B000BD57
:10525000393E001010B5094A0300146884B0002CD0
:1052600008D0012200910648524203A9A04701201C
:1052700004B010BD00F0C0F90020F9E700290020BB
:10528000293E001000BEFDE7094A0300106800280F
:1052900005D00849C3188B4207D8136070470648E9
:1052A0000449C31810608B42F7D901204042F5E74A
:1052B000FC240020000004206829002010B5041EF2
:1052C0000DD0FDF773FA074B1A685B68801A994195
:1052D0000023054AFDF7A8FD20606160A260002060
:1052E00010BDC0463817002040420F0010B5FFF730
:1052F000C9FFC04670B5FDF771FC074D074EB542BA
:1053000009D20024013E761BB60808CD9847230039
:105310000134B342F9D170BDEC8D0010F88D00104E
:10532000030010B5080011001B68984710BDC04667
:10533000F0B5C64600B5437D07000D001600002BF2
:1053400038D0002A2EDD00216A1E90466A5C037D5B
:105350004C1C00200A2A0CD0A64216D043461B5DE6
:1053600021000D3B5A4253416A5CDBB24C1C0A2AB5
:10537000F2D1002BF0D1884217DB022110483B68A4
:105380009847A64207D02000E8E7864203DD311A9D
:105390003B6828189847AD19013D2B780D3B5A42C0
:1053A00053413B7580BCB846F0BD091A3B682818CC
:1053B0009847E2E70368110028009847F2E7C046E3
:1053C00040930010F0B5C6460B6806000C0000B50F
:1053D000802B06D05A1C2260E418267180BCB84687
:1053E000F0BD0F4B1D68002D16D00B1D98460D4FBC
:1053F00002E02D69002D0FD02B68002BF9D03B68FF
:10540000002B01D0AB42F4D1280041462268FFF7BF
:105410008FFF2D69002DEFD101220023DBE7C0466D
:10542000F0240020F8240020F0B5DE4657464E4612
:105430004546E0B585B017001C0006000D00FDF7DD
:10544000B5F90023314A12184B41802109068B42DD
:1054500002D301222E4B52422E4908008A4603F005
:105460007FFC01906B1C03D1300003F06BFB050047
:10547000002C26D0284B9846284B1C68002C15D0B1
:10548000002F21D1264F02E02469002C0ED0236882
:10549000002BF9D03B68002B01D09C42F4D12000B6
:1054A0002A003100C0472469002CF0D1019B002B59
:1054B00028D1280005B0F0BCBB46B246A946A0469C
:1054C000F0BD184B9846D7E7154B994602ABDF1D48
:1054D0000A239B4602E02469002CE7D02368002BB6
:1054E000F9D04B461B68002B01D0A342F3D12A0010
:1054F00031002000C0475B460122390020003B708C
:10550000C047E8E7504603F0FBFBD2E740420F00FC
:10551000FFFFFF7FB015002031530010F024002062
:10552000F8240020215300100A4A1368002B05D1EB
:105530000CE01A001B691032002B07D09842F8D1FA
:10554000002902D103691360016170470029FCD072
:105550001060FAE7F024002010B500F003FB10BD46
:10556000F0B5CE46474680B583B06B460600DD1DDC
:105570002870FDF71BF900231A4A12184B418021AD
:1055800009068B4202D30122174B524217490800E9
:10559000884603F0E5FB164B81461C68002C14D0AE
:1055A000144F02E02469002C0FD02368002BF9D09F
:1055B0003B68002B01D09C42F4D12000012229003D
:1055C000FFF7B6FE2469002CEFD14B46002B05D126
:1055D000300003B0C0BCB946B046F0BD404603F051
:1055E0008FFBF5E740420F00FFFFFF7FB015002063
:1055F000F0240020F824002070B5040003F0A2FA83
:1056000001230100050001222000FFF70DFF084BD8
:105610001C68002C06D06368002B05D098472469CD
:10562000002CF8D1280070BD2469002CF3D1F9E7D3
:10563000F0240020F0B5CE46474680B5A3B0040064
:105640000D00FDF7B3F80023294A12184B418021C1
:1056500009068B4202D30122264B5242264F3800C4
:1056600003F07EFB00230600019322002B00234859
:1056700001A9FFF7DFFD019B8046002B14D1204BD1
:105680001C68002C06D06368002B0BD09847246957
:10569000002CF8D1002E25D1404623B0C0BCB9461D
:1056A000B046F0BD2469ECE7154B1D689946002D06
:1056B0001CD0144C02E02D69002D0FD02B68002B5C
:1056C000F9D02368002B01D0AB42F4D12800019A15
:1056D00002A9FFF72DFE2D69002DEFD14B46019554
:1056E0001C68CEE7380003F00BFBD5E70195D1E746
:1056F00040420F00FFFFFF7FB0150020C553001090
:10570000F0240020F82400200FB400B583B004A9D1
:1057100001C90191FFF78EFF03B008BC04B0184720
:105720007047C0460022014B1A7070476229002062
:105730004B790020FF2B0BD18B79002B08D1CB7933
:10574000012B05D1082A03D9024B8A7809301A7037
:105750007047C046622900200120704710B501291A
:1057600001D0012010BD13495379107909781B022B
:10577000034300209942F5D15378012B08D0022B26
:10578000F0D1002064220021FDF770F90120E9E743
:10579000D37891781B021943DB0507D54A0A10001C
:1057A00001231A407E331940FDF7E8F901204A0A27
:1057B0004042F5E762290020004870470C94001031
:1057C00070B5050014000120012909D1537800208B
:1057D000012B05D1637912791B021343072B00D0EB
:1057E00070BD21002800024A9F3301F049FAF7E713
:1057F0006493001001230370004870474493001025
:105800004B780A781B0213438A7810B512041A43A6
:10581000CB781B0613439622D200934200D010BDD2
:105820000022012011004042FDF7A8F9024B186048
:10583000024B19607047C0468C2400209024002041
:1058400010B5024B1878FCF7AFF810BD63290020A3
:10585000154B70B51A68002A22D0EFF3108172B68A
:1058600010680028FCD0BFF35F8F00200F4A5960FA
:1058700010701B68BFF35F8F186081F310880024DD
:1058800000250B4E3078FCF783F8002804D1002463
:1058900000252900200070BD3078FCF785F8F8E776
:1058A000FA240025A400ECE70C290020642900203C
:1058B0006329002070B5040000200E0001F0F8FA02
:1058C000002836D0002001F00BFB002831D0FCF777
:1058D0006DFF0023184A12184B41802109068B42A4
:1058E00016D2164D280003F03BFA002821D00020E4
:1058F00001F0DEFA00280FD101200021404200F023
:10590000F3FC03246442280003F0FAF9200070BD80
:1059100001220B4B5242E4E7002001F0E1FA00289B
:10592000EAD021003200002001F0E6FA041EEAD19C
:10593000E7E703246442E9E740420F0044290020DE
:10594000FFFFFF7F10B5FCF731FF00230E4A12184E
:105950004B41802109068B4202D301220B4B52425C
:105960000B4C200003F0FCF900280CD00120002192
:10597000404200F0B9FC002001F00AFB0028F5D1FC
:10598000200003F0BDF910BD40420F00FFFFFF7F74
:1059900044290020F8B5DE46574680B505000C00C6
:1059A000FCF704FF0023374A12184B4180210906F7
:1059B0008B4202D30122344B5242344908008A46BA
:1059C00003F0CEF9002803D1C0BCBB46B246F8BDF7
:1059D000002001F06DFA00284AD00026002C43DD9B
:1059E0002B4B9B4614E0A919002001F00DFB07008A
:1059F00001200021404200F077FC002001F0C8FAAD
:105A0000FCF7D4FE224BF61918605960B4422BDD26
:105A1000002001F019FBA71B0200B84200DD3A008C
:105A2000002AE0D101200021404200F05DFC00206E
:105A300001F0AEFA002001F03BFA002814D000205B
:105A400001F002FB0028E1D1FCF7B0FE5B460F003D
:105A50001A685B68002184460E4812184B419F4229
:105A600002D8D3D19445D1D9504603F049F9ABE7D8
:105A700000200021064B18605960504603F040F9A1
:105A8000A2E7C04640420F00FFFFFF7F44290020ED
:105A90004017002020A1070030B52B4C85B0002115
:105AA000200003F045F900281CD1284B1A68002A71
:105AB00016D0EFF3108172B610680028FCD0BFF347
:105AC0005F8F01242248596002781B68D2B20470AB
:105AD000BFF35F8F0020186081F31088002A17D071
