:020000041000EA
:1000000000B5324B212058609868022188439860DF
:10001000D860186158612E4B002199600221596106
:100020000121F02299502B49196001219960352056
:1000300000F044F80222904214D00621196600F024
:1000400034F8196E01211966002018661A6600F04E
:100050002CF8196E196E196E052000F02FF8012189
:100060000842F9D1002199601B49196000215960AB
:100070001A491B48016001219960EB211966A021F2
:10008000196600F012F800219960164914480160C1
:100090000121996001BC002800D000471248134993
:1000A000086003C880F30888084703B5996A0420EC
:1000B0000142FBD001200142F8D103BD02B5186610
:1000C0001866FFF7F2FF186E186E02BD00000240BE
:1000D000000000180000070000035F00212200005C
:1000E000F4000018222000A00001001008ED00E03C
:1000F00000000000000000000000000074B24E7A12
:1001000000200420F7010010C3010010C5010010F9
:10011000C1010010C1010010C1010010C101001097
:10012000C1010010C1010010C1010010C701001081
:10013000C1010010C1010010C9010010CB01001065
:10014000CD010010CD010010CD010010CD01001037
:10015000CD010010CD010010CD010010CD01001027
:10016000CD010010CD010010CD010010CD01001017
:10017000CD010010CD010010CD010010CD01001007
:10018000CD010010CD010010CD010010CD010010F7
:10019000CD010010CD010010CD010010CD010010E7
:1001A000CD010010CD010010CD010010CD010010D7
:1001B000CD010010CD010010CD010010CD010010C7
:1001C00000BE00BE00BE00BE00BE00BEEFF3058054
:1001D000103800BEF2EB8871107A0010307A0010EF
:1001E0003802001090A31AE71E481F49086006C88D
:1001F00081F3088810471D480068002801D019487D
:10020000F3E70DA40ECC002902D000F012F8F9E7B4
:100210001749184A002000E001C19142FCD116495B
:100220008847164988471649884700BEFDE701C937
:1002300001C29A42FBD37047307A0010C000002000
:10024000B8150020288F00100000042000000420B2
:10025000288F00100010042000100420000000006F
:10026000704700000000000008ED00E0000000D032
:10027000B815002068290020BD3A0010690300105D
:10028000B53A0010F8B5C0460448054B10B5834296
:1002900003D0044B002B00D0984710BDB8150020A8
:1002A000B81500200000000006480749091A8B1005
:1002B000C90FC91810B5491003D0044B002B00D04A
:1002C000984710BDB8150020B815002000000000A8
:1002D00010B5074C2378002B09D1FFF7D5FF054B4C
:1002E000002B02D0044800E000BF0123237010BDA2
:1002F000481900200000000070740010054B10B574
:10030000002B03D00449054800E000BFFFF7CCFFF5
:1003100010BDC046000000004C1900207074001091
:100320000122014B1A6070478024002010B50400A0
:100330001F2101F09FF900222000002101F0B4F9F3
:100340000021200001F02CFA10BDC04610B5052098
:1003500001F03AFAD02320221B069A6201210022E2
:10036000052001F0A1F910BDF0B5DE464E46574616
:10037000454648224823E0B59FB004AF9B18DB19DF
:100380007B6603F09BFCFFF7E1FF944B0122042105
:10039000052001F09DF906F0C5F9914C9149200026
:1003A00006F08EF903210E2001F064F903210F20DD
:1003B00001F060F9002201210E2001F075F9002200
:1003C00001210F2001F070F901943C234C244022BC
:1003D000802100933819002300F0FAFB381900F04F
:1003E00011FC381900F0F6FC0021381900F038FD36
:1003F000381900F0EFFC1A20FFF798FF1B20FFF7D9
:1004000095FF6A46784B002099461B689B0007338E
:10041000DB08DB00D31A9D4606F010FF06F09EF9BC
:100420004B4669461D68714B04AE1B689C006B43CC
:100430009A00D31DDB08DB00CB1A9D4604AB0021DC
:100440001800BA607B6403F0D5FA002D04DD0021AA
:100450003000AA0003F0CEFA4C250021781900F0F4
:10046000FFFC781900F0B6FC796C614B8C46BB63DD
:10047000604BA4447B63604BA2083B635F4BA000CE
:100480007B615F4B5F4DBB615F4BBA629B465F4BCD
:10049000386298465E4BFB61634694467B6063001E
:1004A0007B62630863448C469B009C44E2460124C3
:1004B0003E647E6929784C200B00381863402B700D
:1004C00000F0CEFC2A784C2013006340DBB202938C
:1004D0003A2303210192009303224033381800F09D
:1004E000FFFC4C2000230F22B96B381800F068FF86
:1004F0004C2014231122796B381800F061FF4C2036
:1005000023231122396B381800F05AFF4C23F818B6
:1005100000F060FC3368012BCCD14C240021381949
:100520003E6C00F09DFC381900F054FC4B461C68F2
:10053000002C00DC1DE3A2000021300003F05AFA79
:100540000122BB69FA631B683B64002B00DC0BE2F1
:100550007B68FD6255469A46BA680021786C03F0C4
:1005600049FA00235A46136042461360002C00DC0F
:1005700026E301333B6400220023B96A4B439B18F6
:100580000122796C9B005A5006F0F2F88023214A30
:100590005B0111684B40E021C9010B401E490B6013
:1005A00004211E4B1960FC3113680B42FCD05368C8
:1005B000FA691B041B0C1360194A9A18C62A00D941
:1005C000C2E102F0DDFE174A174B02F06EFE002278
:1005D000164B02F0CBFE00282FD029E0210300109B
:1005E00068100020801A06009C0F0020980F002041
:1005F000707400108074001090740010802400202B
:10060000A00F0020A40F0020382900209C240020E7
:100610002429002000C0044000D0044000E0044031
:100620002FF8FFFF0000C0FFFFFFDF410000E03FA9
:10063000434642461B68013313605B465A461B68BB
:10064000013313604A461268013A934206D1434689
:100650001B689B00F3181A6801321A6048210C00CD
:100660000A227918F86B06F0B5F83919043400231A
:100670003C22381900F0A4FE381900F0ABFB5346B9
:1006800048210A221868791806F0A4F848210A239C
:1006900032227918381900F093FE381900F09AFBCD
:1006A000534648210A225868791806F093F84821E1
:1006B0000A2346227918381900F082FE381900F012
:1006C00089FB7B6A48219C467C6C0A226444206832
:1006D000791806F07FF848214C2014232822791835
:1006E000381800F06DFE4C20381800F073FB4821DC
:1006F0000A226068791806F06DF848214C203C22E7
:1007000079181423381800F05BFE4C23F81800F019
:1007100061FB4821A0680C000A22791806F05AF8FB
:100720003919043414235022381900F049FE3819BD
:1007300000F050FB48210A227918286806F04AF890
:1007400048211E231E227918381900F039FE381965
:1007500000F040FB48210A227918686806F03AF850
:1007600048211E2332227918381900F029FE381941
:1007700000F030FB48210A227918A86806F02AF810
:1007800048211E2346227918381900F019FE38191D
:1007900000F020FB48210A227918E86806F01AF8D0
:1007A00048211E235A227918381900F009FE3819F9
:1007B00000F010FB3B6A48219C467C6C0A22644492
:1007C0002068791806F006F848214C2028231422C6
:1007D0007918381800F0F4FD4C20381800F0FAFAB7
:1007E00048210A226068791805F0F4FF48214C205E
:1007F000282328227918381800F0E2FD4C203818F8
:1008000000F0E8FA48210A22A068791805F0E2FF12
:1008100048214C2028233C227918381800F0D0FDBC
:100820004C20381800F0D6FA48210A22E0687918DE
:1008300005F0D0FF48214C20502279182823381881
:1008400000F0BEFD4C23F81800F0C4FA48212069DE
:100850000C000A22791805F0BDFF39190434282349
:100860006422381900F0ACFD381900F0B3FA4821C1
:100870000A227918306805F0ADFF48213723142289
:100880007918381900F09CFD381900F0A3FA4821B6
:100890000A227918706805F09DFF48213723282225
:1008A0007918381900F08CFD381900F093FA4821B6
:1008B0000A227918B06805F08DFF482137233C22C1
:1008C0007918381900F07CFD381900F083FA4821B6
:1008D0000A227918F06805F07DFF4821372350225D
:1008E0007918381900F06CFD381900F073FA4821B6
:1008F0000A227918306905F06DFF482137236422F8
:100900007918381900F05CFD381900F063FAFB6AB9
:1009100038191A780123534002930E233221019291
:1009200000930F22563300F0DBFA381900F052FA28
:100930004A463B6C146801333B649C4209DB5B46CE
:1009400042461B68126818E69F4A934200D96FE638
:1009500073E6BB691A68FB6B3A640133FB6393422D
:1009600000DCF9E5AA46FD6A4C240021381900F0A4
:1009700077FA381900F02EFA33681A3C1A006243ED
:100980003B64BB691000196802F01AFA3721012391
:10099000C0B22A78091A00904C205340DBB2C9B289
:1009A000029301920A231422381800F099FA4C207D
:1009B000381800F00FFA7268BB69100019686043BC
:1009C000FA6302F0FDF937210123C0B22A78091A2F
:1009D00000904C205340DBB2C9B2029301920A232B
:1009E0002822381800F07CFA4C20381800F0F2F970
:1009F000B1680B0063431800BB69F962196802F023
:100A0000DFF937210123C0B22A78091A00904C205F
:100A10005340DBB2029301920A233C223818C9B238
:100A200000F05EFA4C203918080000F0D3F9F168A4
:100A3000BB690A00624339611000196802F0C0F90D
:100A400037210123C0B22A78091A00904C20534064
:100A5000DBB202930192381850220A23C9B200F087
:100A60003FFA4C23F918080000F0B4F93169BB696A
:100A7000F96061430800196802F0A2F937210123E7
:100A80001A34C0B23C192A78091A009020004C246C
:100A90005340DBB2C9B2029301920A2364223C198B
:100AA00000F01EFA200000F095F948210C000A22FF
:100AB0007918386C05F08EFE391904343C19200081
:100AC0004C24392315223C1900F07AFC200000F058
:100AD00081F948210C000A227918F86B05F07AFE9A
:100AE000391904343C1920004C24392329223C199B
:100AF00000F066FC200000F06DF948210C000A228D
:100B00007918F86A05F066FE391904343C1920009A
:100B10004C243D22392300F053FC3B19180000F00F
:100B200059F948210A227918386905F053FE4821FD
:100B3000512279183819392300F042FC3B1918006A
:100B400000F048F948210A227918F86805F042FEB9
:100B50004821392365227918381900F031FC3819F9
:100B600000F038F900237A691848136001F09AFD03
:100B70009DE4BB691B683B64002B00DCF4E6BA68AB
:100B80000021786C02F036FF00235A46136042467B
:100B900013600133FB63FC6B3B6C0134A34200DA4E
:100BA000E2E6BA680021786C02F024FF00235A467E
:100BB0001360424613603B6C0134A342F1DAD3E682
:100BC000AA46FD6AE7E7C046970800001027000024
:100BD00070B50400D00804AB05041B78484312022A
:100BE0000A432A431B061A43059B01306360012117
:100BF0002260206102F0E2FE402303704033E06097
:100C0000237570BD70B506000025AE2382B0143682
:100C10000400C178437532004068AC3B009505F094
:100C200077FD2023E1786375320060681E3B0095F4
:100C300005F06EFD0123E1786375320060680133D1
:100C4000009505F065FD4023E1786375320060682A
:100C50003E3B009505F05CFDA123E1786375320011
:100C600060689F3B009505F053FDA823E17863750C
:100C700032006068A63B009505F04AFD3F23E1780D
:100C80006375320060683D3B009505F041FDC82367
:100C9000E178637532006068C63B009505F038FD69
:100CA000D323E178637532006068D13B009505F08D
:100CB0002FFDE1783200606865750223009505F02C
:100CC00027FDDA23E178637532006068D83B009530
:100CD00005F01EFD1223E178637532006068103B59
:100CE000009505F015FDD523E17863753200606845
:100CF000D33B009505F00CFD8023E178637532004D
:100D000060687E3B009505F003FDD923E1786375AB
:100D100032006068D73B009505F0FAFCF123E178DA
:100D2000637532006068EF3B009505F0F1FCDB2352
:100D3000E178637532006068D93B009505F0E8FC06
:100D40003023E1786375320060682E3B009505F032
:100D5000DFFC8123E1786375320060687F3B00959A
:100D600005F0D6FCFF23E178637532006068FD3B37
:100D7000009505F0CDFCA423E1786375320060682E
:100D8000A23B009505F0C4FCA623E1786375320010
:100D90006068A43B009505F0BBFC8D23E17863758A
:100DA000320060688B3B009505F0B2FC1423E178BB
:100DB000637532006068123B009505F0A9FCAF2313
:100DC000E1786375606832000095AD3B05F0A0FCEA
:100DD00002B070BD70B5060000252123040082B06A
:100DE0001436C1784375320040681F3B009505F00A
:100DF0008FFCE1783200606865750223009505F08C
:100E000087FC2378E178013B637532006068022338
:100E1000009505F07DFC2223E1786375320060685F
:100E2000203B009505F074FCE17832006068657540
:100E30000223009505F06CFCA378E178013B637513
:100E4000320060680223009505F062FC2369E268C5
:100E5000E1786068009505F05BFC02B070BDC046AB
:100E60004378F0B5002B20D0072300269C460127AD
:100E7000047800291FD1002C17D063463D00334071
:100E80009D40ED430023F208EDB20132C468013306
:100E9000A15CDBB22940A154047808329C42F5D809
:100EA00001364378F6B2B342E5D8F0BD0136437857
:100EB000F6B2B342F9D9002CF7D063463D00334077
:100EC0009D400023F208EDB20132C4680133A15CF9
:100ED000DBB22943A154047808329C42F5D8E5E7F7
:100EE000F0B5DE46574645464E469B46E0B585B0D2
:100EF0000EAB15001A780FAB1B780C00009310ABEB
:100F00001B7801935B465F19BD4200DB1CE1CB08F7
:100F1000013301269C46072399460B403100994036
:100F2000531EE318DBB20291D908884601218A4694
:100F300049460B409E40009BD044002B00D08CE0E3
:100F4000029BF643D943CBB29A46F3B299461100BD
:100F50002B004A46B94657468A4602940395644692
:100F6000C668D9006518745D41443C407455C56835
:100F700001336C5CDBB214406C549945EFDC524693
:100F8000029C4F461319039D9C422ADA5E46EA00F2
:100F900001329046013EAE19F6B2F6000136072145
:100FA0008A460639AB462200454689469C46B046ED
:100FB0000297039454464F461440A740C368D10893
:100FC0006E189C5D4144BC439C55C4680132635C0F
:100FD000D2B2BB4363549445ECDC63465D46029F4A
:100FE000039C019A002A00D183E06A1C791ED2B2C8
:100FF0008A4691427DDD611C013BC9B28B4278DD9E
:1010000000990235002900D07AE0D20001329446DE
:10101000A21C90460200E9B21800894663460126E8
:1010200094464246D4B20727611EC9B2CA08394065
:10103000370065468F40ED689A1892B2A95CB943B3
:10104000A954220001349042EDDC4A4608330132B3
:101050009BB2CA454DDD9146E3E76B461B7A3900EA
:101060009946F6B24F4692462B00320089460294CA
:1010700003956446C668D9000D19745D41443C432C
:101080007455C56801336C5CDBB214436C544B453A
:10109000EFDB5246029C4F461319039D9C42A0DA97
:1010A0005E46EA0001329046013EAE19F6B2F60005
:1010B000013607218A460639AB4622004546894655
:1010C0009C46B0460297039451464F4611408F40CC
:1010D000C368D4082E19F9B29F5D44440F439F554D
:1010E000C36801321E5DD2B2314319556245EBDB54
:1010F00073E705B0F0BCBB46B246A946A046F0BDBA
:10110000E9B2D500A21C90460122894694460135D9
:101110004246D4B20727611EC9B2CA0839406746A1
:101120008F403900C668AA1892B2B75C3943B154EF
:10113000220001349342EDDC4A4608350132ADB25B
:10114000D145D6DA9146E3E753188B4200DC48E7F5
:101150005E46EA00013E0132AE199046F6B2009AB0
:10116000F6000136002A00D119E7A2E7F0B5DE4605
:1011700057464E4645460C00E0B5413C99B0192C07
:1011800000D90EE13639C90089B28846D90807244A
:1011900001310691012125000E001D40AE403500B1
:1011A000F643EDB208955D1CF6B2EDB20796EE0877
:1011B000013617960E002540AE403500F643EDB2DD
:1011C0000A959D1CEDB2F7B2EE080997771C0E0048
:1011D0002540AE403500F643EDB20C95DD1CEDB276
:1011E0000497F7B2EE080B97771C0E002540AE402F
:1011F0003500F643EDB20E951D1DEDB20197F7B225
:10120000EE080D97771C0E002540AE403500F643E2
:10121000EDB210955D1DEDB20397F7B2EE080F9792
:10122000771C0E002540AE403500F643EDB2129516
:101230009D1DEDB20097F7B2EE081197771C0E00D6
:1012400007332540DBB2AE401C40A140F5B21495F7
:10125000DD08CB43DBB21593CBB2169313000135F7
:10126000AC460833554DDBB24544984601239946B8
:1012700063460297F743059343460699179EFFB2CC
:101280008C46B046139706935BE0079F3C40347052
:101290004446C768E4183E193C5D02270F4200D05F
:1012A0007CE0099F3C403470049CC768E4183E19F8
:1012B0003C5D04270F426ED10B9F3C403470019C73
:1012C000C768E4183E193C5D08270F4260D10D9FA6
:1012D0003C403470039CC768E4183E193C5D1027FD
:1012E0000F4252D10F9F3C403470009CC768E418F5
:1012F0003E193C5D20270F4244D1119F3C40347081
:10130000029CC668E4183719345D4026BB460E427D
:1013100035D1139E34405E463470059C49B2A246D6
:10132000C4685344E618B246E35C002916DB1599FD
:1013300001320B4051460B70069BD2B201359A42E6
:1013400016D06446C768D300E4183E193C5D4F468A
:1013500029780F4299D0089F3C4398E716990132AB
:101360000B4351460B70069BD2B201359A42E8D12D
:1013700019B0F0BCBB46B246A946A046F0BD149ECB
:101380003443C8E7129F3C43B9E7109F3C43ABE7A7
:101390000E9F3C439DE70C9F3C438FE70A9F3C43D5
:1013A00081E70024A0460C00303C092C00D9EDE672
:1013B0002F39C90089B28846E8E6C0463076001069
:1013C000F8B507000E0014001D0014E022000834D8
:1013D0002B003800E4B2FFF7C9FE22003B78083248
:1013E00001369A4202DB00240835EDB22B007A78F0
:1013F0000833934202DA31780029E7D1F8BDC046BC
:10140000D0231B061B68974A9900F0B54E468946C3
:1014100051585A4253412F2257464546DE465B42B9
:1014200093439846904BE0B59C4683B000270191CA
:10143000E044002939D08D4B0F269B464246FB08DD
:1014400008339B009C5801233D009A460837002C26
:1014500022D031002140264218D05B464A469A5895
:101460002B00EA40203BDB171340524613420DD1BC
:10147000072208002A40920090400200EB087C48B6
:101480003C339B001A502800019B984724090135E2
:10149000002C01D0BD42DCD3202FCFD103B0F0BC53
:1014A000BB46B246A946A046F0BD704B00200F22B5
:1014B0009B46C6083300414608339B005B58010039
:1014C0000830002B00D1B2E017001F40BC461A4282
:1014D0000FD04C465D460F002C59203FCC40FF17E3
:1014E00027400124274204D16446614F3C36B600B0
:1014F000F4511E0900D19AE017003740324213D050
:101500004C1CA4465D464C462C5965460E00EC40EA
:101510001F3EF61726400124264205D1EE08544C02
:101520003C363F01B60037511E0A00D17FE017005C
:101530003740324213D08C1CA4465D464C462C5991
:1015400065460E00EC401E3EF6172640012426425A
:1015500005D1EE08464C3C363F02B60037511E0B13
:1015600065D01700374032420DD0CC1CA4465D46F2
:101570004C462C5965460E00EC401D3EF6172640A1
:101580000124264257D01E0C51D014003440A446EA
:1015900032420BD04C46354E0F1D3659FE40B246F6
:1015A0000E0054461C3EF60F26424BD01E0D3ED078
:1015B00014003440A44632420BD04C462B4E4F1DF3
:1015C0003659FE40B2460E0054461B3EF60F2642E8
:1015D00040D01E0E2BD014003440A446324212D00C
:1015E0004C46224E8F1D3659FE40B2460E005446E0
:1015F0001A3EF60F264206D16446FE083C36270600
:101600001B4CB60037511B0FCF1D002B0FD04C4683
:101610005D462E590124FE401939C9173140214237
:1016200005D1F908124E3C311B0789008B51202847
:1016300000D03EE732E7EE080D4C3C363F03B600E3
:101640003751A0E76446FF083C37BE00084F24042A
:10165000F451ABE76446FE083C362705044CB6005F
:101660003751B6E78424002030410140282900206A
:1016700000400140094A83009A1810B514684022BE
:10168000544080322240064CC000A44663441A6095
:10169000044B9C466044416010BDC04604C00140FC
:1016A00004D0014000400140074B8000C3181B6874
:1016B000C90092000A435A400C231340034A94463F
:1016C000604403607047C04604C0014004D001403C
:1016D000F8B545469846D0231B06DE461C689B4657
:1016E0002B4B57469A46A3004E469946E0B55346C3
:1016F00016004A469B5807000D00002B34D0434685
:10170000002B3FD053464A4641469950D0231B06F2
:101710001C6863425C412F220720634293431D4AA9
:1017200038409446FA081100800085403C311A4840
:101730006344890092000D509B18002E0ED0802229
:1017400092019446634401210D201D6000F028F9A8
:10175000F0BCBB46B246A946A046F8BDC0229201E5
:10176000944663441D60F3E74346002BD1D05346B3
:1017700041460D2099500022084900F077F95B4658
:101780001C68C6E70D20054900F06AFABAE7C046B2
:101790008424002030410140004001400114001029
:1017A0008000002905D0064B9C464023604403601E
:1017B0007047044B9C46402360440360F8E7C046F2
:1017C00004E0014004F001400123D02283401206CE
:1017D00093629361094A83009A181168402251402C
:1017E00080320A400649C0008C4663441A60054BAB
:1017F0009C460523604443607047C04604C00140D6
:1018000004D00140004001408023DB051868000F30
:101810007047C0460FB400B5084883B002F09EFA86
:10182000049B002B07D005A91800019102F0F6F8DF
:10183000034802F093FA012002F008F99C740010AA
:10184000AC74001070B5EFF3108C72B60D4D2B68B0
:10185000002BFCD0BFF35F8F0724CB08C618C05CF9
:1018600001230C40A3401C000440034207D118434D
:101870003070BFF35F8F2C608CF3108870BD100048
:10188000FFF7C8FF2C0100D0F8B54746CE46884682
:1018900080B5EFF3108C72B6214D2C68002CFCD073
:1018A000BFF35F8F9A422CD8D4080727055D06192D
:1018B00001241740BC402C421FD007210127894634
:1018C00009E0D408055D06194C4639001440A140D2
:1018D0000C00294211D001329342F2D20120404241
:1018E000BFF35F8F00220E4B1A608CF31088002824
:1018F0000FDBC0BCB946B046F8BD254310003570BB
:10190000EEE7BFF35F8F00232B608CF3108801207C
:1019100040424346002BECD00898FFF77BFFC046BF
:101920002C0100D0044A1078431CDBB2172B00D9DD
:10193000102313707047C046A50F002010B5064B4A
:10194000064C82B00100009318221F232000FFF7ED
:101950009BFF02B010BDC046B0740010942400205C
:101960000021044B044ABFF35F8F02C39342FAD1B4
:101970007047C046000100D0800100D0054B064AE8
:101980001360064A136053609360D3601361536120
:10199000936170478080808000E400E004E400E010
:1019A0001F2318401E3B8340002905D0C021044A54
:1019B0004900535013607047802201498B50FAE769
:1019C00000E100E001228240034B1B6813405A1ED5
:1019D0009341D8B27047C04600E100E00123834044
:1019E000014A13607047C04600E200E0084B103027
:1019F0009B688000C358002B07D0064A00209B1A22
:101A00002F229A424041C0B270470020FCE7C046F6
:101A100000ED00E0A80F002070B50D00EFF3108678
:101A200072B60F4A1368002BFCD0BFF35F8F0D4BCB
:101A300010309B6884001B590B4A934203D09D428F
:101A400001D001F0DFF8074B9B681D51BFF35F8F9A
:101A5000BFF35F8F0022024B1A6086F3108870BDBF
:101A6000240100D000ED00E0CD010010F0B5574694
:101A70004E46DE464546E0B585B0060000911700AB
:101A8000EFF3108B72B66A4A1368002BFCD0BFF3D9
:101A90005F8F0025674B5D579A46002D00DAA9E05D
:101AA0006B00654C01935B199B009846A146C144AD
:101AB0004B4652469B7910361370604BB6009B68BC
:101AC00099590B1B2F2B33D95D4B994200D0ACE0B9
:101AD000019B42469C465B4B6544AD0063535A4BA9
:101AE0000232A218043B9B1A1B05584A5B0D65196C
:101AF00013436B80564B0121AB80FF23AB71009BDE
:101B0000EF71AB604B460B4319004C4B9B689951EE
:101B1000BFF35F8FBFF35F8F0022454B1A608BF3DB
:101B2000108805B0F0BCBB46B246A946A046F0BD41
:101B300001200A008243D3798C46BB4231D8454606
:101B4000130044491B1B5B415943090D3D4B635333
:101B50003D4B02356519043B5B1B1B053B4D5B0D83
:101B60002B43AA464D466B800425AC465546E044BF
:101B7000131F44441B1B1B055B0D1D434B469971F2
:101B800000999D8099604946DF71334B0143136092
:101B9000BBE75800C01880002018C179B9422FD97E
:101BA00002000623D356002BF3DA02932B4B614637
:101BB0000393131D9A4604235B429C46E14450461E
:101BC0004B461B1A1B055B0D9C46204B9571984696
:101BD0006346404603439380019B5A199200039B3E
:101BE000A418A380029B1C4AA371009B2260E7718A
:101BF000A3608AE701F006F8002553465D574FE7DA
:101C0000908802934005131D9A46031561469C4631
:101C10004046D444634604302018181AE0230005D7
:101C2000400D1B0218430390C5E700F0EBFF4FE7A0
:101C3000240100D061290020A80F002000ED00E061
:101C4000CD01001000A1FFFFD80F002000E0FFFF32
:101C500001BDFFFFAAAA00000148804701BD0000A6
:101C6000F0B5DE4657464E464546E0B50C0083B01B
:101C7000EFF3108872B6634A1368002BFCD0BFF3F1
:101C80005F8F614B61499A68030010339F00D559FB
:101C900000938D4243D0A54254D05D4EAA1B2F2AFB
:101CA0003DD85C4B9C461B689A4601231A00994616
:101CB0008240534613401F2201934B4602409340FB
:101CC0009A468022634650469850BFF35F8FEFF3E9
:101CD00005839B46002B37D0009B5B4501D000F06D
:101CE00091FF2A004B469A439068844208D177E0DE
:101CF0004B005B189B00F3189868844236D01A009A
:101D0000062151560029F3DA844255D0019B002B5D
:101D100027D0C02251463F4B5200995019603A4B90
:101D20009B68DD51BFF35F8FBFF35F8F0022354BA0
:101D30001A6088F3108803B0F0BCBB46B246A946CF
:101D4000A046F0BD0D00EAE72A004B469A43906892
:101D50008442D5D106201056130000280ADA0D005F
:101D600032E0802351462B4AD150D8E7062018563E
:101D7000002822DB42001118890074188946A168E6
:101D80009960E179D971062161569971002925DBA5
:101D9000A488F11A640524154C440919E0240905A6
:101DA000490D24022143998013181B4A9B00117886
:101DB000F31899711070A9E713005946002914D13E
:101DC000FF3191711549918013490A789A71144A2B
:101DD0009B1B5B415A43120D0A7097E71149E2E7DA
:101DE0000620105613000028C4DA0F4A0F49D21AF1
:101DF000083A5002400D014399800D4952080A43A8
:101E0000DA8083E7240100D000ED00E0CD0100106E
:101E1000A80F002000E100E06129002001BDFFFFC4
:101E2000AAAA000001BD0000E20F002000F0FFFFA1
:101E300000F8FFFF70B501240443EFF30581EFF3D1
:101E4000108C72B6214A1368002BFCD0BFF35F8F51
:101E50001F4B05001F4AED1A6D416A43120D1E4DBE
:101E60008900AE6852B27658A6421CD00621595657
:101E700091421CD012215956914222D01E2159560E
:101E8000914220D02A2159560324914210D0134B5D
:101E900019781A708171BFF35F8F00220B4B1A60A3
:101EA0008CF3108870BDAB680D4C5C50EFE70024DC
:101EB0006100091989005B18FF219971094999800E
:101EC000E5E70124F4E70224F2E7C046240100D04C
:101ED000A80F0020AAAA000000ED00E06129002060
:101EE000CD01001001BDFFFF10B5084B084C82B0BA
:101EF00001000093002205232000FFF7C5FC002805
:101F000001DB1F23181A02B010BDC046CC740010AC
:101F100065290020024B9C4661448900016070479E
:101F20004000003470B5114C114DAC420FD2FF2669
:101F30002368002B0CD0FFF7F5FC01002000FFF711
:101F4000E9FFA680BFF35F8F0834AC42F0D370BDC9
:101F5000FFF7E8FC01002000FFF7DCFF2671BFF36C
:101F60005F8F0834AC42E3D3F1E7C046B0150020E0
:101F7000B815002010B50400FFF7D4FC01002000C4
:101F8000FFF7C8FFFF232371BFF35F8F10BDC0466B
:101F900010B504000120FFF7D1FC034BC3189B00D0
:101FA0002360BFF35F8F10BD40000034034B9C469D
:101FB000614489000160BFF35F8F704740000034C7
:101FC0000A4B1968EFF3108072B60A68002AFCD039
:101FD000BFF35F8F1B68BFF35F8F00221A6080F32F
:101FE000108840BF002000217047C04640290020D3
:101FF000F0B5DE4657464E464546E0B583B0EFF3B2
:10200000058203231340B54A990052580091904627
:1020100001229A40B24B93461A60B24B01932EE0D4
:1020200043469B881BB2002B00DB99E043469B791B
:10203000002B00D0DDE0434608241C5F002C00DAB2
:1020400006E143465A6963001B19DB00D3189D68FB
:10205000DC686B1C00D107E1A34B00999C466144EE
:102060009A6A0B69A81A9B1A984200D20D619E4881
:1020700000F0AEFB8C4200DDEAE000D126E15B46D9
:1020800099484363434608229B5E9946002BC7DB71
:10209000424652695B0092464B44DB009A445346E9
:1020A0009E68DF6800F094FB8F42B9DC00D100E14C
:1020B000002F00DAE1E05246534654691B69019A49
:1020C000934200D1D4E0414652460820085E52882F
:1020D000000421001043984704000D0023002B4307
:1020E00000D1CAE0002D00DBE7E030003900001B22
:1020F000A94153469860D96000229A5E002A8FDB7E
:1021000043465D6953009C18E4002C19A768E468F5
:102110008C4200DD84E702D1874200D980E7464641
:10212000328108360DE08C4200D1D3E01E0000233E
:10213000F25E002A0ADB53009C18E4002C19A76801
:10214000E4689B18DB00EB188C42ECDD53461A80E8
:102150004B46338043469B881BB2002B00DA65E771
:1021600043461A69EFF3108172B61368002BFCD056
:10217000BFF35F8F43469E88012342465B429380B4
:1021800036B21369BFF35F8F00221A6081F31088A3
:10219000002E00DA4AE743465D69083342469C4612
:1021A0007700BF19FF00EF19BB6860469846082307
:1021B000D15E9246FC68002907DA0EE0A2424FD0B9
:1021C00018000023C15E002906DB4B005B18DB0012
:1021D000EB18DA68A242F1DD524606800023FE5E6B
:1021E0003980002EDCDA904643469B79002B00D1E3
:1021F00021E7002342469371434646460821595E33
:1022000008364B1C24D047468946556902E0060033
:102210004B1C18D04B005B18DB00E8180A008C46FA
:10222000E95E43881BB2002BF1DA01235B42DC1725
:102230008360C4604A4503D031803B8903803A8182
:10224000E1464B1CE6D14C46B846002C00DBF8E6D4
:1022500040BF03B0F0BCBB46B246A946A046F0BDA5
:102260009A684245ACD9B7E7631C00D0F4E6FEE6B5
:10227000200023699847002825D1534642461B88F1
:1022800013811269EFF3108372B611680029FCD034
:10229000BFF35F8F4246514652880A804246494604
:1022A00051801269BFF35F8F0021116083F31088A2
:1022B000B6E6864200D8FBE6B2E60B4800F088FAA4
:1022C0000019694115E76568246807E7854200D869
:1022D000D5E6BDE7874200D828E737E71429002074
:1022E0003C700540F11F00100040054070B52E4CB9
:1022F0002569002D04D00A212C48FFF70BFE70BD84
:102300002B4E0321300000F059FAE660FFF70AFB7C
:10231000284B03229C46D02322701B061B680121F8
:102320006370254B6044A3600F238000206102206E
:10233000638063694942A18019800231198647315F
:102340001D83585218315A5275325C3999521832DD
:102350000131995218320131995218320131995292
:10236000083518329D520231183299521832013113
:10237000995218320131995218320131995218325A
:10238000013199521832013199520C4B0C49DC60E1
:1023900001303562FFF740FB01210320FFF700FB0E
:1023A000084B1D60A7E7C046F00F00204029002021
:1023B0000040054040000034FFFF100014290020B9
:1023C000F11F00103860054000487047F00F0020F2
:1023D000F8B51F0008AB1B7804001600002B08D1CD
:1023E00000F0FEF932003B00121A8B41002B00DA9C
:1023F00053E02269EFF3108072B61368002BFCD013
:10240000BFF35F8F0223E15E63694A005218D20076
:102410009B18002937DB1A8862802269BFF35F8F1F
:102420000025156080F31088069A9E60DF601A61AF
:10243000079A5A615A8801325204520C101C002A21
:102440001FD082B25880080410432669EFF310872A
:1024500072B63268002AFCD0BFF35F8FA2881A8060
:10246000A1802369BFF35F8F00221A6087F3108871
:102470000B4923788C4601329A40E36863441A6022
:10248000F8BD0120DDE72369BFF35F8F00221A60EA
:1024900080F3108801204042F2E70020F0E7C046B8
:1024A0003C20000070B501000469EFF3108C72B697
:1024B00020680028FCD0BFF35F8F02200D5E4C69BE
:1024C00068004019C0002418002D37DB20884880A0
:1024D0000869BFF35F8F002606608CF31088E36005
:1024E00063880498013320615B0405985B0CA2604B
:1024F00060611A1C002B1FD093B22804628018431D
:102500000A69EFF3108C72B61368002BFCD0BFF38E
:102510005F8F8B8823808D800B69BFF35F8F0022D4
:102520001A608CF310880B7801329A40CB68084906
:102530008C4663441A6070BD0122DDE70B69BFF36E
:102540005F8F00221A608CF3108801204042F2E76E
:102550003C20000010B543890A1493421ADD530051
:102560009B184269DB00D3180469EFF3108C72B634
:102570002268002AFCD0BFF35F8F5A88090494B206
:10258000090C8A4208D00369BFF35F8F00221A60EA
:102590008CF31088002010BD8022120214435C804E
:1025A000012302698371BFF35F8F002111608CF3F7
:1025B0001088044902788C469340C2680120624426
:1025C0001360E8E73C20000040787047F0B5040055
:1025D0000D0006267642F717C64636196F4100B53C
:1025E00082B08F4214D811D000F0FAF832003B00CC
:1025F000121A8B41002B17DC002B47D0200029003A
:1026000000F0F8F802B080BCB846F0BD8642EBD9C5
:102610000022002316001F0000F0E2F832003B0009
:10262000121A8B41002BE7DD00F0DAF832003B0094
:10263000121A8B41002B0ADB00230193154B320049
:10264000009315483B00FFF72DFF0028D6DB002341
:102650009C46B046114A124E736A9F4204D8B16A32
:102660008845CBD99F42C9D11168EFF3108072B66B
:102670000B68002BFCD0BFF35F8F1368BFF35F8F35
:102680006146196080F3108820BFE5E7002AB5D0C5
:10269000CAE7C046C11F0010F00F002040290020EB
:1026A0000040054070B5060000F09AF8FA220400D8
:1026B0000D00002330000021920001F01DF980235D
:1026C000001969411B06994202D301200249404288
:1026D000FFF77CFF70BDC046FFFFFF7FF0B5CE4621
:1026E000474680B504000D0083B0EFF305878846A8
:1026F000002F3ED12E4EA1463378F06804339B0064
:10270000816A1B58601A5B1A98420ED320BF294970
:1027100000204B6AAB4203D38A6A0130944231D81D
:1027200003B0C0BCB946B046F0BD00F059F8220075
:102730002B00121A8B41002B2FDB1F4B2200009322
:1027400030002B000197FFF7ADFE011E25DD194B70
:102750005A6AAA421BD220BF3000FFF7FBFE154A7F
:102760000020536A4345DBD3926A01309145D7D9A3
:1027700008E0104900204B6AAB42D1D38A6A01308D
:10278000A242CDD25B1B5A1E9341D8B2C8E79B6AC6
:102790009C42E1D9AA42DFD1DDE7064A0020536A14
:1027A0004345BDD3926A01209145B9D9EAE7C046B5
:1027B000F00F002000400540C11F001010B5024A74
:1027C0000248FFF73FF810BDE8740010982400207D
:1027D0000300416A0A00986A596A8A42FAD170472E
:1027E000034B596A0A00986A596A9142FAD17047B4
:1027F00000400540064A536A9942FCD807D1044B71
:1028000002E05A6A914202D19A6A8242F9D3704731
:1028100000400540F8B5DE464E4657464546E0B511
:102820008B4605000A991800160000F0F1FA0A9B81
:102830006C001F02324B64199C46A4006444636818
:1028400081469F4200D967602B1FDBB29846012B5F
:1028500030D9C02380229B01E31812011A60294B52
:10286000AD0059599A4600291BD17301E026226810
:1028700053401E40802342465B01E3181E60012A3C
:1028800030D9802380229B01E31812011A6053463D
:102890004A4667605A51F0BCBB46B246A946A046BC
:1028A000F8BD586900F0B4FA013043001B18033B2F
:1028B000FDD2DAE75B46012BCBD1C02303229B017B
:1028C000E3181A60023AA3681A42FCD07301E026AA
:1028D0002268AD0053401E4080230A4A5B019246A5
:1028E000E3181E605A462168514003220A401A60CC
:1028F00001225B469A40A3681A42FCD0C1E7C04659
:1029000000800040A0240020F0B546464F46D64641
:10291000C0B51F00344B44009C462418A4006444F6
:10292000636888461600FF2B02D880235B00636033
:10293000031FDBB29A46012B30D9C02380229B01B2
:10294000E31812011A60294B85005959994600294C
:102950001BD17301E026226853401E40802352465B
:102960005B01E3181E60012A30D9802380229B017D
:10297000E31812011A6080235B0063604B465F51CD
:10298000E0BCBA46B146A846F0BD586900F040FA2E
:10299000013043001B18033BFDD2DAE74346012B0D
:1029A000CBD1C02303229B01E3181A60023AA3682B
:1029B0001A42FCD07301E0262268850053401E4075
:1029C00080230A4A5B019146E3181E604246216853
:1029D000514003220A401A60012342469340A268F4
:1029E0001342FCD0C1E7C04600800040A024002074
:1029F000014B8000C0587047A0240020F8B50400A7
:102A000021481E0017000D0000F002FA01003800F6
:102A100000F0FEF9069B36041B031E432368002BBF
:102A200020DB1A4B1A49E3185A1E93418022920167
:102A300094465B421B0B174A1B0363441360164A00
:102A400013601F000A689743FBD1144B2560E218FE
:102A50002123A06013602368002BFCDA0823E660C2
:102A60001360F8BD3F2322681340AB42D9D1A3685D
:102A70001B051B0D8342D4D1EE22E368D202134022
:102A8000B342CED1EDE7C046001BB7000040FDBF0A
:102A900008C0004000E0004000F0004004300000AA
:102AA00010B580241C4BE4051C6000281AD00123BB
:102AB0001A4C18431A4BDC611A4C44401C62596290
:102AC00098628021144BC90519601748174908609E
:102AD000E021C9041960002A07D18022144B120694
:102AE0001A6010BD0E4BD861EBE753019B1A9B0097
:102AF0009A18802312015B049A4209D213000D49EF
:102B00000B60074B5A608022094BD2051A60E8E738
:102B1000094B1A00F3E7C04600B00540D3C007B028
:102B2000008005402D3FF84FFCFF010008200140C8
:102B300000A0054004290020FFFFFF008023024A77
:102B40009B000B43D362704700800540142310B5EF
:102B50000100188804331B88984710BD162310B550
:102B60000100188802331B88984710BDF8B5474606
:102B7000CE4680B50F1E19D01423994604330400A5
:102B80000025012698464B461888434621681B8835
:102B9000984701C4431E9841013540420640AF4268
:102BA000F1D13000C0BCB946B046F8BD0126F8E707
:102BB000142370B50400188804331B880D000549E0
:102BC000984703000020002C01DB0130A0402900C1
:102BD0009847C04655420000AA23064A1B011360CD
:102BE0002F230549D360054B19605368002BFCDA8D
:102BF0007047C0460040024000B0FA00006002404A
:102C00007047C04610B50148FEF704FE0C75001071
:102C100070B5074D074EB54209D20024013E761B20
:102C2000B60808CD984723000134B342F9D170BDEE
:102C30002874001064740010054B064A06491A6097
:102C4000064A074B1A6010000B689843FBD1704787
:102C500000E00040BFCDFBFE08C00040FE7F3C000E
:102C600000F00040044BDB6C002B03D18022034BAF
:102C7000D2021A607047C046000011504C2011501B
:102C8000044A054B1A60054A1368DB018033FBD107
:102C90007047C046FFFFFF0100F0004008C0004041
:102CA0004022034B9A675A671A67DA667047C04634
:102CB00000F0014010B5FEF753FE10BD70B5044D95
:102CC000044CA968C022200000F09AFEAC6070BDE0
:102CD00000ED00E000000020002310B5294C82B078
:102CE000A367FFF779FF0122274B1A60636C012B62
:102CF000FCD10322254B1A60224A936B012BFCD195
:102D0000013300930121224A22480433FFF776FE63
:102D1000052301210093204A2048FFF76FFE00227F
:102D2000022104201E4BFFF7EFFD002201210520A8
:102D30001C4BFFF7E9FD0022002107201A4BFFF78B
:102D4000E3FD002200210820174BFFF7DDFD802363
:102D5000DB000093002200210920134BFFF75AFDEE
:102D60000022104B00210620FFF7CEFD0420FFF7C4
:102D70003FFE0E4900F04CF801000020FFF7DEFE98
:102D800002B010BD008000403CB0004030B00040B8
:102D9000002F685900800240008C864700C0024026
:102DA000001BB70040597307006CDC0240420F0063
:102DB00001480421014B1847101000206D2B001012
:102DC000124A936F9B0815D29066D166002905D0F0
:102DD000FFE7FFE7FFE7516F106F704704B58021F1
:102DE0000906C2175140002800D0C84304F0D4FAA5
:102DF000002104BDF0B5146E556E576F166FFFF7C6
:102E0000E3FF1466556657671667F0BD000000D0F3
:102E1000114A936F9B0813D210665166002905D0A2
:102E2000FFE7FFE7FFE7516F106F704704B5002819
:102E300001D00020C04304F0AFFA002104BDC04619
:102E4000F0B5146E556E576F166FFFF7E5FF1466F9
:102E5000556657671667F0BD000000D094464A4A91
:102E6000926F9208624601D228E0C046F0B5464E05
:102E7000346E756E776F366F00F020F89446424AD4
:102E800014665566576716676246F0BD94463E4A1B
:102E9000926F9208624601D254E0C046F0B53A4EB5
:102EA000346E756E776F366F00F04CF89446364A84
:102EB00014665566576716676246F0BD002B24DB23
:102EC00011D000293EDA00B5C943404200D101319A
:102ED00000F038F8C943404200D10131DB4352428F
:102EE00000D1013300BD002AEBD1002801D1002917
:102EF00005D00020C90FC90701D1C043410800B562
:102F000004F042FA0022002300BD00B500290ADBCC
:102F1000DB43524200D1013300F014F8C943404270
:102F200000D1013100BDC943404200D10131DB4332
:102F3000524200D1013300F005F8DB43524200D188
:102F4000013300BD002923D1002B18D1002A0CD059
:102F5000BC460D4F38667A6600210023FFE7FFE785
:102F6000FFE77A6F386F67467047002801D007483F
:102F7000010000B504F008FA0022002300BD0200A1
:102F80000B00002000217047000000D0FFFFFFFF72
:102F9000002B00D0BFE0130C28D1002AE7D080B46A
:102FA000114F39667A66FFE7FFE730B4040C7B6F98
:102FB000396F1B0423433B667A66FFE7FFE7FFE7B1
:102FC000C04684B27B6F3D6F1B0423433B667A6629
:102FD000FFE7FFE7C04600232C042D0C7A6F386F03
:102FE00000196941B0BC7047000000D0F0B59446AC
:102FF0000025140E01D112020835140F01D112015F
:103000000435940F01D192000235D40F01D1520042
:103010000135D40B0134254F7C66254C3C660E0CE3
:1030200093B2FFE7FFE7FFE73C6F6643360C770399
:10303000BE467343DF0B5B04C01AB941130C7343E4
:10304000DB18C91ACE086643360CB64493B27343F4
:103050001F0F1B01C01AB941130C73431F0B1B0533
:10306000C01AB941860D8F023E436643360C092DC6
:1030700024DB520A7243801A7703460A6643360CF1
:1030800016235B1BDE40DF40BF1964466643821B8C
:103090007046043506330100D940A840C01900D35A
:1030A0000131A24206D20023F0BD0000000000D092
:1030B000FFFFFFFF121B0130F3D3F1E709277F1B4E
:1030C000FE406446A2B27243801A00D20139220C3B
:1030D0007243130C1204821A99410B007046043596
:1030E00013370100F940A840801900D30131002BAB
:1030F00002D1A2420AD2F0BD013000D30131121B2D
:10310000FAD2013BF8D1A24200D2F0BD013000D387
:103110000131121BF7E7F0B51C0C00D080E00CB4B5
:1031200000251C0A04D11B02160E33431202083577
:103130001C0B04D11B01160F3343120104359C0BE9
:1031400004D19B00960F334392000235DC0B02D171
:1031500092185B4101351C00971864410134464FB9
:103160007C66464C3C660E0CFFE7FFE7FFE7C04677
:103170003C6F6643360C7703BE4697B27743C01B5D
:1031800000D20139C01B00D201399FB27743C91B5D
:10319000C91B170C77437E04FF0B801BB941CE0877
:1031A0006643360C0C2D33DBB644120B1F053A4335
:1031B0001B0B97B27743C01B00D201399FB27743F4
:1031C000C91B170C77433E043F0C801BB941860D89
:1031D0008F023E43664329277F1BFE400C3D774606
:1031E000AF40BF1930BCA2B2ABB272437343801A76
:1031F0009941220C7243130C1204801A9941020067
:103200000B000137001BA941F9D2781E0021F0BD47
:103210000C277F1BFE4077467F0BAF40FF19E0E78E
:1032200000245D1C07D0144F7D663966FFE7FFE779
:10323000FFE7FFE73C6F95B29EB265436643401BD4
:10324000B141150C1E0C6543664336042F0C3E43FA
:103250002D04401BB141994204D202000B00200012
:103260000021F0BD01D19042F7D3801A9941013479
:103270009942F2D3F6E70000000000D0FFFFFFFF05
:1032800048404140484018B41B4B5B68FC460193E2
:1032900008BD04DF8734001018B4174B1B68FC46C8
:1032A000019308BD00DF913400109446134A926FD9
:1032B000920809D2624618B40F4BDB68FC460193B2
:1032C00008BD0CDF493700100C4AF0B5146E556E7E
:1032D000576F166F6246FFF7EEFF084A1466556691
:1032E00057671667F0BD18B4034B9B68FC46019303
:1032F00008BD08DFED35001048170020000000D0A1
:10330000FFB550404240504059404B40594000E0CA
:10331000FFB5154F4C00640D03D0BC4204D10C0323
:1033200014D80020090D09055C00640D03D0BC42CF
:1033300004D11C030AD800221B0D1B0501264B409B
:1033400009D44B4003D58B4200D18242FFBD994244
:10335000FCD19042FFBD0B43DB1803431343F5D070
:10336000C9434918FFBD0000FF07000000B5FFF783
:10337000C7FF804100BD00000021002805D1704733
:10338000C1174840401AFAD0C90713B5064B1B684D
:1033900098470CBC441CA2401005120B0349091BA2
:1033A00009051943114310BD3C2900201F040000EA
:1033B000132370B51D78012D19D014DD1F48FFF7B8
:1033C000CDFB06001E48FFF7C9FB1E4C80223100D2
:1033D000200000F015FB022D2DD01B48FFF7B6FB97
:1033E0001A4B186070BD1A4B164CA364F5E7184BC6
:1033F000144C23606360A360E36023616361A36195
:10340000E36123626362A362E36223636363A36392
:10341000E36323646364A364E36423656365A36572
:10342000E36523666366A366E36623676367A36752
:10343000E367A364D1E7064BA364CEE753440000DF
:1034400053460000481700204C3300003C29002060
:103450005534001007B5604601880A0A0230DF2A99
:10346000FAD1C9B2820804D302884088000410430C
:1034700000E00068014A5050039007BD4817002043
:103480000FB403BC0CBCF0B50124E407634000E0BA
:10349000F0B50C0DCF0F661E3605891B640503D3EE
:1034A000C943404200D30131640D03D0661CF60AC3
:1034B00007D0E41B00207F00791C89078912803C1B
:1034C00024031D0DDF0F6E1E36059B1B6D0503D3F8
:1034D000DB43524200D301336D0D03D06E1CF60A5C
:1034E00007D0ED1B00227F007B1C9B079B12803DB9
:1034F0002D032F1B661B58D4A446202E46DA2037F6
:103500001400BC401D00BD40F24033412A438018E6
:103510005941CB0F05D0C943C043002264425041FA
:10352000514162464D0D28D10D0D07D100281FD005
:10353000241940414941013A0D0DF9D0640006D3E8
:10354000013000D30131002C01D140084000013A84
:103550000BD4941CE40A04D112051144DB0719446E
:10356000F0BDD907204B194300E0D9070020F0BD7A
:103570000029DDD1002CDBD1F0BD0132C6074008A7
:10358000CD0728434908002EE1D0D9E73C2E29DA9F
:10359000203E40371400BC4000D00124F2401443C8
:1035A0001A00BB401C43D317ACE7AC46202F08DA07
:1035B00020360400B4400D00B540F840394128439E
:1035C000A5E73C2F0CDA203F40360400B44000D081
:1035D0000124F84004430800B1400C43C117EAE756
:1035E00010001900002494E70000F07FF0B50C0DE6
:1035F000661E3605891BE60A6405640D02D0651C4B
:10360000ED0A04D0002001210905803C2403A446D2
:103610001C0D671E3F05DB1BE70A6405640D02D025
:10362000651CED0A04D0002201231B05803C240305
:103630007740644497B484B296B27443070C7E43D7
:10364000150C6F4380B26843361802D30120000482
:103650003F183004350C00197D41844688B29AB277
:1036600050430C0C62431F0C7C438EB27E43921974
:1036700002D301263604A4191604170C3618674124
:1036800001BC81B29AB25143040C62431B0C5C43EF
:1036900080B25843121802D30120000424181004E9
:1036A000130C401863412D185E410020474106BCB1
:1036B00088B293B258430C0C6343120C544389B242
:1036C00051435B1802D301210904641819041A0C30
:1036D000091862416D1856410020474118BCF90293
:1036E000720D1143F0026A0D1043ED020A0D03D171
:1036F0006D1940414941013B124E9B1B7600B3427C
:103700000ED26D0007D30130002671416646354365
:1037100001D1400840001B05C918E4072144F0BD51
:103720000BDA013306D1013004D101314F0D01D044
:103730004908F2E7E1070020F0BD0136310500201D
:10374000EBE70000FF030000F0B51C0D671E3F050E
:10375000DB1BE70A6405640D02D0661CF60A04D080
:10376000002201231B05803C2403D0252D060026C2
:10377000F6432E661E096E66CE0FF619B446490052
:103780004F0D02D07E1CF60A03D000200021403FDE
:103790003F033E1BB600B444013F7F05C91B4908E7
:1037A0002E6F013676089C02950D25437543ED1367
:1037B0007543AD1301356D10F603761B0CB4CC02C6
:1037C000450D2C43A2B2B3B25A43270C7B43350CB0
:1037D0006F43A4B26C431B1902D3012424043F1984
:1037E0001C041D0CA4187D4124196D41009A91B24E
:1037F000ACB26143170C7C432B0C5F4392B25A432B
:10380000A41802D301221204BF182204230C521858
:103810007B41019C6C431B19520ED9010A434401A0
:10382000A01A81B2B2B2514303145A43360C734307
:1038300087B27743D617D21900277E4136049B19E9
:103840001704160C7F185E417316ED18F30100265D
:1038500080337541A90F06D16400690AE8055B0A47
:10386000184309D22FE00422944480337541A90AF9
:10387000A8059B0A184326D3404149412404009AD5
:10388000019B0D005543641B4343E41A95B286B275
:103890007543170C7E43030C5F4392B25A43B6182C
:1038A00002D301221204BF183204330C52197B4197
:1038B00052429C41002C02D4002201305141400868
:1038C000CA071043490802B06246D7079210084B56
:1038D000D218084B9A4203D212058918C919F0BDB3
:1038E0000020002A01DC3900F0BD01331905F5E79D
:1038F000FD030000FE07000051434343C9188C46F6
:10390000110C83B24B4310B4040C614392B280B2E9
:10391000504362431C041B0C001910BC5941130492
:10392000120CC0185141614470470000132310B5B8
:1039300012481C78FFF712F90100012C0AD003DDB0
:1039400080220F4800F05CF80E48FFF7FFF80E4B9E
:10395000186010BD0A4C5422200000F051F80B4BA7
:103960006365A365E36523666366A366E366236711
:103970006367A367E3672362E361E5E753460000FB
:10398000481800204C3300003C29002091390010D9
:1039900007B5604601880A0A0230DF2AFAD1C9B2A7
:1039A000820804D3028840880004104300E00068C5
:1039B000014A5050039007BD4818002070B505001B
:1039C0000C0002F01FFF6C43002804D0034B0419C5
:1039D0009C4200D870BD0248FDF71CFF0000042087
:1039E0001875001001480421014B184720100020D1
:1039F0006D2B0010014B1B681847000020100020A1
:103A0000014B5B68184700002010002010B500280B
:103A100000D110BD00F056F9FBE7C04610B5094AC9
:103A20000300146884B0002C08D0012200910648DD
:103A3000524203A9A047012004B010BD00F08EF946
:103A40000020F9E7002900200D3A001000BEFDE734
:103A5000094A03001068002805D00849C3188B42A2
:103A600007D81360704706480449C31810608B429A
:103A7000F7D901204042F5E7FC2400200000042093
:103A80006829002010B5041E0DD0FEF7A9FE074BD3
:103A90001A685B68801A99410023054AFFF7DEF92E
:103AA00020606160A260002010BDC0463817002071
:103AB00040420F0010B5FFF7C9FFC04670B5FFF7D1
:103AC000A7F8074D074EB54209D20024013E761BE8
:103AD000B60808CD984723000134B342F9D170BD30
:103AE0006474001070740010030010B50800110019
:103AF0001B68984710BDC046F0B5C64600B5437D6B
:103B000007000D001600002B38D0002A2EDD002102
:103B10006A1E90466A5C037D4C1C00200A2A0CD069
:103B2000A64216D043461B5D21000D3B5A4253412D
:103B30006A5CDBB24C1C0A2AF2D1002BF0D188421D
:103B400017DB022110483B689847A64207D02000A7
:103B5000E8E7864203DD311A3B6828189847AD191B
:103B6000013D2B780D3B5A4253413B7580BCB84612
:103B7000F0BD091A3B6828189847E2E7036811006E
:103B800028009847F2E7C046AC770010F0B5DE4653
:103B900057464E464546E0B585B017001C00060066
:103BA0000D00FEF71DFE0023314A12184B41802103
:103BB00009068B4202D301222E4B52422E490800A5
:103BC0008A4603F009FC01906B1C03D1300003F01E
:103BD000F5FA0500002C26D0284B9846284B1C6887
:103BE000002C15D0002F21D1264F02E02469002C93
:103BF0000ED02368002BF9D03B68002B01D09C42EB
:103C0000F4D120002A003100C0472469002CF0D1F3
:103C1000019B002B28D1280005B0F0BCBB46B24662
:103C2000A946A046F0BD184B9846D7E7154B9946D4
:103C300002ABDF1D0A239B4602E02469002CE7D07B
:103C40002368002BF9D04B461B68002B01D0A34200
:103C5000F3D12A0031002000C0475B460122390021
:103C600020003B70C047E8E7504603F085FBD2E7F1
:103C700040420F00FFFFFF7FB0150020F93A00100F
:103C8000F0240020F8240020E93A00100A4A1368C2
:103C9000002B05D10CE01A001B691032002B07D055
:103CA0009842F8D1002902D103691360016170477D
:103CB0000029FCD01060FAE7F024002010B500F0D5
:103CC0008DFA10BDF0B5CE46474680B583B06B4641
:103CD0000600DD1D2870FEF783FD00231A4A121826
:103CE0004B41802109068B4202D30122174B5242DD
:103CF00017490800884603F06FFB164B81461C6885
:103D0000002C14D0144F02E02469002C0FD023683B
:103D1000002BF9D03B68002B01D09C42F4D120004D
:103D200001222900FFF7E8FE2469002CEFD14B4661
:103D3000002B05D1300003B0C0BCB946B046F0BD81
:103D4000404603F019FBF5E740420F00FFFFFF7FFD
:103D5000B0150020F0240020F824002070B50400E5
:103D600003F02CFA01230100050001222000FFF7D7
:103D70000DFF084B1C68002C06D06368002B05D093
:103D800098472469002CF8D1280070BD2469002CC4
:103D9000F3D1F9E7F02400207047C0460022014B20
:103DA0001A707047622900204B790020FF2B0BD13D
:103DB0008B79002B08D1CB79012B05D1082A03D9A7
:103DC000024B8A7809301A707047C0466229002079
:103DD0000120704710B5012901D0012010BD134901
:103DE0005379107909781B02034300209942F5D1D9
:103DF0005378012B08D0022BF0D10020642200213F
:103E0000FEF74EFE0120E9E7D37891781B021943B3
:103E1000DB0507D54A0A100001231A407E331940FA
:103E2000FEF7C6FE01204A0A4042F5E7622900205B
:103E3000004870477878001070B505001400012024
:103E4000012909D153780020012B05D1637912791A
:103E50001B021343072B00D070BD21002800024A2B
:103E60009F3301F049FAF7E7D07700100123037080
:103E700000487047B07700104B780A781B02134354
:103E80008A7810B512041A43CB781B061343962286
:103E9000D200934200D010BD002201201100404208
:103EA000FEF786FE024B1860024B19607047C04651
:103EB0008C2400209024002010B5024B1878FDF7C8
:103EC0008DFD10BD63290020154B70B51A68002ABE
:103ED00022D0EFF3108172B610680028FCD0BFF337
:103EE0005F8F00200F4A596010701B68BFF35F8F0F
:103EF000186081F31088002400250B4E3078FDF700
:103F000061FD002804D1002400252900200070BD97
:103F10003078FDF763FDF8E7FA240025A400ECE70C
:103F20000C290020642900206329002070B50400BA
:103F300000200E0001F0F8FA002836D0002001F031
:103F40000BFB002831D0FEF74BFC0023184A121857
:103F50004B41802109068B4216D2164D280003F0F2
:103F60003BFA002821D0002001F0DEFA00280FD112
:103F700001200021404200F0F3FC032464422800A9
:103F800003F0FAF9200070BD01220B4B5242E4E726
:103F9000002001F0E1FA0028EAD0210032000020E0
:103FA00001F0E6FA041EEAD1E7E703246442E9E7F8
:103FB00040420F0044290020FFFFFF7F10B5FEF7AD
:103FC0000FFC00230E4A12184B41802109068B4238
:103FD00002D301220B4B52420B4C200003F0FCF9A0
:103FE00000280CD001200021404200F0B9FC002044
:103FF00001F00AFB0028F5D1200003F0BDF910BD47
:1040000040420F00FFFFFF7F44290020F8B5DE4645
:10401000574680B505000C00FEF7E2FB0023374A47
:1040200012184B41802109068B4202D30122344BE6
:104030005242344908008A4603F0CEF9002803D1E1
:10404000C0BCBB46B246F8BD002001F06DFA0028A6
:104050004AD00026002C43DD2B4B9B4614E0A919C7
:10406000002001F00DFB070001200021404200F07C
:1040700077FC002001F0C8FAFEF7B2FB224BF619DC
:1040800018605960B4422BDD002001F019FBA71B1A
:104090000200B84200DD3A00002AE0D101200021F0
:1040A000404200F05DFC002001F0AEFA002001F07B
:1040B0003BFA002814D0002001F002FB0028E1D1D7
:1040C000FEF78EFB5B460F001A685B680021844692
:1040D0000E4812184B419F4202D8D3D19445D1D9F2
:1040E000504603F049F9ABE700200021064B186069
:1040F0005960504603F040F9A2E7C04640420F0025
:10410000FFFFFF7F442900204017002020A1070067
:1041100030B52B4C85B00021200003F045F9002874
:104120001CD1284B1A68002A16D0EFF3108172B602
:1041300010680028FCD0BFF35F8F0124224859602B
:1041400002781B68D2B20470BFF35F8F0020186042
:1041500081F31088002A17D005B030BD012000215E
:10416000404200F0FDFB002001F0F6F905002000C0
:1041700003F002F9002DEFD0144B1B68002BEBD09D
:10418000134A10689847E7E7FEF71EF90400FEF7A8
:1041900027FBFA220023920012184B4180210906C6
:1041A0008B4202D301220B4B52420121029100218A
:1041B0000191094920000091FEF70AF9CCE7C046B9
:1041C000442900200C290020642900208C24002090
:1041D00090240020FFFFFF7FC93E0010D02310B5C0
:1041E0001B0684B01C68FEF7EFF8FEF7EDF9A0425D
:1041F00002D0002004B010BD294B1B7801F06AFDED
:1042000028480368002B47D00120FDF76DFEFF23EF
:10421000254C264920701840FDF7FEFB207801212F
:10422000FDF7BEFB0520FDF7E1FB002826D10822A3
:1042300000211F48FFF7DEFBFEF7C6F80400FEF77B
:10424000CFFAFA220023920012184B41802109066E
:104250008B4202D30122174B5242012102910021CD
:104260000191154920000091FEF7B2F80028C0DB4B
:1042700012480121FFF70AFD0120BBE70120FDF7ED
:104280005DFB0B4B01001800FDF790FE002205209E
:104290000B49FDF7EBFBEBE7FDF76CFEB4E7C0461F
:1042A0002C7A0010442900206329002011410010BD
:1042B0000C290020FFFFFF7FC93E001030100020B6
:1042C000B93E00100048704714790010004870474C
:1042D000C078001010B5040017480378002B20D0D8
:1042E000002C06D1154B16484380063BFF3B03804C
:1042F00010BD052C19D8134BA400E0581249012316
:10430000013804E001330A800231142B0FD0C25C63
:10431000002AF7D1C022DBB25B00920008481343A9
:10432000E5E7112100F01AF8DAE70020E0E7CA23F8
:1043300003489B00DBE7C0464C290020090400002D
:10434000C8240020A8780010CA24002010B5024814
:1043500000F0D8F810BDC0463029002030B54B1E03
:10436000012900D1A7E0664A11780D092C003034EC
:104370009F2900D9A2E00470012B00D1BEE00F21DB
:10438000147821400C003034092900D998E0447099
:10439000022B00D1B2E054782509290030319F2C3E
:1043A00000D990E08170032B00D1A7E00F212140BC
:1043B0000C003034092900D987E0C470042B00D1E7
:1043C0009CE094782509290030319F2C00D97FE0AA
:1043D0000171052B00D191E00F2121400C003034F8
:1043E000092900D976E04471062B00D186E0D47803
:1043F0002509290030319F2C00D96EE08171072BEF
:1044000000D17BE00F2121400C003034092966D80F
:10441000C471082B00D171E01479250929003031CD
:104420009F2C5FD80172092B68D00F2121400C000E
:104430003034092958D844720A2B5FD054792509A1
:10444000290030319F2C52D881720B2B56D00F216E
:1044500021400C00303409294BD8C4720C2B4DD0AC
:1044600094792509290030319F2C00D90731017337
:104470000D2B43D00F2121400C003034092901D9E4
:1044800037310C0044730E2B38D0D1790C0922003F
:1044900030329F2900D9073282730F2B2ED00F2282
:1044A0000A4011003731092A01D830321100C17396
:1044B000102B23D010300023037030BD07345AE78F
:1044C00037310C0063E707316CE737310C0074E7D4
:1044D00007317DE737310C0085E707318EE737314B
:1044E0000C0095E707319DE737310C00A3E7073152
:1044F000AAE737310C00C4720C2BB1D1C018DAE72F
:104500003029002010B588B004000D220021684633
:10451000FFF770FA0D22002104A8FFF76BFA4B2376
:104520006A466846137004A90D2202F01DFF15218A
:10453000082220006944FFF763FA08B010BDC046A6
:10454000F8B500F03BF90C23184DFF22AB670520AE
:104550001749FDF78BFA174C402200212000FFF786
:1045600049FA4027002301262121134A6670278338
:10457000A260136063545F316184453963540F4A0C
:104580000F496360E2602787A1620B606362E262A9
:1045900002F012FF80239B052E64EB649023094AEE
:1045A000EA508022084B5202DA64F8BD0000115034
:1045B000A1040020002500208400105000011050AC
:1045C0008000105010D001000020115010B50121C2
:1045D0000520FDF7E5F910BD10B5002200210248C5
:1045E00000F00CF910BDC04620250020044B1970C6
:1045F000002904D080219023024A8902D1507047BB
:104600005E290020002011500B785B0602D14B7808
:10461000052B00D070478A78014B1A60FAE7C04634
:1046200000001150F0B5C64600B5CC7888780A79FC
:104630004B797F21A40701401B02C50913434F009A
:10464000A20F1400324E7A195201B2189070012054
:104650006840507000205B055B0DD0701383D476EA
:104660008046CA00012D33D02A488446880162441E
:104670008446B4446046826040461060002933D0CE
:10468000254AC90090466246414451603F223F336B
:104690009343022C00D15B0020487A190168520133
:1046A000B218D1601E4ACB18036051405A40802393
:1046B00088465B019A4228D84346A4061C438023BF
:1046C0007F197F01F61972681B062343136011E0FE
:1046D00014488446880162448446B4446046826239
:1046E00040461060002909D100236D0175196B60E7
:1046F0000D4BEB60012080BCB846F0BD084AC900F4
:104700009046624641445162C0E7FEF77BFAD3E728
:1047100000250020840010500400105008290020BB
:1047200000001050800010500001105010B502F031
:1047300043FE10BD10B57F200C0020404000E4096E
:10474000110000191A00034B4001C01800F056F880
:10475000012010BD002500207F23180010B508405F
:10476000CA090B4203D107497D3B9B1A8B66400067
:1047700080188022044B40010021C018120102F071
:104780004BFE10BD00201150002500207F22130099
:1047900010B50B400A4200D110BDC9095B005B187F
:1047A00004485B01C018002300220349C37002F0D3
:1047B00033FEF1E700250020FFF7FFFF80220A4BC0
:1047C000520410B51A60094B09491A6010000B68B1
:1047D0009843FBD18022002152010648FFF70AF9D5
:1047E0000922054B5A6710BD00E0004000F0004070
:1047F00008C000400000105000001150002310B508
:10480000C3820133828283760161040002F0F4FDE9
:10481000002804D080219023074A8902D15020002B
:1048200002F0F2FD002802D00123237710BD200002
:1048300002F0DAFDFAE7C046002011507047C0468A
:104840007047C04600207047002070477047C04640
:104850007047C0467047C0467047C046024B587804
:10486000431E9841C0B27047981F0020024B187831
:104870004007C00F7047C046981F0020F8B5474654
:10488000CE4680B52B4F06003B78FF2B04D001208D
:10489000C0BCB946B046F8BD002154222648FFF7F7
:1048A000A9F80022254C264B20001A70FDF762FB68
:1048B000244B1C60244C2000143CFDF769FB2000B5
:1048C00001F0F2FD214B224D1C60224B002B27D022
:1048D0002800FFF7CBFA204B2A7818601F490024E4
:1048E00089461D490023884610E043461B68620143
:1048F0009B18002B12D05B68002B0FD098472A78AA
:104900000134E4B2511C2300A1420BDBA242ECD8DB
:104910009B1A5B014B445B68002BEFD10020B7E78B
:104920002A78DBE730003E70FFF70AFE3000FFF721
:104930004DFEACE764100020981F0020501F00209F
:104940005F290020EC1F00205C100020F01F0020D9
:104950005D2900206D3E00106C1C0020D0790010F5
:10496000F0B5DE4657464E464546E0B5C84B91B0D9
:1049700002931B78FF2B00D13EE1C64BC64E9B46EF
:104980005F46C64B0DAC0193C54B009335686A6911
:10499000EFF3108172B61368002BFCD0BFF35F8F6A
:1049A000A9612800210001F0ADFB6A69AB69BFF382
:1049B0005F8F0021116083F31088002800D11BE174
:1049C0006378082BE2D89B00FB589F466368002B56
:1049D000DCD0A0689847D9E77F222179AF4D0A4003
:1049E0005300EB189846C8098044404601233030F4
:1049F00005799D430571057903339D430571002AAF
:104A000000D100E14346A74A1B7D1278934200D3B0
:104A1000EFE0A54A5B011568ED18002D00D1EBE031
:104A2000A36862792078AD69A847AFE79F4A1378F9
:104A3000002B00D1E0E01378013BDBB21370137858
:104A4000002BA3D10122954D01212B780420134383
:104A50002B703423EA5C8A43EA54EA5C8243EA54CA
:104A60000133EA5C8A43EA54EA5C8243EA542378DD
:104A700000209B4600F0A0FC602223791A40602AA7
:104A800000D1EFE0402A00D1F5E0DB06DB0E012B80
:104A900000D113E1022B00D1C7E0002B00D0E1E0F0
:104AA000202A00D11CE2002A00D0DBE06379092B28
:104AB00000D9D7E07E4A9B00D3589F46774D2B788C
:104AC000DB0700D462E7FFF7C7FE5FE7019BDB78F7
:104AD000DB0700D45AE76068FFF7B2FE56E76F4D78
:104AE0002B78DB0700D451E728780007C00FFFF7C9
:104AF000B1FE4BE723786A4999468B46694B6A4970
:104B000098468A4639001A7847460023B046002561
:104B10004E46894610E053461B686A019B18002BDD
:104B200000D176E0DB68300098473A780135EDB285
:104B3000511C2B008D4244DC9542ECD39B1A5B0147
:104B40005B44EFE7237858499946564B8A46984686
:104B50003100BB464E461A78002500234746894659
:104B60000FE053461B686A019B18002B55D0DB6889
:104B7000300098473A780135EDB2511C2B008D4238
:104B800007DC9542EDD39B1A009A5B01944663447F
:104B9000EDE7019D542200212800FEF72BFF102293
:104BA000FF214448FEF726FF28002022FF21143071
:104BB0004E465F46FEF71EFF00F0F4FBFFF748FE8F
:104BC000E4E6364D542200212800FEF713FF1022A0
:104BD000FF21281DFEF70EFF28002022FF211430A0
:104BE00046464F46FEF706FF00F0DCFB2379AB702C
:104BF000CCE6501C984213DA11B0F0BCBB46B2466A
:104C0000A946A046F0BDA3686279207800F0E8FBD1
:104C1000BCE646464F46214DE6E74E465F46CBE7AB
:104C20001F4D9B1A5B015D19FAE67023217A0B4236
:104C300018D1C80982460F330B405B0098461948CB
:104C4000EB1853441B7D00789946834266D2164880
:104C50005B01006881469944002A00D15FE14B4620
:104C6000002B68D120780021FFF776FD8021207885
:104C7000FFF772FD8AE6104800F09EFB01215846BE
:104C80000EAAFFF7D9F8002800D07FE6EAE7C04671
:104C90006410002028790010F01F0020981F0020C9
:104CA000D07900105D2900206C1C00205F290020B5
:104CB0004C7900109C1F0020393E0010237A0F2BE6
:104CC000D0D8CF4AEB181B791578AB423ED3691C7C
:104CD0009942C7DB5D1BCB4B6D01ED18686900F095
:104CE0006BFB012158466B690EAA9847002800D03B
:104CF0004CE66022150023791D401A42B2D1637937
:104D00000A3B012BAED800F057FB63790A2B00D188
:104D100099E158460EA900F0D9FA37E6431C4B45F5
:104D200000DAF7E04B461B1A5B019946B54881440F
:104D3000002A00D1F3E04B46586900F03DFB4B469A
:104D4000012158465B690EAA98479CE7AE4A5B0171
:104D50001568ED18002DC1D184E7A37999466B78C9
:104D60009945D6D06B78002B00D033E14B466B7061
:104D7000002B00D12BE148460138C0B2FFF7A6FA5C
:104D8000002800D17EE143780793022B00D079E11F
:104D90000122C179B1468B11491113400A403021DB
:104DA00012015B0113432A78A8468A4313432B70F0
:104DB00009239A4682445646BA46C37882781B0233
:104DC0001343C31805938E4B04938E4B08938E4B5D
:104DD00009938E4B0A93059BB34200D855E1737833
:104DE00001220B2B03D13378F278F6187378042B59
:104DF00000D044E1059B00279B1B9BB20693049BBC
:104E00000B921D78002303931BE0099A7B01156820
:104E1000ED18002D00D132E1310058462B69069A79
:104E200098478446082803D9069A824200D313E1A2
:104E3000049B01371D78FFB26B1C03979F4200DD76
:104E40001DE1BD42E1D8039B5D1B089B6D019C46A3
:104E50006544E1E76B780CAA0232137058460123CF
:104E60000EA900F049FA91E5E3881A0AD8B20F2A90
:104E700000D9F7E666499300CB589F460EA800F08C
:104E8000A1FA5846A179FFF7A7FB02222B7813431A
:104E90002B707BE5E388012B00D0E3E608222B781A
:104EA000584693430EA92B7000F010FA6EE50220CD
:104EB00029780CAB9A1C8B068908DB0F01400B4349
:104EC0001380584602230EA900F016FA5EE5E38827
:104ED000012B00D0C6E608222B7813432B7018E76D
:104EE000237A0F2B00D9BDE6EB181D79444B1B78B4
:104EF0009D4228D2444B6D011B685D19002D00D1E5
:104F0000B0E6686900F058FA012158466B690EAAAC
:104F10009847B8E6002A00D0A4E6002399466279B3
:104F20000220130003928343012B15D0002A00D0E6
:104F300098E62B004344534430331B790CAA9B075B
:104F4000DB0F0232BCE75A1CAA4200DA8AE6ED1AED
:104F50002C4B6D01ED18D4E7E388002B12D1029B96
:104F60001878039B012B23D0FFF7F6FB4346022161
:104F7000EB18534430331A790A4301211A711A7914
:104F80000A431A714B46002B00D1FFE4586900F028
:104F900013FA4B4601215B690EAA58469847002038
:104FA00000F00AFA3523EB5CDB0700D5EEE4B0E64F
:104FB000FFF7ECFB43460221EB18534430331A79D8
:104FC0008A431A711A7903998A431A71DAE7FFF74B
:104FD0003FFC9EE600215846FFF708FB5846FFF7C6
:104FE000A5FBAB78074903930491054B0649984606
:104FF0001A780591002329001D008A461BE0C0464F
:105000005D290020D07900106C1C0020AC1F00200E
:1050100074790010059B6A011B689B18002B4DD00A
:10502000DB685846984743461A780135EDB2511C63
:105030002B008D422EDC9542ECD39B1A049A5B0127
:1050400094466344ECE70CAB9A1C584601230EA926
:10505000157000F051F999E40B9A012A4FD0002AFB
:105060003CD00023B07804E00133DBB20F719342EF
:1050700034D2C118C9B241440D79FF2DF4D04E4647
:105080004546574600236B70ECE54E465746FFF702
:10509000DDFB3EE65546542200212800FEF7AAFC1F
:1050A0001022FF21281DFEF7A5FC28002022FF2149
:1050B0001430FEF79FFC039BAB7057E65546FAE7AA
:1050C000FEF7B6FE021E00D1CCE5D37891781B0224
:1050D0000B4358460EA900F00FF9D4E565463B0096
:1050E0002A0031000A9800F07DFEAC46049B039A2A
:1050F0001B7866440133934200DB6CE6BFE7174B35
:1051000029699942ADD1079AABE7FFF79BFB021ED5
:1051100000D1A7E5584613780EA900F0EDF8B2E5E6
:105120002189FFF7D7F8021EF4D19BE5022A0FD0A0
:10513000FFF78AFB021EC8D194E5FFF7C3F8021EF1
:1051400000D18FE5122358460EA900F0D5F89AE554
:10515000FFF7BCF8021EB8D184E5C046D557001051
:10516000F8B557464E46DE4645460C00E0B51600FB
:105170001F00002A3CD01F4B00259A4670239946F9
:105180001D4B9B4617E05B462000997800F0ECFD34
:1051900000281FD021004046FFF744FA002819D00C
:1051A000A378DA09012A1CD00A9A013513702378F2
:1051B000E418B5421CDA6378052B0BD1E3789B0722
:1051C0009B0FBB4206D153464A461B789846A378AC
:1051D0001A42D8D00020F0BCBB46B246A946A04631
:1051E000F8BD0B9A013513702378E418B542E2DB61
:1051F0000120F0E764100020981F0020702270B595
:10520000094B0C001D788B781A4201D0002070BD2C
:10521000064B2000997800F0A7FD0028F6D0210069
:105220002800FFF7FFF9F2E764100020981F002024
:105230000B007F2010B51840DB0934334000044ACE
:10524000C018044B1168C01800F04AFD10BDC046DC
:10525000EC1F0020981F00200B007F2010B5184085
:10526000DB0934334000044AC018044B1168C018ED
:1052700000F05EFD10BDC046EC1F0020981F00200E
:1052800070B57F240F480C4064000419CD096419DF
:1052900030342079C00701D5002070BD0126257962
:1052A0000948354300782571FFF744FA0028F4D106
:1052B000012223799343237123790332934323718A
:1052C000EAE7C046981F00206410002070B5094C22
:1052D0000600082220000D00FEF792FB002380212B
:1052E000E360A3602B783000994300220023FFF78E
:1052F000C7FF70BD3C1F0020F8B5CE46474690461C
:10530000264E80B58146082230000D001F00FEF7B2
:1053100077FB4346B3600023F381EC79AB79240239
:105320001C43231CBC4200D93B1C9FB2B381002C00
:105330000ED0002F18D04346002B2CD03B1C402F02
:105340001BD89FB233787F2B1CD80021144A0FE062
:1053500080212B780022994348460023FFF790FFD5
:10536000C0BCB946B046F8BD7F23002231789943CE
:105370003B004846FFF784FFF2E740239FB23378B3
:105380007F2BE2D9064C3A0041462000FEF738FB5D
:1053900080212200ECE70020E2E7C0463C1F00200D
:1053A000581F002010B5142200210248FEF722FBEE
:1053B00010BDC0463C1F0020014B18617047C0461D
:1053C0003C1F002010B5054C010008222000FEF70C
:1053D00017FB0023A360E36010BDC0463C1F002004
:1053E00070B5384C1D0023780600DA09C9098A42D5
:1053F00010D00020002D00D070BD21003000FFF73C
:1054000003F92369002B03D02200032130009847C1
:105410000120F1E7A0687F2B05D8002834D02A00AE
:105420002949FEF7EDFAE289A1685219E38892B2A0
:105430004919E281A160934214D03F2D12D9A3896A
:10544000981A051C80B240282AD82078ADB27F284F
:1054500028D800219A4232D01B4A2B003000FFF797
:105460000FFFC9E72369002B05D02200022130007D
:10547000984700280AD080212378002299433000E1
:105480000023FFF7FDFEB7E70020B5E7002130005D
:10549000FFF762F930008021FFF75EF90120ABE7EA
:1054A0004025D2E79A4207D0074C2A002000FEF799
:1054B000A7FA80212200D0E780210022CDE7002238
:1054C000CBE7C0463C1F0020581F002070B50400E9
:1054D000FFF7C4F9002800D170BDFFF7C7F9002815
:1054E000FAD1E378002BF7D025001035280000F022
:1054F000F3FD3F28F0D90020E178FFF799FE00285E
:10550000EAD0280000F0E8FD3F2808D992239B004C
:10551000E218E17840230020FFF7B2FEDCE7E178F3
:105520000020FFF799FED7E710B50400FFF796F9C2
:10553000002801D1002010BDFFF798F90028F9D10B
:10554000B22292006243034B01309B181B79184032
:10555000F1E7C046741C0020B2239B00434310B502
:105560000248181800F09AFD10BDC046841C0020A7
:10557000F0B5B226B60046433500C6468023204F1C
:105580001035040000B57D195B029A4200D31D4A14
:10559000280092B200F004FE8046FFF75FF9002871
:1055A00003D1404680BCB846F0BDFFF75FF9002844
:1055B000F7D1B2239B005C433C19E378002BF0D079
:1055C000280000F089FD3F28EBD90020E178FFF7A3
:1055D0002FFE0028E5D0280000F07EFD3F280AD9E4
:1055E00092239B009C4666444023E178BA19002030
:1055F000FFF746FED5E7E1780020FFF72DFED0E764
:10560000741C0020FFFF0000F8B50400FFF726F926
:10561000002801D10020F8BDFFF728F90028F9D1B2
:10562000B2239B005C432500144E2435AD1928009D
:1056300000F034FD0028EDD037190020B978FFF7CD
:10564000F7FD0028E6D0A2239B009C466444A419E1
:1056500021002800402200F0A3FDB978051E08D0E3
:10566000030022000020FFF70BFE0028D2D0280004
:10567000D1E70020FFF7F0FDCCE7C046741C002006
:1056800070B5B224A40044430B4B0500E4188023FA
:105690005B029A4200D3094A200092B200F048FE11
:1056A0000600200000F0FAFC3F2801D8300070BD51
:1056B0002800FFF7A9FFF9E7981C0020FFFF000072
:1056C000B2239B00434310B50248181800F004FDB4
:1056D00010BDC046981C0020B222F0B500251B4C1E
:1056E00083B0002120009200FEF784F9184B802639
:1056F0001D70FF236371E1235B02A3602100082377
:1057000020007600A373320038310095073B10303B
:1057100000F08EFC21000123200039313200FF31DE
:105720000093243000F084FC8E239B00E71838009F
:10573000FCF720FC90239B00E6183000FCF71AFCD5
:10574000E56127622663656303B0F0BD741C002029
:10575000701C00200B4B196B00290AD01A6A002A12
:105760000DD000221A621A63DA6100225A63012006
:1057700070471A6A002AFAD0D9611962F7E71A63EA
:10578000F3E7C046741C002070B50F4C05220021C1
:105790002000FEF72FF90D4D2B78DA0707D50C4CBA
:1057A0009B070CD50121200000F09EFE70BD20005B
:1057B000103000F079FE2B78054C9B07F2D42000C6
:1057C00000F072FEEEE7C046741C0020701C002042
:1057D000981C0020F0B5C64600B54B79060082B093
:1057E000022B02D18B79022B05D00025280002B0B4
:1057F00080BCB846F0BD214FBB78002BF5D18B782B
:1058000009253B700C780C196378242B0BD1082ADE
:1058100002D821E0AA421FD32378E4185D196378E7
:10582000ADB2242BF6D0052B1AD0042B14D16379FA
:105830000A2B11D1237821009846114B02220193A3
:1058400001330093300002234144FFF789FC002814
:10585000CBD00E354544ADB23800FFF737FEC5E773
:1058600021003000FFF7CAFC0028BED0A3787B706F
:1058700023785D19E4186378ADB2D6E7741C002074
:10588000761C0020F8B56023140012780500134040
:105890000020202B12D12F4A6379277916781B021A
:1058A0003B439E420AD16378222B1AD007D8202B83
:1058B0003CD0212B02D1012930D00120F8BD232B6F
:1058C000FCD1012940D00329F7D1234B002BF4D080
:1058D000E178A37809020020194300E000BF01200D
:1058E000ECE7012930D00329E7D101252E00A37868
:1058F000E478023924021C4314712640243210003B
:10590000714000F0F1FD154B002BD6D0620800204D
:1059100031002A4000E000BF0120CFE7072321002B
:1059200028000F4AFFF7E8FC0120C7E70129F5D05E
:105930000329C2D10B4B002BBFD00832002011002D
:10594000FEF79AFA0120B9E721002800FFF7BEFC14
:105950000120B3E7741C00200000000000000000DC
:105960007C1C0020793E0010F0B54F464646D646D6
:10597000374DC0B5EA781F0080460C00AB788A42EC
:105980003BD08B4210D00020E0BCBA46B146A846BE
:10599000F0BD304B002B04D02F4800F095FB0028C1
:1059A00053D02800FFF792FDAB78A34201D001202D
:1059B000EAE72A4B002B02D0002000E000BF0020C5
:1059C000FFF722FE0028F2D1254C200000F066FBF4
:1059D0000028ECD1002FEAD0BF06E8D1243C404695
:1059E000A178FFF725FC0028E1D0002300224046E3
:1059F000A178FFF745FC0120C6E792239B00EE1833
:105A000010239A46AA4431005046BAB200F090FCE6
:105A1000144B002BBDD06B79FF2BBAD0002FB8D020
:105A2000F219914603E00136B145B2D06B79327874
:105A30009A42F8D1504600F047FB0028F3D1534674
:105A4000103B597900E000BFEDE700E000BFA8E798
:105A5000741C002000000000841C002000000000D6
:105A6000981C002000000000B32270B5144C84B0D4
:105A7000002120009200FDF7BDFF231D02932300AB
:105A8000200080254026CD336D00FF33A9300093E0
:105A900000220023002103960195FF3000F0BCF99D
:105AA000230020004433A834029301220023002164
:105AB000039601950094843000F0AEF904B070BDF7
:105AC000B420002010B5054C200000F0DBF92000C8
:105AD0002538FF3800F0D6F9012010BD5C220020E7
