:020000041000EA
:1000000000B5324B212058609868022188439860DF
:10001000D860186158612E4B002199600221596106
:100020000121F02299502B49196001219960352056
:1000300000F044F80222904214D00621196600F024
:1000400034F8196E01211966002018661A6600F04E
:100050002CF8196E196E196E052000F02FF8012189
:100060000842F9D1002199601B49196000215960AB
:100070001A491B48016001219960EB211966A021F2
:10008000196600F012F800219960164914480160C1
:100090000121996001BC002800D000471248134993
:1000A000086003C880F30888084703B5996A0420EC
:1000B0000142FBD001200142F8D103BD02B5186610
:1000C0001866FFF7F2FF186E186E02BD00000240BE
:1000D000000000180000070000035F00212200005C
:1000E000F4000018222000A00001001008ED00E03C
:1000F00000000000000000000000000074B24E7A12
:1001000000200420F7010010C3010010C5010010F9
:10011000C1010010C1010010C1010010C101001097
:10012000C1010010C1010010C1010010C701001081
:10013000C1010010C1010010C9010010CB01001065
:10014000CD010010CD010010CD010010CD01001037
:10015000CD010010CD010010CD010010CD01001027
:10016000CD010010CD010010CD010010CD01001017
:10017000CD010010CD010010CD010010CD01001007
:10018000CD010010CD010010CD010010CD010010F7
:10019000CD010010CD010010CD010010CD010010E7
:1001A000CD010010CD010010CD010010CD010010D7
:1001B000CD010010CD010010CD010010CD010010C7
:1001C00000BE00BE00BE00BE00BE00BEEFF3058054
:1001D000103800BEF2EB88715C1F05107C1F051003
:1001E0003802001090A31AE71E481F49086006C88D
:1001F00081F3088810471D480068002801D019487D
:10020000F3E70DA40ECC002902D000F012F8F9E7B4
:100210001749184A002000E001C19142FCD116495B
:100220008847164988471649884700BEFDE701C937
:1002300001C29A42FBD370477C1F0510E0000020EA
:10024000801200201C310510000004200000042052
:100250001C310510001004200010042000000000D4
:10026000704700000000000008ED00E0000000D032
:100270008012002064DE0020B93C00102103001031
:10028000B13C0010F8B5C0460448054B10B5834298
:1002900003D0044B002B00D0984710BD80120020E3
:1002A000801200200000000006480749091A8B1040
:1002B000C90FC91810B5491003D0044B002B00D04A
:1002C000984710BD8012002080120020000000001E
:1002D00010B5074C2378002B09D1FFF7D5FF054B4C
:1002E000002B02D0044800E000BF0123237010BDA2
:1002F0005815002000000000A87F0110054B10B524
:10030000002B03D00449054800E000BFFFF7CCFFF5
:1003100010BDC046000000005C150020A87F011041
:1003200030B585B003F0FAFD0D490E4800F02AF80B
:100330000D4B0E4A0E490F4800F06CF80E4C2A2364
:1003400004226946200000F0BFF80C4D280004226A
:10035000210000F09BF80A4801F06AF9F6E7C04670
:10036000A87F0110B47F0110C47F0110D07F01105D
:10037000D87F0110E87F0110F07F0110F87F011095
:100380008813000070B504000D0011F0EDF900288D
:1003900011D111F085F929002000094B094A11F00B
:1003A0008DF9002803D1084803F008FE70BD074806
:1003B00003F004FEFAE7064803F000FEF6E7C04645
:1003C0003075000004004000408001102C800110B6
:1003D00014800110110010B5002A03D1034803F066
:1003E000EDFD10BD024803F071FEFAE754800110E4
:1003F0007C80011010B5002903D1044803F0DEFD14
:1004000010BD034803F062FEFAE7C046A880011061
:10041000D0800110F0B5C64600B58AB007000800CC
:1004200002A990461E0010F01BFF00281CD016F0F9
:10043000FDFF114B041E18601AD01022002106A8DF
:1004400002F07AF84346002203AD049300922000A4
:100450000A4B0B4A019502A90397059616F0EEFF89
:100460000AB080BCB846F0BD064803F0A7FDF7E728
:10047000054803F0A3FDF3E758200020D503001042
:100480005B070000F0800110FC80011093B20B4A62
:1004900030B5040010680022094D85B00392019226
:1004A000009202950A00210016F022FE011E01D1E1
:1004B00005B030BD034803F009FEF9E758200020DD
:1004C000F50300101C810110F0B5002A2BD0541E3A
:1004D000052C29D90C000443A40725D1441C0C1B6E
:1004E000022C21D91C0227001D041F431C062F4388
:1004F000274300249608B60005597D400D51043469
:10050000A642F9D1B2420ED0845D5C408C55741C79
:10051000A24208D9055D02365D400D55B24202D9AE
:10052000825D53408B55F0BD0024055D5D400D5547
:100530000134A242F9D1F6E7094A83009A1810B5AE
:1005400014684022544080322240064CC000A44629
:1005500063441A60044B9C466044416010BDC04631
:1005600004C0014004D0014000400140074B80001E
:10057000C3181B68C90092000A435A400C23134059
:10058000034A9446604403607047C04604C001407B
:1005900004D001408000002905D0064B9C46022370
:1005A000604403607047044B9C4602236044036030
:1005B000F8E7C04604E0014004F00140D0231B06E8
:1005C0001B6830B50500584243412F205B428343EE
:1005D0000E48EC0884460720284080008140200017
:1005E0000B4D3C3063448000A40041511B19002A8C
:1005F00005D08022920194466344196030BDC02228
:100600009201944663441960F8E7C04630410140C6
:1006100000400140D023F0B5C6461B0698461B6833
:100620000C4F9B001600FA5804000D0000B5104254
:1006300009D1290014430D203200FC5000F0A0F92C
:1006400080BCB846F0BD01F0A3FA43461B689B008E
:10065000FA58EEE7CCDC002010B504000D2000F0C5
:1006600089FAD0231B061B6802499B005A58A243F3
:100670005A5010BDCCDC00200123D022834012064A
:1006800093629361094A83009A181168402251408D
:1006900080320A400649C0008C4663441A60054B0C
:1006A0009C460523604443607047C04604C0014037
:1006B00004D00140004001408023DB051868000F92
:1006C0007047C0460FB400B5084883B003F076FC0D
:1006D000049B002B07D005A91800019103F0CEFA66
:1006E000034803F06BFC012003F0E0FA44810110A1
:1006F000849D0110EFF3108072B6034A1368002B3B
:10070000FCD0BFF35F8F70472C0100D0BFF35F8F29
:100710000022024B1A6080F3108870472C0100D031
:1007200070B5EFF3108C72B60D4D2B68002BFCD01A
:10073000BFF35F8F0724CB08C618C05C01230C40B1
:10074000A3401C000440034207D118433070BFF39C
:100750005F8F2C608CF3108870BD1000FFF7B2FF24
:100760002C0100D0F8B54746CE46884680B5EFF359
:10077000108C72B6214D2C68002CFCD0BFF35F8F1B
:100780009A422CD8D4080727055D06190124174082
:10079000BC402C421FD007210127894609E0D4081C
:1007A000055D06194C4639001440A1400C00294251
:1007B00011D001329342F2D201204042BFF35F8F49
:1007C00000220E4B1A608CF3108800280FDBC0BC8F
:1007D000B946B046F8BD254310003570EEE7BFF3CB
:1007E0005F8F00232B608CF310880120404243462A
:1007F000002BECD00898FFF765FFC0462C0100D015
:1008000030B5EFF3108C72B60A4C2368002BFCD085
:10081000BFF35F8F072301220B409A40CD08435D51
:1008200093434355BFF35F8F002323608CF31088FD
:1008300030BDC0462C0100D0044A1078431CDBB206
:10084000172B00D9102313707047C0465011002099
:1008500010B5064B064C82B00100009318221F23EE
:100860002000FFF77FFF02B010BDC0465481011089
:100870004C2000200021044B044ABFF35F8F02C3C9
:100880009342FAD17047C046000100D0800100D0E9
:10089000054B064A1360064A136053609360D360A9
:1008A00013615361936170478080808000E400E0B1
:1008B00004E400E01F2318401E3B8340002905D0BC
:1008C000C021044A490053501360704780220149F7
:1008D0008B50FAE700E100E001228240034B1B68E5
:1008E00013405A1E9341D8B27047C04600E100E061
:1008F00001238340014A13607047C04600E200E0D4
:10090000084B10309B688000C358002B07D0064A64
:1009100000209B1A2F229A424041C0B2704700200B
:10092000FCE7C04600ED00E05411002070B50D005A
:10093000EFF3108672B60F4A1368002BFCD0BFF39A
:100940005F8F0D4B10309B6884001B590B4A9342FC
:1009500003D09D4201D001F01BF9074B9B681D514C
:10096000BFF35F8FBFF35F8F0022024B1A6086F3E5
:10097000108870BD240100D000ED00E0CD01001012
:10098000F0B557464E46DE464546E0B585B0060012
:1009900000911700EFF3108B72B66A4A1368002BB0
:1009A000FCD0BFF35F8F0025674B5D579A46002D43
:1009B00000DAA9E06B00654C01935B199B00984637
:1009C000A146C1444B4652469B7910361370604B8A
:1009D000B6009B6899590B1B2F2B33D95D4B99425D
:1009E00000D0ACE0019B42469C465B4B6544AD00A9
:1009F00063535A4B0232A218043B9B1A1B05584AF8
:100A00005B0D651913436B80564B0121AB80FF23AF
:100A1000AB71009BEF71AB604B460B4319004C4B25
:100A20009B689951BFF35F8FBFF35F8F0022454BE7
:100A30001A608BF3108805B0F0BCBB46B246A946DD
:100A4000A046F0BD01200A008243D3798C46BB4208
:100A500031D84546130044491B1B5B415943090DDE
:100A60003D4B63533D4B02356519043B5B1B1B0536
:100A70003B4D5B0D2B43AA464D466B800425AC468F
:100A80005546E044131F44441B1B1B055B0D1D43CF
:100A90004B46997100999D8099604946DF71334BAF
:100AA00001431360BBE75800C01880002018C179CB
:100AB000B9422FD902000623D356002BF3DA029352
:100AC0002B4B61460393131D9A4604235B429C46BD
:100AD000E14450464B461B1A1B055B0D9C46204BC0
:100AE000957198466346404603439380019B5A198B
:100AF0009200039BA418A380029B1C4AA371009B35
:100B00002260E771A3608AE701F042F800255346AE
:100B10005D574FE7908802934005131D9A460315D1
:100B200061469C464046D444634604302018181A57
:100B3000E0230005400D1B0218430390C5E701F0B8
:100B400027F84FE7240100D058DE00205411002080
:100B500000ED00E0CD01001000A1FFFF8411002096
:100B600000E0FFFF01BDFFFFAAAA00000148804787
:100B700001BD0000F0B5DE4657464E464546E0B59D
:100B80000C0083B0EFF3108872B6634A1368002B31
:100B9000FCD0BFF35F8F614B61499A68030010334B
:100BA0009F00D55900938D4243D0A54254D05D4E4D
:100BB000AA1B2F2A3DD85C4B9C461B689A460123F2
:100BC0001A0099468240534613401F2201934B4618
:100BD000024093409A468022634650469850BFF3A5
:100BE0005F8FEFF305839B46002B37D0009B5B455F
:100BF00001D000F0CDFF2A004B469A439068844212
:100C000008D177E04B005B189B00F318986884428A
:100C100036D01A00062151560029F3DA844255D005
:100C2000019B002B27D0C02251463F4B52009950C8
:100C300019603A4B9B68DD51BFF35F8FBFF35F8F45
:100C40000022354B1A6088F3108803B0F0BCBB4615
:100C5000B246A946A046F0BD0D00EAE72A004B4681
:100C60009A4390688442D5D106201056130000287C
:100C70000ADA0D0032E0802351462B4AD150D8E7E2
:100C800006201856002822DB42001118890074182B
:100C90008946A1689960E179D971062161569971F7
:100CA000002925DBA488F11A640524154C44091990
:100CB000E0240905490D24022143998013181B4A99
:100CC0009B001178F31899711070A9E71300594629
:100CD000002914D1FF3191711549918013490A7887
:100CE0009A71144A9B1B5B415A43120D0A7097E795
:100CF0001149E2E70620105613000028C4DA0F4A13
:100D00000F49D21A083A5002400D014399800D490B
:100D100052080A43DA8083E7240100D000ED00E0A6
:100D2000CD0100105411002000E100E058DE002049
:100D300001BDFFFFAAAA000001BD00008E11002026
:100D400000F0FFFF00F8FFFF10B583080400032048
:100D50002040FF24054AC0009446844081409B0007
:100D600063441A68A2430A431A6010BD00E400E01D
:100D700070B501240443EFF30581EFF3108C72B6D4
:100D8000214A1368002BFCD0BFF35F8F1F4B050077
:100D90001F4AED1A6D416A43120D1E4D8900AE685F
:100DA00052B27658A6421CD00621595691421CD008
:100DB00012215956914222D01E215956914220D0DB
:100DC0002A2159560324914210D0134B19781A70D6
:100DD0008171BFF35F8F00220B4B1A608CF3108878
:100DE00070BDAB680D4C5C50EFE700246100091941
:100DF00089005B18FF21997109499980E5E7012471
:100E0000F4E70224F2E7C046240100D05411002088
:100E1000AAAA000000ED00E058DE0020CD0100107D
:100E200001BDFFFF1F2110B5091A0248FFF7E8FCBA
:100E300010BDC04663DE002010B5084B084C82B0E0
:100E400001000093002205232000FFF78BFC0028FF
:100E500001DB1F23181A02B010BDC04670810110BB
:100E600063DE002070B504000E001500FFF7E4FCFF
:100E70000100200000F006F8A680E580BFF35F8F38
:100E800070BDC046024B9C466144890001607047BA
:100E90004000003470B5114C114DAC420FD2FF260A
:100EA0002368002B0CD0FFF7C7FC01002000FFF7E0
:100EB000E9FFA680BFF35F8F0834AC42F0D370BD6A
:100EC000FFF7BAFC01002000FFF7DCFF2671BFF33B
:100ED0005F8F0834AC42E3D3F1E7C04678120020BC
:100EE0008012002010B50400FFF7A6FC01002000CE
:100EF000FFF7C8FFFF232371BFF35F8F10BDC0460C
:100F000010B50400FFF798FC01002000FFF7BAFFBE
:100F1000FF23A380BFF35F8F10BDC04610B5040050
:100F20000120FFF795FC034BC3189B002360BFF320
:100F30005F8F10BD40000034034B9C466144890024
:100F40000160BFF35F8F7047400000340A4B19689F
:100F5000EFF3108072B60A68002AFCD0BFF35F8FEF
:100F60001B68BFF35F8F00221A6080F3108840BFB8
:100F7000002000217047C046F0DD0020F0B5DE46BD
:100F800057464E464546E0B583B0EFF3058203234E
:100F90001340B54A990052580091904601229A4058
:100FA000B24B93461A60B24B01932EE043469B88A6
:100FB0001BB2002B00DB99E043469B79002B00D04D
:100FC000DDE0434608241C5F002C00DA06E14346BE
:100FD0005A6963001B19DB00D3189D68DC686B1C21
:100FE00000D107E1A34B00999C4661449A6A0B69C2
:100FF000A81A9B1A984200D20D619E4800F0AEFBE1
:101000008C4200DDEAE000D126E15B46994843636B
:10101000434608229B5E9946002BC7DB4246526935
:101020005B0092464B44DB009A4453469E68DF685F
:1010300000F094FB8F42B9DC00D100E1002F00DA10
:10104000E1E05246534654691B69019A934200D12C
:10105000D4E0414652460820085E52880004210030
:101060001043984704000D0023002B4300D1CAE031
:10107000002D00DBE7E030003900001BA94153469A
:101080009860D96000229A5E002A8FDB43465D6932
:1010900053009C18E4002C19A768E4688C4200DD1A
:1010A00084E702D1874200D980E74646328108367C
:1010B0000DE08C4200D1D3E01E000023F25E002A36
:1010C0000ADB53009C18E4002C19A768E4689B18FD
:1010D000DB00EB188C42ECDD53461A804B46338024
:1010E00043469B881BB2002B00DA65E743461A692A
:1010F000EFF3108172B61368002BFCD0BFF35F8F43
:1011000043469E88012342465B42938036B2136970
:10111000BFF35F8F00221A6081F31088002E00DA7F
:101120004AE743465D69083342469C467700BF194B
:10113000FF00EF19BB68604698460823D15E9246CF
:10114000FC68002907DA0EE0A2424FD01800002305
:10115000C15E002906DB4B005B18DB00EB18DA6888
:10116000A242F1DD524606800023FE5E3980002E49
:10117000DCDA904643469B79002B00D121E700231F
:1011800042469371434646460821595E08364B1C39
:1011900024D047468946556902E006004B1C18D00A
:1011A0004B005B18DB00E8180A008C46E95E4388B8
:1011B0001BB2002BF1DA01235B42DC178360C460B1
:1011C0004A4503D031803B8903803A81E1464B1C7C
:1011D000E6D14C46B846002C00DBF8E640BF03B031
:1011E000F0BCBB46B246A946A046F0BD9A6842454F
:1011F000ACD9B7E7631C00D0F4E6FEE62000236913
:101200009847002825D1534642461B88138112690E
:10121000EFF3108372B611680029FCD0BFF35F8F23
:101220004246514652880A804246494651801269D8
:10123000BFF35F8F0021116083F31088B6E686420A
:1012400000D8FBE6B2E60B4800F088FA00196941C5
:1012500015E76568246807E7854200D8D5E6BDE74D
:10126000874200D828E737E700CD00203C700540D2
:101270007D0F00100040054070B52E4C2569002DF3
:1012800004D00A212C48FFF7FDFD70BD2B4E032131
:10129000300000F059FAE660FFF7CEFA284B03223F
:1012A0009C46D02322701B061B6801216370254BCE
:1012B0006044A3600F238000206102206380636983
:1012C0004942A18019800231198647311D83585245
:1012D00018315A5275325C3999521832013199528B
:1012E00018320131995218320131995208351832A9
:1012F0009D520231183299521832013199521832E6
:1013000001319952183201319952183201319952F2
:101310001832013199520C4B0C49DC6001303562B6
:10132000FFF704FB01210320FFF7C4FA084B1D60FF
:10133000A7E7C0469C110020F0DD002000400540DA
:1013400040000034FFFF100000CD00207D0F001092
:1013500038600540004870479C110020F8B51F0018
:1013600008AB1B7804001600002B08D100F0FEF932
:1013700032003B00121A8B41002B00DA53E0226945
:10138000EFF3108072B61368002BFCD0BFF35F8FB1
:101390000223E15E63694A005218D2009B180029BB
:1013A00037DB1A8862802269BFF35F8F00251560E2
:1013B00080F31088069A9E60DF601A61079A5A616E
:1013C0005A8801325204520C101C002A1FD082B2DB
:1013D0005880080410432669EFF3108772B632680C
:1013E000002AFCD0BFF35F8FA2881A80A1802369F6
:1013F000BFF35F8F00221A6087F310880B492378B0
:101400008C4601329A40E36863441A60F8BD0120BB
:10141000DDE72369BFF35F8F00221A6080F3108835
:1014200001204042F2E70020F0E7C0463C200000E7
:1014300070B501000469EFF3108C72B620680028C3
:10144000FCD0BFF35F8F02200D5E4C69680040192D
:10145000C0002418002D37DB208848800869BFF3BE
:101460005F8F002606608CF31088E3606388049821
:10147000013320615B0405985B0CA26060611A1C5B
:10148000002B1FD093B22804628018430A69EFF33F
:10149000108C72B61368002BFCD0BFF35F8F8B8863
:1014A00023808D800B69BFF35F8F00221A608CF35D
:1014B00010880B7801329A40CB6808498C46634407
:1014C0001A6070BD0122DDE70B69BFF35F8F002258
:1014D0001A608CF3108801204042F2E73C200000A3
:1014E00010B543890A1493421ADD53009B184269D0
:1014F000DB00D3180469EFF3108C72B62268002A5F
:10150000FCD0BFF35F8F5A88090494B2090C8A4259
:1015100008D00369BFF35F8F00221A608CF3108834
:10152000002010BD8022120214435C800123026956
:101530008371BFF35F8F002111608CF31088044921
:1015400002788C469340C268012062441360E8E749
:101550003C20000040787047F0B504000D000626DE
:101560007642F717C64636196F4100B582B08F42F2
:1015700014D811D000F0FAF832003B00121A8B4157
:10158000002B17DC002B47D02000290000F0F8F8D2
:1015900002B080BCB846F0BD8642EBD900220023E1
:1015A00016001F0000F0E2F832003B00121A8B41D7
:1015B000002BE7DD00F0DAF832003B00121A8B4115
:1015C000002B0ADB00230193154B320000931548D2
:1015D0003B00FFF72DFF0028D6DB00239C46B046DA
:1015E000114A124E736A9F4204D8B16A8845CBD91A
:1015F0009F42C9D11168EFF3108072B60B68002BBF
:10160000FCD0BFF35F8F1368BFF35F8F6146196033
:1016100080F3108820BFE5E7002AB5D0CAE7C046AE
:101620004D0F00109C110020F0DD0020004005400F
:1016300070B5060000F09AF8FA2204000D000023AD
:1016400030000021920000F021FF80230019694141
:101650001B06994202D3012002494042FFF77CFF5A
:1016600070BDC046FFFFFF7FF0B5CE46474680B550
:1016700004000D0083B0EFF305878846002F3ED1AC
:101680002E4EA1463378F06804339B00816A1B58C4
:10169000601A5B1A98420ED320BF294900204B6A7A
:1016A000AB4203D38A6A0130944231D803B0C0BC44
:1016B000B946B046F0BD00F059F822002B00121ACE
:1016C0008B41002B2FDB1F4B2200009330002B009F
:1016D0000197FFF7ADFE011E25DD194B5A6AAA429C
:1016E0001BD220BF3000FFF7FBFE154A0020536AD3
:1016F0004345DBD3926A01309145D7D908E01049C0
:1017000000204B6AAB42D1D38A6A0130A242CDD2CB
:101710005B1B5A1E9341D8B2C8E79B6A9C42E1D931
:10172000AA42DFD1DDE7064A0020536A4345BDD314
:10173000926A01209145B9D9EAE7C0469C11002080
:10174000004005404D0F001010B5024A0248FEF758
:10175000E7FF10BD8C810110502000200300416A7A
:101760000A00986A596A8A42FAD17047034B596A4B
:101770000A00986A596A9142FAD1704700400540C0
:10178000064A536A9942FCD807D1044B02E05A6AD0
:10179000914202D19A6A8242F9D3704700400540D3
:1017A000F8B5DE464E4657464546E0B58B46050041
:1017B0000A991800160000F0F7FA0A9B6C001F0245
:1017C000324B64199C46A4006444636881469F427E
:1017D00000D967602B1FDBB29846012B30D9C0239C
:1017E00080229B01E31812011A60294BAD00595960
:1017F0009A4600291BD17301E026226853401E40FF
:10180000802342465B01E3181E60012A30D9802301
:1018100080229B01E31812011A6053464A46676012
:101820005A51F0BCBB46B246A946A046F8BD58691D
:1018300000F0BAFA013043001B18033BFDD2DAE78F
:101840005B46012BCBD1C02303229B01E3181A6016
:10185000023AA3681A42FCD07301E0262268AD0068
:1018600053401E4080230A4A5B019246E3181E60E3
:101870005A462168514003220A401A6001225B4601
:101880009A40A3681A42FCD0C1E7C04600800040DD
:101890005C200020F0B546464F46D646C0B51F0036
:1018A000344B44009C462418A40064446368884672
:1018B0001600FF2B02D880235B006360031FDBB29E
:1018C0009A46012B30D9C02380229B01E3181201D4
:1018D0001A60294B85005959994600291BD173017B
:1018E000E026226853401E40802352465B01E318E5
:1018F0001E60012A30D9802380229B01E318120147
:101900001A6080235B0063604B465F51E0BCBA46BF
:10191000B146A846F0BD586900F046FA01304300D0
:101920001B18033BFDD2DAE74346012BCBD1C02382
:1019300003229B01E3181A60023AA3681A42FCD002
:101940007301E0262268850053401E4080230A4A26
:101950005B019146E3181E60424621685140032214
:101960000A401A60012342469340A2681342FCD009
:10197000C1E7C046008000405C200020014B800091
:10198000C05870475C200020F8B5040021481E00B4
:1019900017000D0000F008FA0100380000F004FA0A
:1019A000069B36041B031E432368002B20DB1A4BC7
:1019B0001A49E3185A1E93418022920194465B42D1
:1019C0001B0B174A1B0363441360164A13601F0066
:1019D0000A689743FBD1144B2560E2182123A060CD
:1019E00013602368002BFCDA0823E6601360F8BD5F
:1019F0003F2322681340AB42D9D1A3681B051B0DBE
:101A00008342D4D1EE22E368D2021340B342CED156
:101A1000EDE7C046001BB7000040FDBF08C0004016
:101A200000E0004000F000400430000010B58024C9
:101A30001C4BE4051C6000281AD001231A4C1843E3
:101A40001A4BDC611A4C44401C6259629862802136
:101A5000144BC9051960174817490860E021C904EB
:101A60001960002A07D18022144B12061A6010BD9B
:101A70000E4BD861EBE753019B1A9B009A18802309
:101A800012015B049A4209D213000D490B60074B07
:101A90005A608022094BD2051A60E8E7094B1A0008
:101AA000F3E7C04600B00540D3C007B00080054052
:101AB0002D3FF84FFCFF01000820014000A0054029
:101AC00058330020FFFFFF008023024A9B000B4396
:101AD000D362704700800540142310B501001888B8
:101AE00004331B88984710BD162310B501001888D1
:101AF00002331B88984710BDF8B54746CE4680B5DF
:101B00000F1E19D014239946043304000025012622
:101B100098464B461888434621681B88984701C45D
:101B2000431E9841013540420640AF42F1D130009A
:101B3000C0BCB946B046F8BD0126F8E7142370B51D
:101B40000400188804331B880D00054998470300DA
:101B50000020002C01DB0130A04029009847C0463E
:101B600055420000AA23064A1B0113602F23054992
:101B7000D360054B19605368002BFCDA7047C046F0
:101B80000040024000B0FA00006002407047C046CA
:101B900010B50148FEF796FDB081011070B5074DF4
:101BA000074EB54209D20024013E761BB60808CD87
:101BB000984723000134B342F9D170BD607F011012
:101BC0009C7F0110054B064A06491A60064A074BDE
:101BD0001A6010000B689843FBD1704700E000408A
:101BE000BFCDFBFE08C00040FE7F3C0000F000407F
:101BF000044BDB6C002B03D18022034BD2021A6012
:101C00007047C046000011504C201150044A054B4B
:101C10001A60054A1368DB018033FBD17047C04668
:101C2000FFFFFF0100F0004008C000404022034BCE
:101C30009A675A671A67DA667047C04600F0014033
:101C400010B5FEF717FE10BD70B5044D044CA96821
:101C5000C022200000F076FCAC6070BD00ED00E01A
:101C600000000020002310B5294C82B0A367FFF7C5
:101C700079FF0122274B1A60636C012BFCD10322F0
:101C8000254B1A60224A936B012BFCD10133009340
:101C90000121224A22480433FFF776FE0523012161
:101CA0000093204A2048FFF76FFE00220221042003
:101CB0001E4BFFF7EFFD0022012105201C4BFFF713
:101CC000E9FD0022002107201A4BFFF7E3FD002267
:101CD00000210820174BFFF7DDFD8023DB00009378
:101CE000002200210920134BFFF75AFD0022104B60
:101CF00000210620FFF7CEFD0420FFF73FFE0E492E
:101D000000F052F801000020FFF7DEFE02B010BD27
:101D1000008000403CB0004030B00040002F6859C7
:101D200000800240008C864700C00240001BB700C4
:101D300040597307006CDC0240420F000148042147
:101D4000014B1847C0110020F91A0010014B9B6885
:101D500018470000C0110020124A936F9B0815D24B
:101D60009066D166002905D0FFE7FFE7FFE7516FD6
:101D7000106F704704B580210906C2175140002832
:101D800000D0C84316F094F8002104BDF0B5146EDD
:101D9000556E576F166FFFF7E3FF1466556657676A
:101DA0001667F0BD000000D0114A936F9B0813D254
:101DB00010665166002905D0FFE7FFE7FFE7516F86
:101DC000106F704704B5002801D00020C04316F002
:101DD0006FF8002104BDC046F0B5146E556E576F04
:101DE000166FFFF7E5FF1466556657671667F0BD77
:101DF000000000D094464A4A926F9208624601D28F
:101E000028E0C046F0B5464E346E756E776F366F7B
:101E100000F020F89446424A1466556657671667E4
:101E20006246F0BD94463E4A926F9208624601D2E5
:101E300054E0C046F0B53A4E346E756E776F366F2B
:101E400000F04CF89446364A146655665767166794
:101E50006246F0BD002B24DB11D000293EDA00B52C
:101E6000C943404200D1013100F038F8C943404233
:101E700000D10131DB43524200D1013300BD002AC1
:101E8000EBD1002801D1002905D00020C90FC907D6
:101E900001D1C043410800B515F0FAFF002200232C
:101EA00000BD00B500290ADBDB43524200D10133FB
:101EB00000F014F8C943404200D1013100BDC943CC
:101EC000404200D10131DB43524200D1013300F0E6
:101ED00005F8DB43524200D1013300BD002923D174
:101EE000002B18D1002A0CD0BC460D4F38667A66FC
:101EF00000210023FFE7FFE7FFE77A6F386F6746AF
:101F00007047002801D00748010000B515F0C0FF58
:101F10000022002300BD02000B00002000217047BA
:101F2000000000D0FFFFFFFF002B00D0BFE0130C2C
:101F300028D1002AE7D080B4114F39667A66FFE7CE
:101F4000FFE730B4040C7B6F396F1B0423433B66FF
:101F50007A66FFE7FFE7FFE7C04684B27B6F3D6F1D
:101F60001B0423433B667A66FFE7FFE7C046002376
:101F70002C042D0C7A6F386F00196941B0BC704782
:101F8000000000D0F0B594460025140E01D11202D5
:101F90000835140F01D112010435940F01D19200BC
:101FA0000235D40F01D152000135D40B0134254F35
:101FB0007C66254C3C660E0C93B2FFE7FFE7FFE71B
:101FC0003C6F6643360C7703BE467343DF0B5B04FE
:101FD000C01AB941130C7343DB18C91ACE08664303
:101FE000360CB64493B273431F0F1B01C01AB9419C
:101FF000130C73431F0B1B05C01AB941860D8F02CA
:102000003E436643360C092D24DB520A7243801A84
:102010007703460A6643360C16235B1BDE40DF401F
:10202000BF1964466643821B7046043506330100BF
:10203000D940A840C01900D30131A24206D20023E2
:10204000F0BD0000000000D0FFFFFFFF121B0130B9
:10205000F3D3F1E709277F1BFE406446A2B2724327
:10206000801A00D20139220C7243130C1204821A16
:1020700099410B007046043513370100F940A84020
:10208000801900D30131002B02D1A2420AD2F0BD47
:10209000013000D30131121BFAD2013BF8D1A24228
:1020A00000D2F0BD013000D30131121BF7E7F0B5CB
:1020B0001C0C00D080E00CB400251C0A04D11B02CB
:1020C000160E3343120208351C0B04D11B01160FE8
:1020D0003343120104359C0B04D19B00960F33430C
:1020E00092000235DC0B02D192185B4101351C00D5
:1020F000971864410134464F7C66464C3C660E0C92
:10210000FFE7FFE7FFE7C0463C6F6643360C770307
:10211000BE4697B27743C01B00D20139C01B00D224
:1021200001399FB27743C91BC91B170C77437E0443
:10213000FF0B801BB941CE086643360C0C2D33DBF8
:10214000B644120B1F053A431B0B97B27743C01BD3
:1021500000D201399FB27743C91B170C77433E0465
:102160003F0C801BB941860D8F023E4366432927F1
:102170007F1BFE400C3D7746AF40BF1930BCA2B27A
:10218000ABB272437343801A9941220C7243130C11
:102190001204801A994102000B000137001BA9416B
:1021A000F9D2781E0021F0BD0C277F1BFE40774638
:1021B0007F0BAF40FF19E0E700245D1C07D0144FF0
:1021C0007D663966FFE7FFE7FFE7FFE73C6F95B203
:1021D0009EB265436643401BB141150C1E0C65431E
:1021E000664336042F0C3E432D04401BB1419942F7
:1021F00004D202000B0020000021F0BD01D190426A
:10220000F7D3801A994101349942F2D3F6E70000DE
:10221000000000D0FFFFFFFF48404140484018B495
:10222000134B5B68019308BD18B4114B1B680193F5
:1022300008BD94460F4A926F920805D2624618B4C0
:102240000B4BDB68019308BD0A4AF0B5146E556E5E
:10225000576F166F6246FFF7F2FF064A146655661F
:1022600057671667F0BD18B4014B9B68019308BD12
:1022700058140020000000D0FFB5504042405040AC
:1022800059404B40594000E0FFB5154F4C00640DDC
:1022900003D0BC4204D10C0314D80020090D090559
:1022A0005C00640D03D0BC4204D11C030AD8002298
:1022B0001B0D1B0501264B4009D44B4003D58B4217
:1022C00000D18242FFBD9942FCD19042FFBD0B4339
:1022D000DB1803431343F5D0C9434918FFBD000081
:1022E000FF07000000B5FFF7CFFF804100BDC046EB
:1022F00000B5FFF7C1FF01D9002000BD012000BDDE
:1023000000B5FFF7B9FF804100BD012040054A003C
:10231000121804D85A00121801D800207047012062
:10232000704700000021002805D17047C1174840C0
:10233000401AFAD0C90713B5064B1B6898470CBC66
:10234000441CA2401005120B0349091B090519433F
:10235000114310BDECDC00201F04000010B54C0040
:10236000620D8023D218DB00D21A5B057E2A10DDB5
:102370009E3A13DACC170903490819435242D14057
:10238000640001341532202A05DAD0400843604346
:1023900010BD002010BD0846604310BDC80FC01816
:1023A000013810BD18B4024B5B6A019308BD0000F0
:1023B0005814002010B50148FEF784F9BC810110C3
:1023C000132370B51D78012D19D014DD1D48FFF7BA
:1023D0008BFB06001C48FFF787FB1C4C802231005A
:1023E000200000F0AFF8022D06D01948FFF774FB6B
:1023F000184B186070BD154C174BA364F5E7174BCD
:10240000124C23606360A360E36023616361A36196
:10241000E36123626362A362E36223636363A36392
:10242000E36323646364A364E36423656365A36572
:10243000E36523666366A366E36623676367A36752
:10244000E367D9E7534400005346000058140020C6
:102450004C330000ECDC002061240010B523001098
:1024600007B5604601880A0A0230DF2AFAD1C9B2EC
:10247000820804D3028840880004104300E000680A
:10248000014A5050039007BD581400205143434364
:10249000C9188C46110C83B24B4310B4040C614331
:1024A00092B280B2504362431C041B0C001910BC52
:1024B00059411304120CC018514161447047000087
:1024C00010B50148FEF7FEF8B09A0110132310B5BD
:1024D00010481C78FFF708FB0100012C0AD003DD2F
:1024E00080220D4800F02EF80C48FFF7F5FA0C4B4F
:1024F000186010BD084C5422200000F023F8220080
:10250000084980322368002B00D1216004349442B2
:10251000F8D1E9E753460000F0DC00204C3300001E
:10252000ECDC0020C124001001480421014B1847B5
:10253000D0110020F91A0010014B1B681847000049
:10254000D0110020014B5B6818470000D01100201B
:102550007047C046F8B55746DE464E464546E0B59C
:1025600099460A9B07009A460D9B884693460B9C0A
:102570009B073BD10C9B9C423DD21E1B0B9415002C
:102580000C005E442A004B46013521002020B8474C
:10259000B542F7D1A0460B9C002C20D045463619F9
:1025A0005346321B013C185D29004B46B847002CAE
:1025B000F6D12B00350098460D9B9B070FD55B4647
:1025C000EC1A0C9BA3420AD9464698462A004B4671
:1025D000310020200134B84701354445F6D32800A6
:1025E000F0BCBB46B246A946A046F8BD1600150091
:1025F000002CD3D1E0E71600002CCFD11500EEE778
:10260000F0B54F464646D646C0B584B098460EABA8
:102610001B7894469946129B0D9C109F119E9A0719
:1026200025D4002E65D1BC4221D201221A40924607
:10263000202C00D1E9E00C9A551E302202E0202C1B
:1026400000D17BE001342A55A742F8D85246002A2F
:102650000DD0B4420BD20C9A551E3022202C02D140
:1026600071E0202C2DD001342A55B442F9D1DA067C
:102670003CD55A052ED4002C28D10F9A102A00D10F
:10268000B6E0022A00D1BCE030220C9C227001246A
:102690004A46002A65D15A0700D499E02B220C9DA6
:1026A0002A55013403930C9B6246009302964346DD
:1026B0000194FFF74FFF04B0E0BCBA46B146A8460C
:1026C000F0BD2024DA06EDD55A0503D4A74266D022
:1026D000B44264D00F9A102A71D0022A57D0202C0D
:1026E000E0D02200013430250C9FBD54202CD9D0DD
:1026F000CEE7012215001D40AA461A4236D04A46AE
:10270000002A4AD10C321A4247D1BC42A1D2202C15
:1027100091D1202E17D82024DA06C3D55A051BD410
:10272000202F01D0202ED5D11F220F9D102D6FD02C
:10273000022DD8D162250C9FBD54D0E75246002A05
:1027400079D0202EBDD92024DA06ABD55A0503D482
:10275000202FE9D0202EE7D00F9A102AA2D12024D2
:10276000A0E72D220C9D2A5501349BE7BC4200D3E3
:102770007DE7202C00D05EE7DA06F0D55A05EED4CE
:10278000202F62D0202EEAD134001F22CDE7202C4A
:1027900000D187E722000134CCE7013EB5E7621E95
:1027A000012CC2D10F9A102A00D06AE79A063BD5B5
:1027B00058220C9C2270283A6270022468E79A061C
:1027C0000ED4202CCBD078220C9D2A55013486E7DC
:1027D0001A0700D466E720220C9D2A55013461E7D0
:1027E000202CBCD058250C9A12191570013476E7AC
:1027F0009A0608D558220C9C22703022627002245E
:1028000046E76032F7E77822F5E7002A83D1B3E79D
:10281000A21E013C9D0603D478250C9FBD5460E7A1
:1028200058250C9FBD545CE778220C9C2270483AD6
:10283000627002242CE7DA0600D433E75A058BD401
:10284000202F00D044E71F226FE73C001F226CE7D7
:1028500010B5002800D110BD01F064FBFBE7C046B5
:102860000B0010B5002802D049681B68984710BDBE
:10287000F0B557464E464546DE46E0B599B082462D
:10288000894690460893229A239B10001900FFF76F
:102890003CFD002800D0CDE0229823990122D94B9D
:1028A0005242FFF72DFD002800D0C3E02298239963
:1028B0000122D54B5242FFF715FD002800D0B9E0A8
:1028C0002298239900220023FFF70CFD002800D056
:1028D000F1E1229E239F8023269ADB001A400D926D
:1028E000269A1A4201D1062324938023269A1B019B
:1028F0001A403B0093460996334300D0B3E0002AC8
:1029000000D0C2E1002300240A930B940023042585
:102910000993259B0024AB4200D95C1B0223269A15
:102920001A400C92269A134203D06B426B415B42D1
:102930001C40099B002B07D00A9A0B9B30003900E2
:10294000FFF777FC06000F0022982399002200234E
:10295000FFF7C8FC002803D0802109067B181F0060
:10296000269AAA4B009601971340089E0493249B35
:1029700003940293424633004946504600F0AAF9B8
:102980000400002D67D02020269A494602401300FB
:102990005A4253415B42621C18400A9233002200A3
:1029A0004530D047099A6F1ED317D4185C40D30F17
:1029B0009B46002501E0202D13D008AA94461F2332
:1029C000200063440A2101355E19FFF7EDF930312B
:1029D000317020000A21FFF7E7F926000400092ED4
:1029E000E9D805230693002304930A3303935B4637
:1029F000089E029310AB0A9A009349463300504652
:102A000005970195FFF7FCFD0C9A0400002A22D0DF
:102A10004246851A259AAA421DD9B0465746160045
:102A200022004346494620200135B8470134AE42D2
:102A3000F6D810E0269B42460493259B4946039313
:102A4000249B50460293229B239C00930194089B55
:102A500000F040F90400200019B0F0BCBB46B246BB
:102A6000A946A046F0BD6A4B78009C46400D6044E4
:102A7000FFF75CFC674A684BFFF7F5FB674A684B5A
:102A8000FFF7D2FB674A3B031B0B1A4304000D0000
:102A900009981100644B0022FFF7C1FB634A644BA5
:102AA000FFF7E1FB02000B0020002900FFF7BCFB51
:102AB000FFF754FC0990FFF739FC5E4A5E4B0400B7
:102AC0000D00FFF7D0FB00225C4BFFF7ADFBFFF7DB
:102AD00045FC5B4A5B4B29000C902000FFF7C3FBD1
:102AE00004000C980D00FFF721FC574A574BFFF7E5
:102AF000BAFB02000B0020002900FFF790FB040046
:102B00000D0002000B000A940B95FFF7ACFB0400CC
:102B10000D000A980B9902000B00FFF785FB0022BD
:102B20000E900F914A4B20002900FFF782FB0022F4
:102B3000484BFFF779FB02000B0020002900FFF74C
:102B400078FB0022444BFFF76FFB02000B002000D4
:102B50002900FFF76EFB0A9A0B9B0D0080210400F1
:102B6000C9050020FFF75BFB02000B0020002900D5
:102B7000FFF75AFB02000B000E980F99FFF759FB65
:102B80000022284BFFF750FB344B0C9C9C466444BE
:102B900023050022FFF767FB04000D0002000B0075
:102BA000300039000A940B95FFF79CFB00285DD19B
:102BB00023002A00C625099963318D42AD4159464B
:102BC0006D420435002900D1A3E6134363D03000E1
:102BD0003900234A234BFFF78BFB002807D0002244
:102BE00030003900204BFFF77DFB002853D1249B98
:102BF000002B00D18DE60D9B5A1E9341249AD31AC7
:102C0000249386E6FFFFEF7FFFFFEFFFFFF7FFFF55
:102C100001FCFFFFFB799F501344D33FB3C8608B87
:102C2000288AC63F0000F03F0000F83F61436F6311
:102C3000A787D23F71A379094F930A400000E03F74
:102C40001655B5BBB16B0240EF39FAFE422EE63F96
:102C500000002C400000244000001840FF0300004A
:102C60002D431CEBE2361A3F80842E41099B002243
:102C7000013B09932000164B2900FFF7DAFA0A00FE
:102C8000010003000A910B9294E7002300240A93A9
:102C90000B9400230993249A099B9A4214DDD31ABA
:102CA000013B24938023269ADB001A43002300254E
:102CB000269209932DE6802212069446229B1E003E
:102CC000239B63441F0006E600232493EAE7C046E3
:102CD00000002440F0B54546DE464E465746E0B576
:102CE00095B08B46904699461E9A1F9B0A901900F4
:102CF0001000209DFFF709FB002800D0B0E11E98CE
:102D00001F990122C74B5242FFF7ECFA002800D06E
:102D100037E11E981F990122C34B5242FFF7F0FA88
:102D2000002800D0A7E01E981F990022BF4BFFF794
:102D3000E7FA002800D088E01E981F990022BC4BBB
:102D4000FFF7D0FA002800D07FE01E981F990022DC
:102D50000023FFF7C7FA002800D0FAE000230B9306
:102D60008023229C229ADB001C401A4200D102E1FF
:102D7000092D00D87CE106A98C462C0017220023DF
:102D80003021093C62440133D154EF1A202B00D189
:102D900032E1A342F7D10022A44B069207931E987A
:102DA0001F99FFF7DBFA0500FFF7C0FA02000B00DE
:102DB0001E981F99FFF733FA069A079BFFF753FAFD
:102DC00008900991FFF7EEFA0600FFF7ABFA020050
:102DD0000B0008980999FFF722FA0022954B0890FA
:102DE0000991FFF78DFA002800D1D2E001363000BA
:102DF000FFF798FA069A079BFFF77AFA002801D0A6
:102E000000260135AA46002F00D098E02800FFF7E1
:102E10008DFA02000B001E981F99FFF700FA854BF0
:102E2000002206000F00FFF75DFA0CAB9A4600285F
:102E300045D10022300039007E4BFFF761FA0028AF
:102E40003DD1EB073BD5013539E0229B4246049347
:102E5000219B594603930A981E9B1F9C0295009341
:102E600001944B46FFF704FD15B0F0BCBB46B246DB
:102E7000A946A046F0BD229B5B0767D403226E4B98
:102E800022990192039121990291009342464B4667
:102E900059460A98FFF75EFBE6E706AA9446172311
:102EA000280063440A2101341E19FEF755FF303112
:102EB000280031700A21FEF74FFF051E76D0202C26
:102EC000EBD10323229A1340012B1DD1219B002B10
:102ED0001AD00B9B002B00D0BBE0229A0C3313427C
:102EE00000D0B6E0219BA34200D887E006AB9C4609
:102EF00017223023624404E02199013413558C4297
:102F000059D0202CF8D12024229B01940393219B9B
:102F100002935346B9E706AA944617230A2163444D
:102F2000300001341D19FEF73FFF303129703000A9
:102F30000A21013FFEF738FF092E46D90600202C52
:102F4000E9D155460CAB20249A46B8E704223B4B06
:102F500096E71E9A1F9B00200021FFF760F90123CE
:102F60000B938023229C229ADB001E901F911C4011
:102F70001A4200D0FCE60022314B06270692079346
:102F80000DE7229B0393219B0293042301932D4B76
:102F90007BE7002208980999264BFFF7A3F9002840
:102FA00000D02FE7002E4FD101362BE70323229AC2
:102FB0001340012B66D0202CA6D00B9B002B1FD0DA
:102FC0002D235246135501349EE75546202CB9D087
:102FD00030233A19002F08D0172006A90134091808
:102FE0000B55202CAED09442F6D10CAB9A462E2332
:102FF00052461355013462E72024CCE6202C83D0BE
:10300000229B5B0708D4229B1B0700D47CE720236C
:1030100052461355013477E72B235246135501349A
:1030200072E7C046FFFFEFFFFFFFEF7F65CDCD41A9
:1030300065CDCDC10000E03F248201101C8201104B
:1030400080842E412C820110F30700D4DAE6013689
:10305000D8E6219B013B2193A34200D946E7AAE78A
:10306000229B0393219B029303230193074B0CE7BD
:10307000074BEA009B185C681B682F0006930794B7
:1030800000248CE6219B002B95D022E7288201109A
:10309000E8A20110F0B55746DE464E464546E0B57B
:1030A000A5B01F002E9B91460D93CA4ACA4B82467B
:1030B0008B461A60002900D129E20023387898460F
:1030C000002800D12BE2C54B44460C93C44B554617
:1030D0004E460E930AE0631C984622003300594680
:1030E000A84744463878002800D187E001372528D2
:1030F000F1D108239A46043B9946023B9846013B8E
:1031000000229C460B943878791C0300203BDBB2EC
:10311000102B03D80C9C9B00E3589F460300303BC8
:103120000B9C0B92092B3AD9002398462A2800D1F0
:10313000DDE000239A462E284BD00300683BDBB22B
:10314000122B1ED80E9A9B00D3589F4663460F0041
:103150001A43D8E743460F001A43D4E74B460F0003
:103160001A43D0E710230F001A43CCE753460F0051
:103170001A43C8E780235B000B9A78781A430B92B6
:1031800001310F0067284FD82428A4D90300253B1C
:10319000DBB2422B9FD893499B00CB589F4600231C
:1031A00098460B9B47469C4600E00131BB00DB196B
:1031B0005B001F180878303F0300303B092BF4D91F
:1031C00063460B930023B8469A460F0001312E2820
:1031D000B3D180200B9AC00002430B92302252429E
:1031E000944678780B0084446246092A00D8AAE104
:1031F0002A2800D1B9E10F0001319EE7A046AA4676
:10320000B146C84503D301235B424B4498464B4625
:10321000424659460020D047200025B0F0BCBB46AE
:10322000B246A946A046F0BD01006939C9B20F29CE
:1032300000D950E701238B409C466B4B994663466F
:103240004A4613400F9362464B461A4200D068E14B
:103250000A2956D0072900D03DE70D9B02CB98469E
:10326000002900D092E10B9B10211A008A43100024
:1032700011310843814680201A00C000024011002D
:1032800003421CD114AB9C461F220F2362440D95B0
:103290009C4615000F9B0B9402E0202B0CD01100D4
:1032A00064460C4020003730092C00D80738013321
:1032B000E8540A090F29F0D80B9C0D9D0F934B463B
:1032C0000822069353460592083203920022049383
:1032D0000F9B029201931CAB2200009359463300CE
:1032E0002800FFF78DF9434604000D93FAE60D9B85
:1032F00004CB9046002A79DB78780D930F000131DA
:1033000017E70D9B02CB14930B789C46180053468D
:10331000002B00D134E1002815D05346013B013386
:1033200099460D940B9C89444A460B00A14601E046
:10333000934203D05C780133002CF9D14A465B1AE2
:103340000D9C0B920F938023DB0099460B9A134040
:103350000D934B461A4204D00F9B534501D9534657
:103360000F93022399460B9A13400B934B4613423B
:1033700000D1F5E16346002B00D1D6E10D9B002B77
:1033800000D182E10B1BD14631009A463B00A1449B
:103390002E005F464D4622009B46894609E04B467B
:1033A0003900541CB0475346185D002800D192E103
:1033B00022009542F3D14B465A46A946BB463500FA
:1033C00017001E004C460B9B002B00D0ADE1149B58
:1033D0000D9387E695300010503300204CA101106A
:1033E00090A10110DCA10110419000000B9A283837
:1033F00002430B9242465242787890460F000D935A
:10340000013196E678786C2800D15DE180230B9A33
:103410005B001A430B920131B3E680239B00ABE6BD
:103420007878682800D148E180230B9A01311A434B
:103430000B92A6E6672800D1B2E0472800D11AE136
:10344000452800D11CE10B9A0721049242460D9BAE
:103450000392073352468B43190002920CC928008D
:10346000009201930D91220033005946FFF700FAB4
:10347000040037E6462800D18DE00B9A072104921C
:1034800042460D9B0392073352468B43190002922A
:103490000CC92800009201930D9122003300594677
:1034A000FFF718FC04001DE6631C98462200330059
:1034B00059462520A847444614E60D9B04330F9334
:1034C000631C99460B9B9A0700D40AE10D9B2200CE
:1034D000187859463300A84743464444012B00D886
:1034E0006FE1B0462E0025004C46B9465F462200EB
:1034F0004346013439002020B047AC42F7D12C00BC
:10350000BB4635004F4646460F9B0D93EAE5D64B2A
:1035100038789A4600239846002800D0D3E5002446
:103520006FE66F2842D000D8FDE11023782800D143
:103530009BE00B9A9A430B920A239C460023149318
:103540000A330F9338E057460B9AB900C91949005E
:1035500001330F181878303F010030390929F4D9A8
:10356000BA460B921F00591CE7E50D9BB87804CBB7
:103570000237D143C9170A4092460D93791CDCE506
:10358000002800D1DFE602235B42C8E621200B9A27
:103590000243914676E620230B9A1A430B926CE77E
:1035A00080230B9A1B011A430B924CE708239C467D
:1035B0000023149308330F930B9880230200DB0041
:1035C0001A4011000200184200D080E00C239A43F8
:1035D0001000802302009B001A400B92184200D07A
:1035E000F1E0802302005B001A4091460D9A0432FC
:1035F0001492184200D0C3E2430600D5D7E0030678
:1036000000D421E30D9B1B880993002B00D02DE1F2
:1036100010339843002900D128E1002399464346FE
:103620000593534604930F9B069003930023029344
:103630004B4601931CAB22000093594633002800EF
:10364000FEF7DEFF0400C2E6582809D0622800D049
:10365000E3E202239C460023149302330F93ABE76B
:1036600020230B9A1A430B92103B9C460023149381
:1036700010330F93A0E780230B9A1B011A430B9280
:1036800020230B9A1A430B92DDE60B1B9A460F9BE5
:1036900099463B0037005E469B4622003B003100C6
:1036A000A84753460134185D0028F6D14B460F93C6
:1036B0005B46B3463E001F0085E6C0230B9AB878F0
:1036C0001A430B92F91C5CE5C0239B00F6E70D231F
:1036D0009A4310007DE75B463500BB464E461F000F
:1036E00071E64346012B66D9631E434432002E0027
:1036F0001D003B00A2465F4691469B4622004B467A
:10370000013439002020B047AC42F7D15B46350088
:10371000BB464E46A14654461F000D9B4A461878AC
:10372000594633004444A847EEE60F9BA14698450E
:1037300000D84CE64444E41AB0462E0025004C461E
:10374000B9465F4622004346013439002020B04785
:10375000AC42F7D12C00BB4635004F46464636E614
:103760000F98804500D873E24346E218131A3200DE
:103770002E001D003B0091465F469B460F912200A4
:103780004B46013439002020B047AC42F7D15B46AC
:10379000BB461F0043460F9901330F930B7835004A
:1037A0009C464E466046002800D0E7E50FE60D9B9C
:1037B0001B78099329E70D9B22001878594633009E
:1037C000A8474C46A0E60D9AFA3BFF3B07329A43C6
:1037D0000133994691444B460D93136852681592F4
:1037E0001A4306D11032904300220992002900D0DA
:1037F00083E06122810600D54122D2B20A9214AA46
:1038000091460A9A00210A3A0B9242461792524672
:1038100018925A46B24609911E001F31149B494422
:10382000BB4616941A950024674698468946159D0E
:1038300019901B920AE03032D2B24B4601341A552D
:10384000A8454CD0202C4CD006000D003A00002397
:1038500030002900FEF7E6FAD2B2092AEBD90B9B19
:103860009C466244D2B2E8E75125001061238206EB
:1038700000D54123DBB20A3B0B93434614A91F2218
:103880008C46159353466244B2460D9417974C46A6
:103890008046A9461700099D0F9E169308E0303315
:1038A000DBB201343B55B5420ED3202C0CD00500C1
:1038B00031002800FEF778FACBB20929EFD90B9A2C
:1038C00094466344DBB2ECE7159B40469846169B52
:1038D0004D465646A1469A460D9C179F9FE6B74215
:1038E000B0D9179B56469846189B5F469A461B9B35
:1038F00009949B46169C19981A9D43460593534676
:1039000004930F9B0690039300230293099B01935A
:103910001CAB22000093594633002800FEF770FECE
:103920000400FFF7DFFB10230B9A9A430F926928DC
:1039300000D091E10B9980230A00DB001A401000AF
:103940000A00194203D0112118008A430F920F9ADE
:10395000802311009B0019408C461A425BD18023C2
:1039600011005B00194089460D9904310B911A42F0
:1039700000D0B2E013005B0600D4EDE00D9B1B7895
:103980001A00D90F0D91002B00D1A3E0100014AA4A
:10399000944642461F23159252466344A846BA46AF
:1039A0004D461494B14604001F00169201E0202DEC
:1039B0000FD020000A21FEF7F7F901357E193031CA
:1039C000317020000A21FEF7EFF926000400092ECD
:1039D000EDD8159B4E46A94645469846169B574638
:1039E0009A46149C0F9B06934346059353460493B3
:1039F0000A2303930D9B02934B4601931CAB2200B9
:103A00000093594633002800FEF7FAFD0B9B040093
:103A10000D93FFF767FB07220D9B0733934301329A
:103A200094469C4462460D920CCBD90F0B91110029
:103A3000194300D19BE0D917139112915140109175
:103A400013995940119110981199129A139B801A49
:103A500099411090119114AA944642460023159260
:103A600052469946169232001F336344A8464E468A
:103A7000BA4614941F00109C119D914601E0202E1F
:103A800010D0200029000A220023FEF7CBF90136CE
:103A900030322B00BA550D0022000400002BEED16D
:103AA000092AECD8159B10941195454698464B462B
:103AB000169AB14657461E009246149C0F9B0693D9
:103AC00043460593534604930A2303930B9B0293A7
:103AD0004B461CE7002885D159E70D9B1B68DA0F80
:103AE0001100002B00D1A6E0DA179818504014AA54
:103AF00091461F2342464B44A8460D941697040056
:103B00006546B1461F001491159201E0202D0FD09B
:103B100020000A21FEF748F901357E193031317055
:103B200020000A21FEF740F926000400092EEDD8F6
:103B3000159BAC4645469846149B4E4619000D9C75
:103B4000169F0F9B02910693434605935346049399
:103B50000A230393634650E713001B066ED50D9BA3
:103B600000229B5ED9175A184A4092B209E70023F7
:103B700099460028A2D100220023109211936AE7EF
:103B80000D9B1B689946002B03D1103398430029E5
:103B900038D16123820600D54123DBB20A3B0D9365
:103BA00043461693534614A91F228C4617932B00A5
:103BB00062444D46B24615941897804617009946C0
:103BC0000B9C0F9E08E03033DBB201343B55B5420D
:103BD0000ED3202C0CD0050031002800FEF7E4F8AD
:103BE000CBB20929EFD90D9A94466344DBB2ECE7D6
:103BF000169B40469846179B56464D469A460B9450
:103C0000189F159C43460593534604930F9B0690BB
:103C10000393002302930B9B0BE50B9980230A006F
:103C2000DB001A4010000A00194200D08BE6102376
:103C30009A430F928BE6002883D158E70D9B1B68AF
:103C4000D9175A184A409CE60D9B1B680993DCE47F
:103C5000030001330F93A5E50B926DE400B585B029
:103C60000391012102900093034813004A4202A9E4
:103C7000FFF710FA05B000BD6128001010B5094A21
:103C80000300146884B0002C08D00122009106487B
:103C9000524203A9A047012004B010BD00F08EF9E4
:103CA0000020F9E7503300205128001000BEFDE746
:103CB00010B5FFF7FBFFC04670B5FDF76FFF074D6E
:103CC000074EB54209D20024013E761BB60808CD46
:103CD000984723000134B342F9D170BD9C7F011095
:103CE000A87F0110030010B5080011001B68984759
:103CF00010BDC046F0B5C64600B5437D07000D00B7
:103D00001600002B38D0002A2EDD00216A1E9046B6
:103D10006A5C037D4C1C00200A2A0CD0A64216D0F7
:103D200043461B5D21000D3B5A4253416A5CDBB2A6
:103D30004C1C0A2AF2D1002BF0D1884217DB022159
:103D400010483B689847A64207D02000E8E7864223
:103D500003DD311A3B6828189847AD19013D2B78CF
:103D60000D3B5A4253413B7580BCB846F0BD091A21
:103D70003B6828189847E2E7036811002800984735
:103D8000F2E7C04638A30110F0B5C6460B6806003E
:103D90000C0000B5802B06D05A1C2260E418267156
:103DA00080BCB846F0BD0F4B1D68002D16D00B1D12
:103DB00098460D4F02E02D69002D0FD02B68002B87
:103DC000F9D03B68002B01D0AB42F4D1280041462A
:103DD0002268FFF78FFF2D69002DEFD1012200230C
:103DE000DBE7C0461C2F0020242F0020F0B5DE4664
:103DF00057464E464546E0B585B017001C00060004
:103E00000D00FDF7B3FC0023314A12184B4180210D
:103E100009068B4202D301222E4B52422E49080042
:103E20008A4614F06DF801906B1C03D1300013F03A
:103E300081FF0500002C26D0284B9846284B1C6893
:103E4000002C15D0002F21D1264F02E02469002C30
:103E50000ED02368002BF9D03B68002B01D09C4288
:103E6000F4D120002A003100C0472469002CF0D191
:103E7000019B002B28D1280005B0F0BCBB46B24600
:103E8000A946A046F0BD184B9846D7E7154B994672
:103E900002ABDF1D0A239B4602E02469002CE7D019
:103EA0002368002BF9D04B461B68002B01D0A3429E
:103EB000F3D12A0031002000C0475B4601223900BF
:103EC00020003B70C047E8E7504613F0D9FFD2E727
:103ED00040420F00FFFFFF7F78120020F53C0010EA
:103EE0001C2F0020242F0020E53C00100A4A1368F4
:103EF000002B05D10CE01A001B691032002B07D0F3
:103F00009842F8D1002902D103691360016170471A
:103F10000029FCD01060FAE71C2F002010B500F03B
:103F200003FB10BDF0B5CE46474680B583B06B4667
:103F30000600DD1D2870FDF719FC00231A4A12182F
:103F40004B41802109068B4202D30122174B52427A
:103F500017490800884613F0D3FF164B81461C68AA
:103F6000002C14D0144F02E02469002C0FD02368D9
:103F7000002BF9D03B68002B01D09C42F4D12000EB
:103F800001222900FFF7B6FE2469002CEFD14B4631
:103F9000002B05D1300003B0C0BCB946B046F0BD1F
:103FA000404613F06DFFF5E740420F00FFFFFF7F33
:103FB000781200201C2F0020242F002070B5040050
:103FC00013F0B8FE01230100050001222000FFF7D5
:103FD0000DFF084B1C68002C06D06368002B05D031
:103FE00098472469002CF8D1280070BD2469002C62
:103FF000F3D1F9E71C2F0020F0B5CE46474680B537
:10400000A3B004000D00FDF7B1FB0023294A1218EC
:104010004B41802109068B4202D30122264B52429A
:10402000264F380013F06CFF002306000193220096
:104030002B00234801A9FFF711FE019B8046002BAE
:1040400014D1204B1C68002C06D06368002B0BD0C9
:1040500098472469002CF8D1002E25D1404623B082
:10406000C0BCB946B046F0BD2469ECE7154B1D68ED
:104070009946002D1CD0144C02E02D69002D0FD064
:104080002B68002BF9D02368002B01D0AB42F4D170
:104090002800019A02A9FFF72DFE2D69002DEFD10E
:1040A0004B4601951C68CEE7380013F0E9FED5E7D2
:1040B0000195D1E740420F00FFFFFF7F78120020FB
:1040C000893D00101C2F0020242F00200FB400B5C4
:1040D00083B004A901C90191FFF78EFF03B008BCAA
:1040E00004B018477047C0460022014B1A70704751
:1040F00059DE00204B790020FF2B0BD18B79002B50
:1041000008D1CB79012B05D1082A03D9024B8A7833
:1041100009301A707047C04659DE002001207047F0
:1041200010B5012901D0012010BD13495379107930
:1041300009781B02034300209942F5D15378012BE3
:1041400008D0022BF0D1002064220021FDF76EFC84
:104150000120E9E7D37891781B021943DB0507D5E5
:104160004A0A100001231A407E331940FDF7E6FC8D
:1041700001204A0A4042F5E759DE00200048704716
:1041800004A4011070B5050014000120012909D113
:1041900053780020012B05D1637912791B02134358
:1041A000072B00D070BD21002800024A9F3301F088
:1041B00051FAF7E75CA30110012303700048704730
:1041C0003CA301104B780A781B0213438A7810B580
:1041D00012041A43CB781B0613439622D200934253
:1041E00000D010BD0022012011004042FDF7A6FCC6
:1041F000024B1860024B19607047C04644200020F3
:104200004820002010B5024B1878FCF771FB10BD58
:104210005ADE0020154B70B51A68002A22D0EFF341
:10422000108172B610680028FCD0BFF35F8F0020A9
:104230000F4A596010701B68BFF35F8F186081F3DD
:104240001088002400250B4E3078FCF745FB002831
:1042500004D1002400252900200070BD3078FCF72F
:1042600047FBF8E7FA240025A400ECE7F8CC00208F
:104270005CDE00205ADE002070B5040000200E0035
:1042800001F000FB002836D0002001F013FB0028CD
:1042900031D0FDF76BFA0023184A12184B418021E8
:1042A00009068B4216D2164D280013F029FE00286D
:1042B00021D0002001F0E6FA00280FD101200021D2
:1042C000404200F0FBFC03246442280013F0D8FDB8
:1042D000200070BD01220B4B5242E4E7002001F0A8
:1042E000E9FA0028EAD021003200002001F0EEFABD
:1042F000041EEAD1E7E703246442E9E740420F00E5
:10430000F4DD0020FFFFFF7F10B5FDF72FFA00233B
:104310000E4A12184B41802109068B4202D301221A
:104320000B4B52420B4C200013F0EAFD00280CD03E
:1043300001200021404200F0C1FC002001F012FBEE
:104340000028F5D1200013F09BFD10BD40420F0066
:10435000FFFFFF7FF4DD0020F8B5DE46574680B54D
:1043600005000C00FDF702FA0023374A12184B41F2
:10437000802109068B4202D30122344B5242344938
:1043800008008A4613F0BCFD002803D1C0BCBB4620
:10439000B246F8BD002001F075FA00284AD0002688
:1043A000002C43DD2B4B9B4614E0A919002001F0A3
:1043B00015FB070001200021404200F07FFC002097
:1043C00001F0D0FAFDF7D2F9224BF61918605960C6
:1043D000B4422BDD002001F021FBA71B0200B842F4
:1043E00000DD3A00002AE0D101200021404200F027
:1043F00065FC002001F0B6FA002001F043FA002825
:1044000014D0002001F00AFB0028E1D1FDF7AEF93D
:104410005B460F001A685B68002184460E4812183C
:104420004B419F4202D8D3D19445D1D9504613F085
:1044300027FDABE700200021064B1860596050466D
:1044400013F01EFDA2E7C04640420F00FFFFFF7FB2
:10445000F4DD00204814002020A1070030B52B4CCB
:1044600085B00021200013F03BFD00281CD1284B13
:104470001A68002A16D0EFF3108172B6106800286F
:10448000FCD0BFF35F8F01242248596002781B687B
:10449000D2B20470BFF35F8F0020186081F31088E0
:1044A000002A17D005B030BD01200021404200F0A5
:1044B00005FC002001F0FEF90500200013F0E0FCEF
:1044C000002DEFD0144B1B68002BEBD0134A106863
:1044D0009847E7E7FCF73EFF0400FDF747F9FA22AB
:1044E0000023920012184B41802109068B4202D30F
:1044F00001220B4B524201210291002101910949F5
:1045000020000091FCF72AFFCCE7C046F4DD002034
:10451000F8CC00205CDE0020442000204820002051
:10452000FFFFFF7F15420010D02310B51B0684B09B
:104530001C68FCF70FFFFDF70DF8A04202D0002029
:1045400004B010BD294B1B7801F072FD28480368A8
:10455000002B47D00120FCF76FFCFF23254C264998
:1045600020701840FCF7E2F920780121FCF7A2F94D
:104570000520FCF7C5F9002826D1082200211F4894
:10458000FDF7DAFFFCF7E6FE0400FDF7EFF8FA228C
:104590000023920012184B41802109068B4202D35E
:1045A0000122174B5242012102910021019115492C
:1045B00020000091FCF7D2FE0028C0DB1248012148
:1045C000FFF794FC0120BBE70120FCF741F90B4BFE
:1045D00001001800FCF7B0FC002205200B49FCF795
:1045E000CFF9EBE7FCF77EFCB4E7C046781F051077
:1045F000F4DD00205ADE00205D440010F8CC0020DD
:10460000FFFFFF7F15420010E0110020054200105F
:1046100000487047A0A40110004870474CA4011046
:1046200010B5040017480378002B20D0002C06D1C9
:10463000154B16484380063BFF3B038010BD052CFD
:1046400019D8134BA400E05812490123013804E0A3
:1046500001330A800231142B0FD0C25C002AF7D13B
:10466000C022DBB25B00920008481343E5E711214A
:1046700000F022F8DAE70020E0E7CA2303489B00B5
:10468000DBE7C04624DE002009040000342A0020B5
:1046900034A40110362A002010B5024800F0E0F8DA
:1046A00010BDC046E0DC002010B508220149FDF72E
:1046B00049FF10BDE0DC002030B54B1E012900D1C0
:1046C000A7E0664A11780D092C0030349F2900D9E3
:1046D000A2E00470012B00D1BEE00F21147821402C
:1046E0000C003034092900D998E04470022B00D125
:1046F000B2E054782509290030319F2C00D990E090
:104700008170032B00D1A7E00F2121400C00303431
:10471000092900D987E0C470042B00D19CE094786B
:104720002509290030319F2C00D97FE00171052B2C
:1047300000D191E00F2121400C003034092900D92B
:1047400076E04471062B00D186E0D4782509290053
:1047500030319F2C00D96EE08171072B00D17BE0B6
:104760000F2121400C003034092966D8C471082B70
:1047700000D171E014792509290030319F2C5FD8D0
:104780000172092B68D00F2121400C003034092917
:1047900058D844720A2B5FD054792509290030314A
:1047A0009F2C52D881720B2B56D00F2121400C0028
:1047B000303409294BD8C4720C2B4DD0947925097B
:1047C000290030319F2C00D9073101730D2B43D0C4
:1047D0000F2121400C003034092901D937310C0058
:1047E00044730E2B38D0D1790C09220030329F2926
:1047F00000D9073282730F2B2ED00F220A401100EE
:104800003731092A01D830321100C173102B23D05F
:1048100010300023037030BD07345AE737310C00E5
:1048200063E707316CE737310C0074E707317DE748
:1048300037310C0085E707318EE737310C0095E7FB
:1048400007319DE737310C00A3E70731AAE737317D
:104850000C00C4720C2BB1D1C018DAE7E0DC0020E8
:1048600010B588B004000D2200216846FDF764FEF3
:104870000D22002104A8FDF75FFE4B236A4668461F
:10488000137004A90D2213F0F3FA15210822200059
:104890006944FDF757FE08B010BDC046F8B500F0FA
:1048A0003BF90C23184DFF22AB6705201749FCF795
:1048B00067F8174C402200212000FDF73DFE4027FD
:1048C000002301262121134A66702783A26013600A
:1048D00063545F316184453963540F4A0F49636003
:1048E000E2602787A1620B606362E26213F018FB4B
:1048F00080239B052E64EB649023094AEA508022B2
:10490000084B5202DA64F8BD00001150590600202D
:10491000282F0020840010500001105080001050FB
:1049200010D001000020115010B501210520FBF727
:10493000C1FF10BD10B500220021024800F00CF9A3
:1049400010BDC046482F0020044B1970002904D028
:1049500080219023024A8902D15070474FDE002007
:10496000002011500B785B0602D14B78052B00D04C
:1049700070478A78014B1A60FAE7C0460000115070
:10498000F0B5C64600B5CC7888780A794B797F2196
:10499000A40701401B02C50913434F00A20F1400D6
:1049A000324E7A195201B21890700120684050704E
:1049B00000205B055B0DD0701383D4768046CA005F
:1049C000012D33D02A488446880162448446B44489
:1049D0006046826040461060002933D0254AC900F5
:1049E00090466246414451603F223F339343022C3C
:1049F00000D15B0020487A1901685201B218D160D9
:104A00001E4ACB18036051405A40802388465B0100
:104A10009A4228D84346A4061C4380237F197F016D
:104A2000F61972681B062343136011E0144884468C
:104A3000880162448446B444604682624046106005
:104A4000002909D100236D0175196B600D4BEB60D6
:104A5000012080BCB846F0BD084AC90090466246B5
:104A600041445162C0E7FDF793F8D3E7282F0020B7
:104A70008400105004001050F0CC002000001050B2
:104A8000800010500001105010B513F049FA10BD0D
:104A900010B57F200C0020404000E40911000019EF
:104AA0001A00034B4001C01800F056F8012010BD59
:104AB000282F00207F23180010B50840CA090B4298
:104AC00003D107497D3B9B1A8B66400080188022EA
:104AD000044B40010021C018120113F031FA10BD3F
:104AE00000201150282F00207F22130010B50B400A
:104AF0000A4200D110BDC9095B005B1804485B0184
:104B0000C018002300220349C37013F019FAF1E71B
:104B1000282F0020FFF7FFFF80220A4B520410B518
:104B20001A60094B09491A6010000B689843FBD1C1
:104B30008022002152010648FDF7FEFC0922054BA8
:104B40005A6710BD00E0004000F0004008C000407F
:104B50000000105000001150002310B5C382013333
:104B6000828283760161040013F07AF9002804D070
:104B700080219023074A8902D150200013F0A0F928
:104B8000002802D00123237710BD200013F0C0F9C4
:104B9000FAE7C046002011507047C0467047C04633
:104BA00000207047002070477047C0467047C046DD
:104BB0007047C0467047C046024B5878431E984124
:104BC000C0B27047341A0020024B18784007C00F5B
:104BD0007047C046341A0020F8B54746CE4680B527
:104BE0002B4F06003B78FF2B04D00120C0BCB946F8
:104BF000B046F8BD002154222648FDF79DFC002256
:104C0000254C264B20001A70FCF76CF9244B1C60D5
:104C1000244C2000143CFCF781F9200001F0F2FD47
:104C2000214B224D1C60224B002B27D02800FFF780
:104C3000C3FA204B2A7818601F49002489461D4971
:104C40000023884610E043461B6862019B18002B36
:104C500012D05B68002B0FD098472A780134E4B259
:104C6000511C2300A1420BDBA242ECD89B1A5B0132
:104C70004B445B68002BEFD10020B7E72A78DBE7D5
:104C800030003E70FFF70AFE3000FFF74DFEACE744
:104C900014120020341A0020EC19002050DE0020ED
:104CA000881A00200C1200208C1A00204EDE0020F2
:104CB000B9410010081700205CA50110F0B5DE46D0
:104CC00057464E464546E0B5C84B91B002931B7817
:104CD000FF2B00D13EE1C64BC64E9B465F46C64BFE
:104CE0000DAC0193C54B009335686A69EFF31081F1
:104CF00072B61368002BFCD0BFF35F8FA961280048
:104D0000210001F0ADFB6A69AB69BFF35F8F002141
:104D1000116083F31088002800D11BE16378082B11
:104D2000E2D89B00FB589F466368002BDCD0A0684C
:104D30009847D9E77F222179AF4D0A405300EB18FD
:104D40009846C809804440460123303005799D4388
:104D50000571057903339D430571002A00D100E1F7
:104D60004346A74A1B7D1278934200D3EFE0A54A41
:104D70005B011568ED18002D00D1EBE0A3686279A6
:104D80002078AD69A847AFE79F4A1378002B00D180
:104D9000E0E01378013BDBB213701378002BA3D152
:104DA0000122954D01212B78042013432B703423CD
:104DB000EA5C8A43EA54EA5C8243EA540133EA5CDF
:104DC0008A43EA54EA5C8243EA54237800209B46F3
:104DD00000F0A0FC602223791A40602A00D1EFE0A5
:104DE000402A00D1F5E0DB06DB0E012B00D113E1F8
:104DF000022B00D1C7E0002B00D0E1E0202A00D137
:104E00001CE2002A00D0DBE06379092B00D9D7E04F
:104E10007E4A9B00D3589F46774D2B78DB0700D402
:104E200062E7FFF7C7FE5FE7019BDB78DB0700D493
:104E30005AE76068FFF7B2FE56E76F4D2B78DB0745
:104E400000D451E728780007C00FFFF7B1FE4BE709
:104E500023786A4999468B46694B6A4998468A463F
:104E600039001A7847460023B04600254E46894649
:104E700010E053461B686A019B18002B00D176E0B6
:104E8000DB68300098473A780135EDB2511C2B00B1
:104E90008D4244DC9542ECD39B1A5B015B44EFE707
:104EA000237858499946564B8A4698463100BB4666
:104EB0004E461A7800250023474689460FE05346A0
:104EC0001B686A019B18002B55D0DB68300098479F
:104ED0003A780135EDB2511C2B008D4207DC95422A
:104EE000EDD39B1A009A5B0194466344EDE7019D64
:104EF000542200212800FDF71FFB1022FF21444807
:104F0000FDF71AFB28002022FF2114304E465F4691
:104F1000FDF712FB00F0F4FBFFF748FEE4E6364D28
:104F2000542200212800FDF707FB1022FF21281D35
:104F3000FDF702FB28002022FF21143046464F4691
:104F4000FDF7FAFA00F0DCFB2379AB70CCE6501CDD
:104F5000984213DA11B0F0BCBB46B246A946A0464F
:104F6000F0BDA3686279207800F0E8FBBCE6464615
:104F70004F46214DE6E74E465F46CBE71F4D9B1A55
:104F80005B015D19FAE67023217A0B4218D1C8093A
:104F900082460F330B405B0098461948EB18534488
:104FA0001B7D00789946834266D216485B010068F3
:104FB00081469944002A00D15FE14B46002B68D11D
:104FC00020780021FFF776FD80212078FFF772FD21
:104FD0008AE6104800F09EFB012158460EAAFFF712
:104FE000D1F8002800D07FE6EAE7C046141200207E
:104FF000B4A401108C1A0020341A00205CA5011002
:105000004EDE00200817002050DE0020D8A401103A
:10501000381A002085410010237A0F2BD0D8CF4AB0
:10502000EB181B791578AB423ED3691C9942C7DB5C
:105030005D1BCB4B6D01ED18686900F06BFB012126
:1050400058466B690EAA9847002800D04CE66022AB
:10505000150023791D401A42B2D163790A3B012B16
:10506000AED800F057FB63790A2B00D199E158467E
:105070000EA900F0D9FA37E6431C4B4500DAF7E0F9
:105080004B461B1A5B019946B5488144002A00D162
:10509000F3E04B46586900F03DFB4B460121584672
:1050A0005B690EAA98479CE7AE4A5B011568ED184C
:1050B000002DC1D184E7A37999466B789945D6D064
:1050C0006B78002B00D033E14B466B70002B00D186
:1050D0002BE148460138C0B2FFF79EFA002800D104
:1050E0007EE143780793022B00D079E10122C17958
:1050F000B1468B11491113400A40302112015B0166
:1051000013432A78A8468A4313432B7009239A46EF
:1051100082445646BA46C37882781B021343C318AA
:1051200005938E4B04938E4B08938E4B09938E4BB5
:105130000A93059BB34200D855E1737801220B2BEB
:1051400003D13378F278F6187378042B00D044E159
:10515000059B00279B1B9BB20693049B0B921D781B
:10516000002303931BE0099A7B011568ED18002DBD
:1051700000D132E1310058462B69069A984784469F
:10518000082803D9069A824200D313E1049B013711
:105190001D78FFB26B1C03979F4200DD1DE1BD42ED
:1051A000E1D8039B5D1B089B6D019C466544E1E7CC
:1051B0006B780CAA02321370584601230EA900F036
:1051C00049FA91E5E3881A0AD8B20F2A00D9F7E61E
:1051D00066499300CB589F460EA800F0A1FA5846A6
:1051E000A179FFF7A7FB02222B7813432B707BE5F5
:1051F000E388012B00D0E3E608222B78584693433E
:105200000EA92B7000F010FA6EE5022029780CAB85
:105210009A1C8B068908DB0F01400B43138058460C
:1052200002230EA900F016FA5EE5E388012B00D0F8
:10523000C6E608222B7813432B7018E7237A0F2B2E
:1052400000D9BDE6EB181D79444B1B789D4228D24E
:10525000444B6D011B685D19002D00D1B0E66869F3
:1052600000F058FA012158466B690EAA9847B8E633
:10527000002A00D0A4E60023994662790220130098
:1052800003928343012B15D0002A00D098E62B000F
:105290004344534430331B790CAA9B07DB0F023283
:1052A000BCE75A1CAA4200DA8AE6ED1A2C4B6D01C3
:1052B000ED18D4E7E388002B12D1029B1878039BEA
:1052C000012B23D0FFF7F6FB43460221EB18534492
:1052D00030331A790A4301211A711A790A431A7173
:1052E0004B46002B00D1FFE4586900F013FA4B46FF
:1052F00001215B690EAA58469847002000F00AFA7F
:105300003523EB5CDB0700D5EEE4B0E6FFF7ECFB02
:1053100043460221EB18534430331A798A431A71F9
:105320001A7903998A431A71DAE7FFF73FFC9EE680
:1053300000215846FFF708FB5846FFF7A5FBAB785E
:10534000074903930491054B064998461A7805913D
:10535000002329001D008A461BE0C0464EDE0020C7
:105360005CA5011008170020481A002000A50110B4
:10537000059B6A011B689B18002B4DD0DB685846C3
:10538000984743461A780135EDB2511C2B008D42E7
:105390002EDC9542ECD39B1A049A5B01944663443D
:1053A000ECE70CAB9A1C584601230EA9157000F0CF
:1053B00051F999E40B9A012A4FD0002A3CD00023DE
:1053C000B07804E00133DBB20F71934234D2C118DC
:1053D000C9B241440D79FF2DF4D04E46454657469B
:1053E00000236B70ECE54E465746FFF7DDFB3EE6CB
:1053F0005546542200212800FDF79EF81022FF2177
:10540000281DFDF799F828002022FF211430FDF710
:1054100093F8039BAB7057E65546FAE7FEF7AEFEEE
:10542000021E00D1CCE5D37891781B020B4358467D
:105430000EA900F00FF9D4E565463B002A003100C3
:105440000A9800F07DFEAC46049B039A1B786644E4
:105450000133934200DB6CE6BFE7174B29699942A1
:10546000ADD1079AABE7FFF79BFB021E00D1A7E582
:10547000584613780EA900F0EDF8B2E52189FFF740
:10548000CFF8021EF4D19BE5022A0FD0FFF78AFB6A
:10549000021EC8D194E5FFF7BBF8021E00D18FE5CC
:1054A000122358460EA900F0D5F89AE5FFF7B4F894
:1054B000021EB8D184E5C046315B0010F8B55746EE
:1054C0004E46DE4645460C00E0B516001F00002A99
:1054D0003CD01F4B00259A46702399461D4B9B4696
:1054E00017E05B462000997800F0ECFD00281FD003
:1054F00021004046FFF744FA002819D0A378DA09C2
:10550000012A1CD00A9A013513702378E418B54299
:105510001CDA6378052B0BD1E3789B079B0FBB420A
:1055200006D153464A461B789846A3781A42D8D0EB
:105530000020F0BCBB46B246A946A046F8BD0B9A77
:10554000013513702378E418B542E2DB0120F0E75F
:1055500014120020341A0020702270B5094B0C0080
:105560001D788B781A4201D0002070BD064B2000B8
:10557000997800F0A7FD0028F6D021002800FFF759
:10558000FFF9F2E714120020341A00200B007F20EC
:1055900010B51840DB0934334000044AC018044BEE
:1055A0001168C01800F04AFD10BDC046881A0020DE
:1055B000341A00200B007F2010B51840DB0934336B
:1055C0004000044AC018044B1168C01800F05EFD8A
:1055D00010BDC046881A0020341A002070B57F2400
:1055E0000F480C4064000419CD0964193034207947
:1055F000C00701D5002070BD012625790948354333
:1056000000782571FFF744FA0028F4D101222379AC
:10561000934323712379033293432371EAE7C0460E
:10562000341A00201412002070B5094C060008221C
:1056300020000D00FCF786FF00238021E360A360BB
:105640002B783000994300220023FFF7C7FF70BD7D
:10565000D8190020F8B5CE4647469046264E80B56C
:105660008146082230000D001F00FCF76BFF434607
:10567000B3600023F381EC79AB7924021C43231C33
:10568000BC4200D93B1C9FB2B381002C0ED0002F2E
:1056900018D04346002B2CD03B1C402F1BD89FB268
:1056A00033787F2B1CD80021144A0FE080212B78FF
:1056B0000022994348460023FFF790FFC0BCB9463B
:1056C000B046F8BD7F230022317899433B0048461D
:1056D000FFF784FFF2E740239FB233787F2BE2D9B4
:1056E000064C3A0041462000FCF72CFF80212200A6
:1056F000ECE70020E2E7C046D8190020F4190020AA
:1057000010B5142200210248FCF716FF10BDC04658
:10571000D8190020014B18617047C046D8190020E5
:1057200010B5054C010008222000FCF70BFF0023F8
:10573000A360E36010BDC046D819002070B5384C96
:105740001D0023780600DA09C9098A4210D000201A
:10575000002D00D070BD21003000FFF703F9236950
:10576000002B03D022000321300098470120F1E7ED
:10577000A0687F2B05D8002834D02A002949FCF7DF
:10578000E1FEE289A1685219E38892B24919E281E7
:10579000A160934214D03F2D12D9A389981A051CF9
:1057A00080B240282AD82078ADB27F2828D800219E
:1057B0009A4232D01B4A2B003000FFF70FFFC9E797
:1057C0002369002B05D022000221300098470028D1
:1057D0000AD0802123780022994330000023FFF76C
:1057E000FDFEB7E70020B5E700213000FFF762F9C2
:1057F00030008021FFF75EF90120ABE74025D2E7BA
:105800009A4207D0074C2A002000FCF79BFE80211B
:105810002200D0E780210022CDE70022CBE7C0465E
:10582000D8190020F419002070B50400FFF7C4F95E
:10583000002800D170BDFFF7C7F90028FAD1E3783E
:10584000002BF7D025001035280000F0F3FD3F288D
:10585000F0D90020E178FFF799FE0028EAD028006F
:1058600000F0E8FD3F2808D992239B00E218E17878
:1058700040230020FFF7B2FEDCE7E1780020FFF7CD
:1058800099FED7E710B50400FFF796F9002801D17B
:10589000002010BDFFF798F90028F9D1B22292003C
:1058A0006243034B01309B181B791840F1E7C04657
:1058B00010170020B2239B00434310B5024818186C
:1058C00000F09AFD10BDC04620170020F0B5B226AA
:1058D000B60046433500C6468023204F10350400ED
:1058E00000B57D195B029A4200D31D4A280092B28E
:1058F00000F004FE8046FFF75FF9002803D1404620
:1059000080BCB846F0BDFFF75FF90028F7D1B2239D
:105910009B005C433C19E378002BF0D0280000F09A
:1059200089FD3F28EBD90020E178FFF72FFE002802
:10593000E5D0280000F07EFD3F280AD992239B0085
:105940009C4666444023E178BA190020FFF746FEE2
:10595000D5E7E1780020FFF72DFED0E710170020F3
:10596000FFFF0000F8B50400FFF726F9002801D179
:105970000020F8BDFFF728F90028F9D1B2239B00D9
:105980005C432500144E2435AD19280000F034FD89
:105990000028EDD037190020B978FFF7F7FD00286F
:1059A000E6D0A2239B009C466444A4192100280051
:1059B000402200F0A3FDB978051E08D003002200A4
:1059C0000020FFF70BFE0028D2D02800D1E70020EE
:1059D000FFF7F0FDCCE7C0461017002070B5B224E9
:1059E000A40044430B4B0500E41880235B029A4259
:1059F00000D3094A200092B200F048FE06002000C1
:105A000000F0FAFC3F2801D8300070BD2800FFF7F5
:105A1000A9FFF9E734170020FFFF0000B2239B0025
:105A2000434310B50248181800F004FD10BDC046ED
:105A300034170020B222F0B500251B4C83B00021A2
:105A400020009200FCF778FD184B80261D70FF2384
:105A50006371E1235B02A36021000823200076002C
:105A6000A373320038310095073B103000F08EFCF4
:105A700021000123200039313200FF31009324300E
:105A800000F084FC8E239B00E7183800FBF72AFA0D
:105A900090239B00E6183000FBF724FAE5612762AB
:105AA0002663656303B0F0BD101700200C170020BB
:105AB0000B4B196B00290AD01A6A002A0DD000225C
:105AC0001A621A63DA6100225A63012070471A6A67
:105AD000002AFAD0D9611962F7E71A63F3E7C046E2
